:020000040800F2
:10000000FFFF012085440208BD410208C1410208EA
:10001000C5410208C9410208CD41020800000000A4
:10002000000000000000000000000000115A00085D
:10003000D141020800000000A15A0008E93300087D
:10004000D5440208D5440208D5440208D544020824
:10005000D5440208D5440208D5440208D544020814
:10006000D5440208D5440208D5440208D544020804
:10007000D5440208D5440208D5440208D5440208F4
:10008000D5440208D5440208D5440208D5440208E4
:10009000D5440208D5440208D5440208D5410208D7
:1000A000D5440208DD410208D5440208D5440208BF
:1000B000D5440208E9410208F5410208D544020886
:1000C000D5440208D5440208D5440208D5440208A4
:1000D000D544020801420208D5440208D54402086A
:1000E00005420208D5440208D5440208D544020856
:1000F000D5440208D5440208D5440208D544020874
:10010000D5440208D5440208D5440208D544020863
:10011000D5440208D5440208D5440208D544020853
:100120000D42020819420208D5440208D5440208CB
:10013000D5440208D5440208D5440208D544020833
:10014000D5440208D5440208D5440208D544020823
:10015000D5440208D5440208D5440208D544020813
:10016000D5440208D5440208D5440208D544020803
:10017000D5440208D5440208D54402080000000016
:08018000D5440208D544020831
:1001900010B5054C237833B9044B13B10448AFF3C1
:1001A00000800123237010BDE00200200000000049
:1001B000C849020808B5034B1BB103490348AFF314
:1001C000008008BD00000000E4020020C8490208C9
:1001D00010F8012B11F8013B012A28BF9A42F7D0F1
:1001E000D01A7047034613F8012B002AFBD1181AC6
:1001F0000138704781F0004102E000BF83F0004306
:1002000030B54FEA41044FEA430594EA050F08BFB1
:1002100090EA020F1FBF54EA000C55EA020C7FEA75
:10022000645C7FEA655C00F0E2804FEA5454D4EBF2
:100230005555B8BF6D420CDD2C4480EA020281EABC
:10024000030382EA000083EA010180EA020281EAF4
:100250000303362D88BF30BD11F0004F4FEA013146
:100260004FF4801C4CEA113102D0404261EB410155
:1002700013F0004F4FEA03334CEA133302D05242DB
:1002800063EB430394EA050F00F0A780A4F1010497
:10029000D5F1200E0DDB02FA0EFC22FA05F28018D1
:1002A00041F1000103FA0EF2801843FA05F35941B7
:1002B0000EE0A5F120050EF1200E012A03FA0EFC36
:1002C00028BF4CF0020C43FA05F3C01851EBE37160
:1002D00001F0004507D54FF0000EDCF1000C7EEB7D
:1002E00000006EEB0101B1F5801F1BD3B1F5001FBB
:1002F0000CD349085FEA30004FEA3C0C04F10104DA
:100300004FEA445212F5800F80F09A80BCF1004F02
:1003100008BF5FEA500C50F1000041EB045141EA84
:10032000050130BD5FEA4C0C404141EB0101013C4D
:1003300028BFB1F5801FE9D291F0000F04BF01463C
:100340000020B1FA81F308BF2033A3F10B03B3F10E
:1003500020020CDA0C3208DD02F1140CC2F10C029E
:1003600001FA0CF021FA02F10CE002F11402D8BFFC
:10037000C2F1200C01FA02F120FA0CFCDCBF41EAC8
:100380000C019040E41AA2BF01EB0451294330BD97
:100390006FEA04041F3C1CDA0C340EDC04F1140474
:1003A000C4F1200220FA04F001FA02F340EA03004B
:1003B00021FA04F345EA030130BDC4F10C04C4F191
:1003C000200220FA02F001FA04F340EA0300294671
:1003D00030BD21FA04F0294630BD94F0000F83F4BB
:1003E000801306BF81F480110134013D4EE77FEA9E
:1003F000645C18BF7FEA655C29D094EA050F08BFEA
:1004000090EA020F05D054EA000C04BF19461046CA
:1004100030BD91EA030F1EBF0021002030BD5FEA0E
:10042000545C05D14000494128BF41F0004130BD36
:1004300014F580043CBF01F5801130BD01F000458A
:1004400045F0FE4141F470014FF0000030BD7FEAFD
:10045000645C1ABF194610467FEA655C1CBF0B46F8
:10046000024650EA013406BF52EA033591EA030F0F
:1004700041F4002130BD00BF90F0000F04BF002107
:10048000704730B54FF4806404F132044FF000053A
:100490004FF0000150E700BF90F0000F04BF0021B3
:1004A000704730B54FF4806404F1320410F0004519
:1004B00048BF40424FF000013EE700BF42004FEA14
:1004C000E2014FEA31014FEA02701FBF12F07F4391
:1004D00093F07F4F81F06051704732F07F4208BF48
:1004E000704793F07F4F04BF41F40021704730B54F
:1004F0004FF4607401F0004521F000411CE700BF9B
:1005000050EA010208BF704730B54FF000050AE01D
:1005100050EA010208BF704730B511F0004502D51E
:10052000404261EB41014FF4806404F132045FEA20
:10053000915C3FF4D8AE4FF003025FEADC0C18BFC9
:1005400003325FEADC0C18BF033202EBDC02C2F1BB
:10055000200300FA03FC20FA02F001FA03FE40EA4D
:100560000E0021FA02F11444BDE600BF70B54FF051
:10057000FF0C4CF4E06C1CEA11541DBF1CEA13552F
:1005800094EA0C0F95EA0C0F00F0DEF82C4481EA97
:10059000030621EA4C5123EA4C5350EA013518BFB7
:1005A00052EA033541F4801143F4801338D0A0FBA4
:1005B00002CE4FF00005E1FB02E506F00042E0FB51
:1005C00003E54FF00006E1FB03569CF0000F18BF57
:1005D0004EF0010EA4F1FF04B6F5007F64F54074FF
:1005E00004D25FEA4E0E6D4146EB060642EAC62192
:1005F00041EA55514FEAC52040EA5E504FEACE2EFF
:10060000B4F1FD0C88BFBCF5E06F1ED8BEF1004F01
:1006100008BF5FEA500E50F1000041EB045170BD7D
:1006200006F0004646EA010140EA020081EA0301C1
:10063000B4EB5C04C2BFD4EB0C0541EA045170BDBD
:1006400041F480114FF0000E013C00F3AB8014F137
:10065000360FDEBF002001F0004170BDC4F1000480
:10066000203C35DA0C341BDC04F11404C4F1200501
:1006700000FA05F320FA04F001FA05F240EA02005C
:1006800001F0004221F0004110EBD37021FA04F692
:1006900042EB06015EEA430E08BF20EAD37070BD4C
:1006A000C4F10C04C4F1200500FA04F320FA05F0AB
:1006B00001FA04F240EA020001F0004110EBD370AD
:1006C00041F100015EEA430E08BF20EAD37070BD1D
:1006D000C4F1200500FA05F24EEA020E20FA04F3F6
:1006E00001FA05F243EA020321FA04F001F00041A5
:1006F00021FA04F220EA020000EBD3705EEA430E16
:1007000008BF20EAD37070BD94F0000F0FD101F044
:100710000046400041EB010111F4801F08BF013C7D
:10072000F7D041EA060195F0000F18BF704703F0BB
:100730000046520043EB030313F4801F08BF013D42
:10074000F7D043EA0603704794EA0C0F0CEA1355FE
:1007500018BF95EA0C0F0CD050EA410618BF52EAB8
:100760004306D1D181EA030101F000414FF00000BE
:1007700070BD50EA410606BF1046194652EA4306CC
:1007800019D094EA0C0F02D150EA013613D195EA40
:100790000C0F05D152EA03361CBF104619460AD188
:1007A00081EA030101F0004141F0FE4141F4700192
:1007B0004FF0000070BD41F0FE4141F4780170BD82
:1007C00070B54FF0FF0C4CF4E06C1CEA11541DBFE7
:1007D0001CEA135594EA0C0F95EA0C0F00F0A7F8E9
:1007E000A4EB050481EA030E52EA03354FEA013116
:1007F00000F088804FEA03334FF0805545EA131329
:1008000043EA12634FEA022245EA111545EA1065F0
:100810004FEA00260EF000419D4208BF964244F187
:10082000FD0404F5407402D25B084FEA3202B61AA6
:1008300065EB03055B084FEA32024FF480104FF47A
:10084000002CB6EB020E75EB030E22BFB61A7546EE
:1008500040EA0C005B084FEA3202B6EB020E75EB81
:10086000030E22BFB61A754640EA5C005B084FEAE9
:100870003202B6EB020E75EB030E22BFB61A7546B6
:1008800040EA9C005B084FEA3202B6EB020E75EBC1
:10089000030E22BFB61A754640EADC0055EA060E82
:1008A00018D04FEA051545EA16754FEA06164FEAC5
:1008B000C30343EA52734FEAC2025FEA1C1CC0D171
:1008C00011F4801F0BD141EA00014FF000004FF0FE
:1008D000004CB6E711F4801F04BF01430020B4F1BF
:1008E000FD0C88BFBCF5E06F3FF6AFAEB5EB030C77
:1008F00004BFB6EB020C5FEA500C50F1000041EB74
:10090000045170BD0EF0004E4EEA113114EB5C0440
:10091000C2BFD4EB0C0541EA045170BD41F4801113
:100920004FF0000E013C90E645EA060E8DE60CEA1B
:10093000135594EA0C0F08BF95EA0C0F3FF43BAF38
:1009400094EA0C0F0AD150EA01347FF434AF95EAEF
:100950000C0F7FF425AF104619462CE795EA0C0FD3
:1009600006D152EA03353FF4FDAE1046194622E7A0
:1009700050EA410618BF52EA43067FF4C5AE50EA7A
:1009800041047FF40DAF52EA43057FF4EBAE12E76A
:100990004FEA410212F5001215D211D56FF47873A7
:1009A000B3EB625212D94FEAC12343F0004343EA4A
:1009B000505311F0004F23FA02F018BF4042704725
:1009C0004FF00000704750EA013005D111F00040AF
:1009D00008BF6FF0004070474FF00000704700BF45
:1009E0004FEA4102B2F1E04324BFB3F5001CDCF151
:1009F000FE5C0DD901F0004C4FEAC0024CEA507089
:100A0000B2F1004F40EB830008BF20F001007047B7
:100A100011F0804F21D113F13872BCBF01F00040BA
:100A2000704741F480114FEA5252C2F11802C2F1EC
:100A3000200C10FA0CF320FA02F018BF40F001006D
:100A40004FEAC1234FEAD32303FA0CFC40EA0C001F
:100A500023FA02F34FEA4303CCE77FEA625307D15C
:100A600050EA01331EBF4FF0FE4040F44000704793
:100A700001F0004040F0FE4040F40000704700BF2D
:100A80007BB972B90029BEBF00204FF0004106E0DB
:100A900008BF00281CBF6FF000414FF0FF3000F08E
:100AA000B9B9ADF1080C6DE904CE002909DB002BC2
:100AB0001ADB00F04DF8DDF804E0DDE9022304B0B4
:100AC0007047404261EB4101002B1BDB00F040F816
:100AD000DDF804E0DDE9022304B0404261EB4101AE
:100AE000524263EB43037047524263EB430300F00F
:100AF0002FF8DDF804E0DDE9022304B0404261EBA9
:100B000041017047524263EB430300F021F8DDF8E6
:100B100004E0DDE9022304B0524263EB4303704773
:100B200053B94AB9002908BF00281CBF4FF0FF3154
:100B30004FF0FF3000F06EB9ADF1080C6DE904CE56
:100B400000F006F8DDF804E0DDE9022304B07047A8
:100B50002DE9F047089D04468C46002B40F0838029
:100B60008A42174647D9B2FA82F242B1C2F1200056
:100B700024FA00F09140974040EA010C94404FEA7B
:100B80001748230CBCFBF8F61FFA87FE08FB16C1BA
:100B900043EA014306FB0EF1994209D9FB1806F11D
:100BA000FF3080F01981994240F21681023E3B44A9
:100BB0005B1AA4B2B3FBF8F008FB103344EA034419
:100BC00000FB0EFEA64509D93C1900F1FF3380F069
:100BD0000581A64540F2028102383C4440EA0640C5
:100BE000A4EB0E0400261DB1D4400023C5E9004348
:100BF0003146BDE8F08702B9FFDEB2FA82F2002A80
:100C000050D1CB1B4FEA174E1FFA87F80126B3FBD2
:100C1000FEFC210C0EFB1C3341EA034108FB0CF3E4
:100C20008B4207D979180CF1FF3002D28B4200F2C7
:100C3000E9808446C91AA3B2B1FBFEF00EFB101185
:100C400043EA014408FB00F8A04507D93C1900F12C
:100C5000FF3302D2A04500F2D9801846A4EB080465
:100C600040EA0C40BFE78B4209D9002D00F0B1806B
:100C70000026C5E9000130463146BDE8F087B3FAE9
:100C800083F6002E4AD18B4202D3824200F2B88012
:100C9000841A61EB030101208C46002DA8D0C5E920
:100CA000004CA5E7C2F1200320FA03F6974001FAB1
:100CB00002F04FEA174ED9403043030CB1FBFEF669
:100CC0001FFA87F80EFB161143EA014306FB08F1F1
:100CD000994204FA02F409D9FB1806F1FF3C80F0AE
:100CE0008D80994240F28A80023E3B445B1A81B279
:100CF000B3FBFEF00EFB103341EA034100FB08F3A7
:100D00008B4207D9791800F1FF3C73D28B4271D91D
:100D100002383944CB1A40EA064678E7C6F1200C7F
:100D200003FA06F422FA0CF31C4320FA0CF701FA3A
:100D300006F34FEA144E21FA0CF11F433B0CB1FBB2
:100D4000FEF91FFA84F80EFB191143EA014109FB71
:100D500008FA8A4502FA06F200FA06F308D9611881
:100D600009F1FF3048D28A4546D9A9F10209214448
:100D7000A1EB0A01BFB2B1FBFEF00EFB101147EA76
:100D8000014700FB08F8B84507D9E71900F1FF3122
:100D90002ED2B8452CD90238274440EA0940A7EBA7
:100DA0000807A0FB02894F45C64649461AD317D00B
:100DB0005DB1B3EB0E0267EB010707FA0CFCF240E2
:100DC0004CEA0202F740C5E9002700263146BDE89B
:100DD000F0872E4628460BE70646E9E61846FDE66C
:100DE0004345E5D2B8EB020E69EB04010138DFE7B9
:100DF0000846D2E760468DE78146B9E7664675E763
:100E000030464AE7ACF1020C394413E702383C445F
:100E100024E700BF704700BF08B50B4B1A6842F4C7
:100E200000721A601A6842F480621A601A6842F40A
:100E300080721A60032000F003FB002023F07EF98B
:100E400022F006FF002008BD003C0240034A044B8C
:100E500011681B780B441360704700BF24410020C9
:100E600000000020014B1868704700BF244100209B
:100E700038B50446FFF7F6FF631C054602D0044B65
:100E80001B781C44FFF7EEFF431BA342FAD338BD87
:100E900000000020002800F0A080F8B5056C044692
:100EA0003DB1236CDB060CD5002384F83C300120D7
:100EB000F8BD22F0F7FE6564236C84F83C50DB0635
:100EC000F2D4226C48492368484D22F4885222F01B
:100ED000020242F0020222644A6822F440324A606E
:100EE0004A68606802434A6058682169A768E668F2
:100EF00020F4807058605A6842EA01225A605868AB
:100F000020F0407058605968A06A39435960996868
:100F100021F4006199609A68A84242EA06029A6048
:100F200052D09968E56A21F0706199609A6810431F
:100F30009860996821F0405199609A682A439A60B4
:100F40009A6822F002029A609A68217E42EA41027F
:100F50009A6094F82020002A41D05A68616A42F4CD
:100F600000625A605A6822F460425A605A68013935
:100F700042EA41325A60DA6AE069656922F4700235
:100F8000DA62D96A013841EA0051D962996821F4DC
:100F900000719960996894F8302041EA4221996083
:100FA000996821F4806199609A68002042EA85225C
:100FB0009A606064236C23F0030343F0010323640D
:100FC000002384F83C30F8BD9A6822F070629A6081
:100FD0009A6822F040529A60B2E7012070475A683E
:100FE00022F400625A60C6E7002301400100000FAE
:100FF000F0B5054690F83C0083B000240128019428
:1010000000F0918001232E6885F83C30B368DF073B
:1010100014D4494B494C1868B368A4FB0040800CB9
:1010200043F0010300EB4000B3600190019B2BB142
:10103000019C013C019401980028F9D1B368DC05BA
:1010400003D5B36823F48073B360B0682B6C10F0E1
:1010500001004FD023F4E06323F0010343F48073D5
:101060002B647368580505D52B6C23F4405343F467
:1010700080532B642B6CA86BDFF8D8C0304F13F46F
:1010800080531CBF6B6C23F006036B642D4B002454
:1010900085F83C40C0E90FC36FF02203C76433609A
:1010A000736843F080637360B76847F480771346D2
:1010B000B7600A4606F14C0100F0DEFA224B586890
:1010C00010F01F001FD12A6820498A4209D001F57B
:1010D00080718A422CD01E498A4212D15B68DB069D
:1010E0000FD4906810F0405011D1936843F08043C2
:1010F000936006E043F010032B646B6C43F0010334
:101100006B6403B0F0BD2B68104A934202D00020FC
:1011100003B0F0BD986810F0405007D19A6842F0D3
:1011200080429A60EDE7022003B0F0BD2046E8E778
:101130005B68D906D5D0E4E77002002083DE1B434C
:10114000691100085D1100080023014000200140E2
:101150000022014081110008704700BF08B5806B74
:10116000FFF7FAFF08BD00BF806B08B5402303649A
:10117000436C43F00403436420F0A2FD08BD00BFAC
:10118000836B1A6C12F0500F10B51A6C23D142F415
:10119000007219681A648A6812F0405F17D11A7ECB
:1011A000AAB9CA6A12F4700F02D08A6850050ED428
:1011B0004A6822F020024A601A6C22F480721A6493
:1011C0001A6CD10403D41A6C42F001021A64184656
:1011D00020F05EFD10BDD20604D49B6BBDE810402C
:1011E000DB6C1847184620F06BFD10BDF0B490F88A
:1011F0003C3082B00022012B019200F09480012348
:1012000080F83C300D68092D29D804688B68226964
:1012100005EB45070726BE4022EA06022261226945
:10122000BB40134323614B68062B2E462CD803EB9F
:101230008303626B053B1F21994022EA010262632E
:10124000626B06FA03F313436363394B9C422FD05E
:10125000002380F83C30184602B0F0BC70470468A8
:101260008B68E768AEB206EB46021E3A4FF0070CF9
:101270000CFA02FC27EA0C07E760E76893403B435F
:10128000E3604B68062BD2D90C2B37D803EB8303D2
:10129000A3F123011F22236B8A4023EA0203236365
:1012A000236B06FA01F11943214B21639C42CFD1F4
:1012B000122D32D0A5F11003012BC9D81D4A536855
:1012C000102D43F400035360C2D11B4B02F1467250
:1012D0001B6802F52E3202F28332A2FB03239B0C21
:1012E00003EB83035B000193019B002BB0D0019BB8
:1012F000013B0193019B002BF9D1A9E703EB83028A
:10130000413AE36A1F21914023EA0103E362E36A61
:1013100006FA02F11943E16297E7064A536843F47B
:101320008003536094E7022002B0F0BC704700BF16
:1013300000200140002301407002002000287CD0E2
:1013400038B590F820300446002B73D0226813681B
:1013500043F001031360FFF785FD054604E0FFF746
:1013600081FD431B0A2B5CD823685A68D107F6D548
:101370001A6822F002021A60FFF774FD054604E0C5
:10138000FFF770FD401B0A284BD823685A68920764
:10139000F6D4227E012A1A680CBF42F0800222F0A5
:1013A00080021A60627E012A1A680CBF42F0400275
:1013B00022F040021A60A27E012A1A680CBF42F095
:1013C000200222F020021A60E27E012A1A680CBF75
:1013D00022F0100242F010021A60227F012A1A68DD
:1013E0000CBF42F0080222F008021A60627F012A54
:1013F0001A680CBF42F0040222F004021A60D4E919
:101400000221D4E904500A4361682A4302430139A6
:101410000A4301250021DA61616284F82050084600
:1014200038BD636A052243F40033636284F82020E8
:10143000012038BD22F0FAFC88E70120704700BF88
:101440000849CA6810B400024FF6FF04224000F4B5
:10145000E063134343F0BF6343F400335DF8044B90
:10146000CB60704700ED00E0194BDB68C3F302234B
:1014700030B4C3F10705042D03F1040428BF04258B
:10148000062C19D9033B4FF0FF349C4022EA04029A
:101490004FF0FF34AC4021EA04019940002841EAB2
:1014A00002010CDB00F1604000F561400901C9B2A6
:1014B00080F8001330BC704700221346E8E7054B64
:1014C00000F00F0009010344C9B2197630BC70471F
:1014D00000ED00E0FCEC00E0002807DB00F01F015D
:1014E000034A400901238B4042F82030704700BF77
:1014F00000E100E000280DDB430907492033012209
:1015000000F01F0002FA00F041F82300BFF34F8FF4
:10151000BFF36F8F704700BF00E100E080B110B5EE
:101520004379044603F0FF021BB1012363710020DD
:1015300010BD027122F0BCFC01236371002010BDBC
:1015400001207047F8B50446FFF78CFC002C54D0FE
:1015500023680022022184F8351084F834201A68A8
:1015600022F0010205461A6005E0FFF77BFC431BF1
:10157000052B3BD823681A68D107F6D4D4E9012695
:10158000D4E90350324361691F682A43D4E90665F0
:1015900002430A43206A354932432A430243606AC0
:1015A0003940042841EA020129D019605A6922F021
:1015B00007021043DAB22E495861103AA1FB02012A
:1015C00009092C4823F47F73415CE16523F0030390
:1015D0005F2A88BF04333F228A4001250021A3658A
:1015E0009A60616584F835500846F8BD03232022CF
:1015F000626584F835301846F8BD0120F8BDD4E99D
:101600000B5028430143A26A1960586920F0070073
:10161000104340F00400002DCCD07EB1B6F5005F41
:1016200012D0022A03D9032AC4D1EA01C2D5012368
:101630004022626584F835301846F8BD012A11D081
:1016400032F00202B6D1F0E7032AB3D801A151F873
:1016500022F000BF2F1600082B1600082F160008D6
:1016600065160008B5F1C07FA4D1E0E73F8010F017
:10167000ABAAAAAA3C4A0208F0B490F83440866D9E
:10168000012C34D090F835400125AC4280F834501C
:1016900005D0002380F83430F0BC02207047046885
:1016A0000227002580F8357045652568876825F490
:1016B0008025402F256063600ABFA260A160E160C1
:1016C000C16D18BFE2603F238B40026CB36023689A
:1016D00043F0160323601AB1236843F00803236024
:1016E000236843F0010323600020F0BC7047022010
:1016F000F0BC70472DE9F04182B00023866D019364
:10170000C36D3468714908229A4022420D688046B0
:1017100004D001680F68780700F18A8001229A409E
:10172000224204D0D8F800104969090678D404226E
:101730009A40224204D0D8F8001009688F0767D475
:1017400010229A40224204D0D8F800100F683807BF
:1017500049D420229A40224217D0D8F800100C68B1
:10176000E00612D5B26098F83520052A73D00B68D0
:1017700013F4802F0B6800F09080190340F19B80D8
:10178000D8F83C300BB140469847D8F854303BB3BA
:10179000D8F85430DA071BD5D8F800204C49052377
:1017A00088F835301368A1FB051523F00103136099
:1017B000AD0A02E01368DB0704D5019B0133AB429D
:1017C0000193F7D90122002388F8352088F83430B6
:1017D000D8F84C3023B1404602B0BDE8F04118477C
:1017E00002B0BDE8F081B2600A6812F4802F0A6886
:1017F0002AD1D70503D40A6822F008020A60D8F873
:101800004020002AA5D040469047D8F85C30A0E799
:10181000B260D8F8542042F00402C8F854208FE790
:10182000B260D8F8542042F00202C8F854207EE793
:101830000F6827F004070F60B260D8F8542042F018
:101840000102C8F8542069E71203D8D5D8F8482017
:10185000002AD8D17DE70A68D8F8404022F0160265
:101860000A604A6922F080024A6154B30A6822F091
:1018700008020A603F22D8F8501002FA03F301244C
:101880000022B36088F8354088F834200029A7D0BA
:10189000404602B0BDE8F041084713F480737FF47E
:1018A0006FAF0A68012422F010020A6088F8343011
:1018B00088F8354064E7D8F84430002B7FF463AFF4
:1018C00063E7D8F84820002AD0D1D3E7700200207F
:1018D000B5814E1B1B4BDA68D10605D51A49CA697A
:1018E00010200243CA61D860164BDA68920606D50A
:1018F0001549CA69202042F00802CA61D860114B1C
:10190000DA68500606D51049CA69402042F0040240
:10191000CA61D8600B4BDA68110606D50A49CA6954
:10192000802042F00202CA61D860064BDA68920752
:1019300006D50549CA69022042F02002CA61D86072
:10194000704700BF003C024028410020064B1A6946
:10195000002A01DB002070470449054A59605A609B
:101960001869C00F704700BF003C02402301674563
:10197000AB89EFCD034A136943F0004313610020A4
:10198000704700BF003C0240124B70B50022044675
:10199000DA61FFF767FA104D064601E0611C0DD1D0
:1019A000EB68DA03FAD4EB68DB0744BF0123EB6092
:1019B000094BD86810F0F20008D170BD24B1FFF7D0
:1019C00051FA801BA042EBD9032070BDFFF782FFC4
:1019D000012070BD28410020003C02402DE9F84361
:1019E0002C4E347E012C33D081461D464CF25030B3
:1019F00001230F4690463376FFF7C6FF18B1002348
:101A00003376BDE8F883244B1A6922F440721A61D8
:101A10001A69B9F1000F1ED0B9F1010F24D0B9F144
:101A2000020F2CD042F440721A611A6942F001028E
:101A30001A61C7F80080BFF36F8F7D604CF25030A1
:101A4000FFF7A2FF144A136923F001031361D6E7DD
:101A50000220BDE8F8831A6119695FFA88F241F043
:101A6000010119613A70E9E742F480721A6119695B
:101A70001FFA88F241F0010119613A80DEE742F471
:101A800000721A611A6942F001021A61C7F80080F7
:101A9000D4E700BF28410020003C024039B10129B1
:101AA0001CD002290CBF4FF400714FF440710D4B54
:101AB0001A6922F440721A611A69114319611A698C
:101AC00022F0F8021A611A6942EAC00040F00200EE
:101AD00018611A6942F480321A6170474FF48071BC
:101AE000E5E700BF003C0240144B1A6891050FD592
:101AF0001A6822F400721A601A6842F400621A60CE
:101B00001A6822F400621A601A6842F400721A60BD
:101B10000A4B1A6852050FD51A6822F480621A60BF
:101B20001A6842F480521A601A6822F480521A60CD
:101B30001A6842F480621A60704700BF003C02409D
:101B40002DE9F8432D4F3B7E012B38D0012304466D
:101B50004CF2503088463B76FFF716FF064648BBEE
:101B60004FF0FF33C8F800302368012B2BD0D4E9A5
:101B700002532B449D421BD2DFF8849005E0D4E948
:101B8000022301351344AB4212D9217C2846FFF7CA
:101B900085FF4CF25030FFF7F7FED9F8103023F0F4
:101BA000FA03C9F810300028E9D0C8F800500646FA
:101BB000FFF79AFF00233B763046BDE8F883022604
:101BC0003046BDE8F8830E4D23692A6922F440723D
:101BD0002A612A6942F004022A612A691B029BB227
:101BE000134343F480332B614CF25030FFF7CCFEAB
:101BF0002B6923F0040306462B61D9E72841002016
:101C0000003C02402DE9F04F8B46DFF814A2096832
:101C1000DFF810C285B00023D94603E00133102B52
:101C200000F0898001229A4002EA010B8A43F5D133
:101C3000D9F8045005F00302541E012C4FEA430763
:101C40007CD9032A40F0BB80BA40D4430094076893
:101C5000009C3C40224315F4403F0260DED000224D
:101C60000392DAF8442042F48042CAF84420DAF8B9
:101C7000442023F0030404F1804402F4804204F57C
:101C80009C34039203F00306039AA768B6000F2260
:101C9000B24027EA02025B4FB84220D007F58067C6
:101CA000B84200F09180584FB84200F09280574FF0
:101CB000B84200F09380564FB84200F09480554FE0
:101CC000B84200F09580544FB84200F09680534FD0
:101CD000B8420CBF0727082707FA06F63243A2606E
:101CE000DCF800206FEA0B06EC0354BF32404BEAED
:101CF0000202CCF80020DCF80440AA0354BF3440B0
:101D00004BEA0404CCF80440DCF80840EF0254BF6E
:101D100034404BEA0404CCF80840DCF80C20AC0258
:101D200003F1010354BF32404BEA0202102BCCF8FE
:101D30000C207FF477AF05B0BDE8F08F86680324F0
:101D4000BC4026EA040ED9F80C60BE4046EA0E06F6
:101D50008660D0F804E0C5F300162EEA0B0E9E4014
:101D600046EA0E06E44300944660C668009C06EA14
:101D7000040ED9F80860BE4046EA0E06022AC66084
:101D800001D0BA4063E74FEAD30800EB880803F0BC
:101D9000070ED8F8204001944FEA8E0E0F2404FA63
:101DA0000EF6019C24EA0606D9F81040019604FAC2
:101DB0000EF6019C2643BA40C8F8206047E703248A
:101DC000BC40E4430094D0E7012707FA06F632430B
:101DD00085E7022707FA06F6324380E7032707FA6A
:101DE00006F632437BE7042707FA06F6324376E726
:101DF000052707FA06F6324371E7062707FA06F6C3
:101E000032436CE70000024000080240000C024030
:101E1000001002400014024000180240001C024062
:101E200000380240003C01402DE9F04F0023DFF86C
:101E30004091DFF84081DFF840A1DFF840B102E0D7
:101E40000133102B73D0012606FA03F232EA0104A3
:101E500002EA010CF4D123F0030505F1804505F5F4
:101E60009C3503F00304D5F808E0A4000F27A74031
:101E7000484507EA0E0E17D050455BD058455CD058
:101E8000364EB0425DD0364EB04252D0354EB042A2
:101E90005BD0354EB0425CD0344EB04214BF082601
:101EA000072606FA04F400E00024A6451BD1D8F862
:101EB000004024EA0C04C8F80040D8F8044024EAA2
:101EC0000C04C8F80440D8F8084024EA0C04C8F808
:101ED0000840D8F80C4024EA0C04C8F80C40AC6860
:101EE00024EA0707AF6004685D000326AE40DD0802
:101EF00024EA060400EB8505046003F007042F6A5A
:101F0000A4004FF00F0C0CFA04F427EA04042C622E
:101F1000C46824EA0604C460446824EA02024260F9
:101F20008268013322EA0606102B86608BD1BDE859
:101F3000F08F042606FA04F4B7E7022606FA04F442
:101F4000B3E7032606FA04F4AFE7052606FA04F41D
:101F5000ABE7062606FA04F4A7E700BF000C024030
:101F6000001002400014024000180240001C024011
:101F700000000240003C0140000402400008024012
:101F80000369194214BF01200020704702B90904F7
:101F900081617047044A5169014200D1704708B518
:101FA000506121F013FD08BD003C0140002800F005
:101FB000A5812DE9F0410368DD0782B004462FD5E5
:101FC000AC498A6802F00C02042A00F0EC808A68AE
:101FD00002F00C02082A00F0E2806368B3F5803F4B
:101FE00000F0EB80B3F5A02F00F07881A14D2A68B6
:101FF00022F480322A602A6822F480222A60002B90
:1020000040F0E080FEF72EFF064605E0FEF72AFFCF
:10201000801B642800F200812B689B03F6D42368A0
:102020009F0728D5934A916811F00C0F00F090801B
:10203000916801F00C01082900F08680E368002B0C
:1020400000F006818C4B8B4E01221A60FEF70AFFCE
:10205000054605E0FEF706FF401B022800F2DC8083
:1020600033689807F6D53368226923F0F80343EA0A
:10207000C203336023681A0752D458072FD57D4A0C
:10208000136C13F080537ED000257C4E3368D90545
:1020900040F1B280A368012B00F0C280052B00F054
:1020A0002F81744E326F22F001023267326F22F0BC
:1020B00004023267002B40F0B880FEF7D3FE41F2F5
:1020C0008838074605E0FEF7CDFEC01B404500F20C
:1020D000A380336F9807F6D4002D40F00981A069E2
:1020E000D0B1644DAB6803F00C03082B00F0CC803A
:1020F000634B002202281A6000F00C81FEF7B2FE4A
:102100002C46054605E0FEF7ADFE401B022800F216
:10211000838023689B01F6D4002002B0BDE8F081E3
:10212000636903B3574B534E01221A60FEF79AFEC0
:10213000054604E0FEF796FE401B02286CD8736F3C
:102140009B07F7D5236898E7526856023FF576AFAC
:10215000484A1268950743D5E268012A40D0012019
:1021600002B0BDE8F081474A424E1360FEF77AFEA6
:10217000054604E0FEF776FE401B02284CD8736F3C
:102180009F07F7D4DEE70193136C43F08053136489
:10219000136C03F080530193019B012575E74A6896
:1021A00050027FF51AAF334A126891037FF538AFBA
:1021B0006268002A7FF434AFD1E72E4A136843F4F3
:1021C00080331360FEF74EFE2A4E054604E0FEF70C
:1021D00049FE401B64281FD833689A03F7D51EE7D1
:1021E000244920690A6822F0F80242EAC0020A6023
:1021F0001A077FF542AF93E7336843F48073336087
:10220000FEF730FE07463368DA053FF543AFFEF7C9
:1022100029FEC01B0228F6D9032002B0BDE8F081D8
:10222000144A136F43F001031367FEF71BFE114FAF
:10223000064641F2883804E0FEF714FE801B404554
:10224000EAD83B6F9B07F7D5002D3FF448AF4FE02E
:10225000094A084E1360FEF705FE054604E0FEF746
:1022600001FE401B0228D7D833689907F7D42368AA
:1022700001E700BF00380240000047420070004004
:1022800060004742800E474201283FF446AF6B682A
:10229000E26903F4800191427FF461AF226A03F0A6
:1022A0003F0191427FF45BAF616A47F6C0721A400A
:1022B000B2EB811F7FF453AFA26A5208013A03F4D4
:1022C0004031B1EB024F7FF44AAFE26A03F0706332
:1022D000B3EB026F14BF012000201EE7244B1A68E5
:1022E00042F480221A601A6842F480321A6069E768
:1022F0001F4A136C23F080531364F0E601207047EB
:102300001B4B1A6F42F004021A671A6F42F0010267
:102310001A678AE7FEF7A6FD064605E0FEF7A2FD6E
:10232000801B02283FF678AF2B689901F6D4D4E9D8
:102330000736D4E90902E16A334343EA80135208BD
:1023400043EA0163013A0B49094E43EA0243012281
:102350006B600A60FEF786FD044605E0FEF782FD2D
:10236000001B02283FF658AF33689A01F6D5D3E632
:102370000038024060004742014B01221A6070475A
:102380004C004742174908B58B6803F00C03042B37
:102390001BD0082B17D14A684B6813F4800302F056
:1023A0003F0214D149681048C1F38811A1FB000114
:1023B000FEF7B6FB0B4B5B68C3F3014301335B00D5
:1023C000B0FBF3F008BD084808BD084808BD4B68DD
:1023D0000648C3F38813A3FB00010023FEF7A0FB0C
:1023E000E8E700BF003802400024F400001BB700FB
:1023F000002800F08780484A136803F007038B42E7
:102400002DE9F0410D46044609D2CBB21370136892
:1024100003F007038B4202D00120BDE8F08123685E
:10242000980714D5590704D53C498A6842F4E0520C
:102430008A601A0704D539498A6842F460428A6082
:102440003649A0688A6822F0F00202438A60DF07FA
:1024500021D56268012A57D0931E012B2F4B1B6890
:102460004DD99907D8D52D4EB36823F003031343F4
:10247000B360FEF7F7FC41F28838074604E0FEF748
:10248000F1FCC01B404544D8B368626803F00C03FC
:10249000B3EB820FF3D1204A136803F00703AB427A
:1024A00006D9EBB21370136803F00703AB42B3D144
:1024B00023685A0706D51949E0688A6822F4E05271
:1024C00002438A601B0707D5144A2169936823F4E5
:1024D000604343EAC1039360FFF754FF0F4A104C77
:1024E00092681049C2F303120346A25C0E48D3401F
:1024F00000680B6021F022FE0020BDE8F081980109
:10250000B1D489E701207047044B1B689E03AAD40D
:1025100082E7032081E700BF003C02400038024010
:102520002C0C04087002002004000020044B054A13
:102530009B680549C3F382230868D35CD840704781
:10254000003802403C0C040870020020044B054A8D
:102550009B680549C3F342330868D35CD840704791
:10256000003802403C0C0408700200200E4B0F2281
:1025700002609A6802F0030242609A6802F0F00278
:1025800082609A6802F4E052C2609B68DB0810B473
:1025900003F4E053054C036123685DF8044B03F03A
:1025A00007030B60704700BF00380240003C024048
:1025B000704700BF08B5054BDB681B0600D408BD9B
:1025C000FFF7F6FF024B80221A7008BD0038024068
:1025D0000E3802402DE9F04182B0984614460D466F
:1025E0000746FEF73FFCA044A8EB0006FEF73AFCC6
:1025F000264B1B68C3F3CB3306FB03F380460193E2
:102600003A6801E0631C07D1936835EA0303F9D007
:10261000002002B0BDE8F081FEF724FCA0EB08002A
:10262000B04208D2019A019B002A03F1FF3308BF90
:1026300000260193E4E7D7E900315A68B1F5827FBB
:1026400022F0E0025A6014D0BA6AB2F5005F07D0F7
:102650000122002387F8512087F850300320D8E763
:102660001A6822F400521A601A6842F400521A6082
:10267000EEE7BA68B2F5004F02D0B2F5806FE3D151
:102680001A6822F040021A60DEE700BF70020020E4
:1026900070B5164C164B2568A3FB0535436882B010
:1026A0006D0D4FF47A7606FB05F5B3F5827F04468F
:1026B000019507D10CE0019B2268013B01939368CF
:1026C0001B0602D5019B002BF5D1002002B070BD86
:1026D00013460A468021FFF77DFF0028F5D0636D81
:1026E00043F0200363650320F0E700BF7002002081
:1026F000819F5E1600285BD0F8B5476A0446002F1C
:1027000046D00023C0E9043394F85120002002F0A1
:10271000FF01A062002A41D0D4E90135E168A66931
:1027200003F4827205F4044523692A4301F400612D
:102730000A4303F0020163690A4303F001031A43E9
:10274000E369216803F0380E06F400731343022294
:1027500084F85120226A350C43EA0E0302F0800609
:1027600005F004020D6807F0100733433A430343B2
:1027700025F040050D600B604A60CB69002223F410
:1027800000630125CB61626584F851501046F8BDA5
:102790004368B3F5827FB7D0C761B5E7204684F8B8
:1027A000501021F09FFBD4E9097303F40050B3E704
:1027B000012070472DE9F041044690F850000128AF
:1027C00082B05FD01D46012384F8503088461746FA
:1027D000FEF748FB94F85130012B0646D8B209D0D9
:1027E00002200122002384F8512084F8503002B0E6
:1027F000BDE8F081B8F1000FF3D0002FF1D0A2684E
:10280000C4F83080032384F85130B2F5004F4FF004
:1028100000036365C4E91033A363A387E786A78633
:10282000E387236859D01A68520603D41A6842F025
:1028300040021A60E268B2F5006F626826D0002A92
:1028400054D0012F52D0E38E9BB273B959E0226B62
:1028500012781A73E28E236B013A92B20133E28648
:102860002363E28E92B2002A4BD023689A689207C3
:10287000EDD4FEF7F7FA801BA842F2D36B1CF0D020
:102880000320AEE7022002B0BDE8F081002A4ED15D
:10289000414631F8022BDA60E28E2163013A92B2AE
:1028A000E286E28E92B26AB92BE0226B32F8021B0A
:1028B000D960E38E2263013B9BB2E386E38E9BB239
:1028C000FBB123689A689007EFD4FEF7CBFA801B20
:1028D000A842F3D3691CF1D0D2E71A6822F0400273
:1028E0001A601A6842F480421A609CE798F8002047
:1028F0001A73E38E226B013B9BB20132E3862263A3
:10290000A1E7324629462046FFF7C2FE08B1202340
:102910006365A36833B922680193D3680193936810
:102920000193019B606D003818BF012059E7012F0A
:10293000B7D1ADE72DE9F047044690F8500082B0DA
:1029400001280A9E00F089809846012384F85030BF
:102950008A469146FEF786FA94F851706368012F13
:102960000546F9B211D0B3F5827F09D002200122C9
:10297000002384F8512084F8503002B0BDE8F0877D
:10298000A268002AF2D10429F0D1BAF1000F68D070
:10299000B9F1000F65D0B8F1000F62D094F8512062
:1029A0002068C4F83890042A1CBF052284F85120FE
:1029B00000226265A4F83E80A4F836800168A4F87D
:1029C0003C80C4E910224A06C4F830A0A4F8348040
:1029D00003D4026842F040020260E268B2F5006F80
:1029E0005FD0002B3FD0B8F1010F3CD00127E38E20
:1029F0009BB21BB9E38F9BB2002B3FD02268936838
:102A000099070FD5E38E9BB263B15FB1236B1B783F
:102A10001373E38E216B2268013B9BB20131E38685
:102A200021630027936813F001030DD0E18F89B271
:102A300051B1A16BD2680A70E28FA16B013A92B2D8
:102A400001311F46E287A163FEF70CFA431BB34234
:102A5000CDD3731CCBD0032089E7022002B0BDE8A0
:102A6000F087012083E79AF800300373E38E226B2E
:102A7000013B9BB20132E3862263B7E72A46314627
:102A80002046FFF705FE00284DD1A368002B7FF4F8
:102A90006EAF23680190DA6801929B680193019BF5
:102AA00065E7002B3BD1514631F8023BC360E38E12
:102AB0002163013B9BB2E3860127E38E9BB21BB9E6
:102AC000E38F9BB2002BD9D0226893689B070DD56A
:102AD000E38E9BB253B14FB1216B31F8023BD3600F
:102AE000E38E2163013B9BB2E3860027936813F0DA
:102AF00001030CD0E18F89B249B1A16BD26821F8F2
:102B0000022BE28FA163013A92B21F46E287FEF7E1
:102B1000A9F9401BB042D0D3701CCED09BE7B8F1CE
:102B2000010FC9D1BFE72023636501201FE700BF64
:102B300038B370B590F8493015460E46044603F098
:102B4000FF02CBB1214651F8080B00F0D5FBA2687B
:102B50002068314600F0FCFBD4E90102236B2946D2
:102B600000F016FCA168226852F8213043F00103FE
:102B700042F82130002070BD80F8482021F098FAFA
:102B8000E0E70120704700BF90F83D30012B2FD1C6
:102B900003681949022280F83D20DA688B4242F02E
:102BA0000102DA6019D0B3F1804F16D0134A934274
:102BB00013D002F5806293420FD002F580629342F7
:102BC0000BD002F57842934207D002F5705293423F
:102BD00003D0A2F59432934204D19A6802F007021E
:102BE000062A07D01A6842F001021A6000207047D6
:102BF00001207047002070470000014000040040A1
:102C00000368DA6822F00102DA601A6A41F21111EF
:102C10000A4208D1196A40F24442114203D11A68AB
:102C200022F001021A60012380F83D300020704735
:102C300000293ED190F83E30012B42D1022380F88A
:102C40003E3003680122186A01F01F0102FA01F107
:102C500020EA010010B418621A6A2B4C1143A342F7
:102C6000196230D0294A93422DD0B3F1804F13D04E
:102C7000A2F5803293420FD002F5806293420BD0CE
:102C800002F58062934207D002F59A32934203D054
:102C9000A2F59432934204D19A6802F00702062A00
:102CA0001AD01A685DF8044B42F0010200201A6045
:102CB0007047042918D008291ED090F84130012B04
:102CC0000ED0012070475A6C42F400425A649A6850
:102CD00002F00702062AE4D100205DF8044B704799
:102CE000022380F84130ACE790F83F30012BE8D167
:102CF000022380F83F30A4E790F84030012BE0D168
:102D0000022380F840309CE70000014000040140AD
:102D1000FFF78EBF90F83C30012B75D00246F0B41F
:102D20000223146882F83D30012082F83C00A56837
:102D30000B6825F47F4525F07705602BA56065D0ED
:102D400024D8402B7CD04BD9502B17D1256A266A2A
:102D50004868CF6826F001062662A36925F00A01BB
:102D600023F0F003014343EA0713A3612162A36840
:102D700023F0700343F05703A360002001210023D8
:102D800082F83D1082F83C30F0BC7047B3F5805FAC
:102D900038D0B3F5005F10D1D1E90153C868A168FC
:102DA0002B4343EA002321F47F410B43A360A36834
:102DB00043F48043A3600020E0E7702BDED1D1E92B
:102DC0000153C868A1682B4343EA002321F47F41E3
:102DD0000B43A360A36843F07703A3600020CDE713
:102DE000202B02D00AD9302BC8D1A16821F0700164
:102DF0000B4343F00703A3600020BFE733F010014B
:102E0000BCD1F2E70020B9E702207047206A4D6884
:102E1000CE6820F010002062A169236A21F470417D
:102E200023F0A00343EA051341EA0631A1612362BE
:102E3000A36823F0700343F06703A36000209DE7BD
:102E4000256A266A4868CF6826F001062662A369CB
:102E500025F00A0123F0F003014343EA0713A361BD
:102E60002162A36823F0700343F04703A3600020AE
:102E700084E700BF704700BF704700BF704700BFC6
:102E8000704700BF03681A69910710B5044602D560
:102E9000DA6892075FD41A69500702D5DA685107D9
:102EA00046D41A69120702D5DA6810072ED41A69B7
:102EB000D20602D5DA68D00618D41A69D10702D52D
:102EC000DA68D2075DD41A69100602D5DA681106ED
:102ED0005FD41A69520602D5DA68500661D41A69BD
:102EE000910602D5DA68920643D410BD6FF0100146
:102EF000082219612277DB6913F4407F204664D0F1
:102F0000FFF7BAFF002223682277D6E76FF00801A7
:102F1000042219612277DB699907204652D1FFF715
:102F2000A9FF2046FFF7AAFF002223682277BEE709
:102F30006FF004010222196122779B6913F4407F2C
:102F400020463CD1FFF796FF2046FFF797FF00226F
:102F500023682277A5E76FF0020101221961027749
:102F60009B699B0725D0FFF787FF00222368227704
:102F700091E76FF0200220461A61BDE8104000F092
:102F8000FDB86FF001021A61204620F067FD23684A
:102F900099E76FF080021A61204600F0F1F823688B
:102FA00097E76FF040021A612046FFF769FF236838
:102FB00095E7FFF75FFF2046FFF760FFD5E7FFF7D4
:102FC0005BFFC4E7FFF758FFAEE7FFF753FF20466C
:102FD000FFF754FF96E700BF2F4A0368904270B492
:102FE00043D0B0F1804F34D0A2F57C42904230D033
:102FF00002F5806290422CD002F58062904228D087
:1030000002F57842904230D002F57052904224D0BE
:1030100002F58062904220D002F5806290421CD07E
:10302000A2F59832904218D002F58062904214D0F6
:1030300002F58062904210D04D698C680A6823F0D6
:1030400080032B4303600123C462826270BC43612E
:1030500070474A6823F070031343CE684D698C684B
:103060000A6823F440733343E9E74D68CC684A6942
:1030700023F070032B4323F44073234323F0800396
:10308000134303608B68C3620B6883620B6903633D
:10309000012370BC436170470000014050B310B57C
:1030A00090F83D30044603F0FF02F3B102232146BD
:1030B00084F83D3051F8040BFFF78EFF012384F8AC
:1030C000463084F83E3084F83F3084F8403084F84D
:1030D000413084F8423084F8433084F8443084F836
:1030E000453084F83D30002010BD80F83C2020F0B1
:1030F00031FFDBE70120704790F83C30012B36D0E0
:103100000368022230B480F83D205A680C68194DDB
:1031100022F070022243AB429C685A6019D0B3F18E
:10312000804F16D0144A934213D002F58062934226
:103130000FD002F5806293420BD002F578429342A1
:1031400007D002F57052934203D0A2F59432934215
:1031500004D14A6824F0800414439C6000230122B7
:1031600080F83D2080F83C3030BC18467047022083
:10317000704700BF0000014000040040704700BFDE
:10318000704700BF70B5044633482268E56811698E
:10319000A368266921F44051294311616569D1680A
:1031A00033432B43E56921F4164121F00C012B43F5
:1031B0000B43D3605369A16923F440730B438242EC
:1031C000536129D0254B9A4226D0FFF7AFF9E36926
:1031D000B3F5004F26D16268214D92184FF00003DD
:1031E0004FF019015B41A0FB0101FDF799FCA5FB24
:1031F00000325109642202FB1103DB003233A5FBCC
:103200000323C3F342121B09246802EB011203F4E7
:10321000F8731344A36070BDFFF798F9E369B3F541
:10322000004FD8D063680E4D19219A00A0FB010110
:103230009B0FFDF775FCA5FB00314909642202FBD9
:1032400011031B0132332468A5FB0323090101EBA1
:103250005313A36070BD00BF001001400014014073
:103260001F85EB5160B338B590F83D30044603F04C
:10327000FF0203B32268242384F83D30D36823F48B
:103280000053D3602046FFF77DFF23681A6922F4BC
:1032900090421A615A6922F02A025A61DA680025BE
:1032A000202142F40052DA60256484F83D1084F84D
:1032B0003E10284638BD80F83C2020F09DFED9E71E
:1032C00001207047B0B10268242310B580F83D306A
:1032D000D36823F400530446D36020F0CDFE0023CE
:1032E000236484F83C3084F83D3084F83E3018463E
:1032F000236310BD01207047D1E90132F0B4D1E958
:103300000365134333434C69CF6B2B43D1E9066507
:1033100023433343D1E908642B433343D1E90A659E
:1033200023430C6833432B430E6B50F8245007495A
:103330003B43334329400B43082A08BF43F0400373
:1033400040F824300020F0BC704700BF8000F0FF40
:1033500070B40B688D694C688E682B4343EA041384
:10336000D1E9035400EB820243EA0623486951681D
:1033700043EA0543013C43EA0453023843EA00634D
:1033800001F040410B43002070BC5360704700BF08
:10339000B3F5804F05D06FF0704340F82230002025
:1033A000704770B40B688D694C682B43D1E9026596
:1033B00043EA0413064950F8224043EA062343EA4D
:1033C000054321400B4340F8223070BC0020704779
:1033D0000000F0CF10B502F0AFFA20B1BDE8104008
:1033E000D0E90030184710BD08B5054B1B6801F047
:1033F000C7FD012800D108BDBDE8084002F082BB2E
:1034000010E000E0EFF305832BB9064B186828B9EC
:1034100001221A6070476FF0050070474FF0FF30CF
:10342000704700BFC80B002010B5EFF3058474B9D6
:10343000084B1A68012A07D107490222CC771A6083
:1034400001F036FB204610BD4FF0FF3010BD6FF08D
:10345000050010BDC80B002000ED00E0F0B587B0FE
:10346000002415460594EFF30582EAB958B3F5B187
:10347000AB6963BB18236A68D20724D46E6956B35C
:103480004FEA960CAC682F6854B3EA68CB2A1AD975
:103490002D69C5B1BEB1CDE90154009362460B461A
:1034A000394601F099FA0446204607B0F0BD4FF4C2
:1034B0000072182305AC009301940B46294601F0D5
:1034C000C3FA01280AD00024204607B0F0BD5C1ED4
:1034D000372CD0D9F7E74FF4007CD3E7059CE3E71E
:1034E000EE68002EE0D12D69002DDDD11FFA8CF29F
:1034F0003D46DFE7F0B100291CDB30B585B04FF069
:10350000FF3304460293EFF30585B5B1002503AA06
:103510002B4600920122039501F0FEFE02AB0095BE
:1035200020462A46294601F0F7FE039B93B90298EC
:1035300005B030BD6FF0030070472B46012201F04B
:103540006BFE204602AB2A46294601F065FE029832
:1035500005B030BD044B4FF080521A60BFF34F8F5F
:10356000BFF36F8FE3E700BF04ED00E0F0B583B079
:10357000EFF30585B5B9002804460EDB01F0FAFC2F
:1035800001AB2A462946074601F046FE01280ED027
:103590004FF0FF36304603B0F0BD6FF00306304603
:1035A00003B0F0BD6FF00506304603B0F0BD019EDC
:1035B0002B4626EA040138460322019101F02CFE35
:1035C0000128E5D1E6E700BF2DE9F04F83B0EFF326
:1035D0000584002C40D10028064643DB11F0020F81
:1035E000924689460CBF83464FF0000B01F072FBF8
:1035F000BAF1000F09F0010980460CBF6FF0020715
:103600006FF0010755462B4601AA5946002001F0EC
:10361000B3FD012802D0C8B13C46F4E7019B344019
:103620001C43B9F1000F0ED036EA04030DD0BAF1F5
:10363000000F1DD001F04EFBA0EB08039D42454456
:1036400008D32D1ADFE72642F1D02746384603B0CB
:10365000BDE8F08F0025D6E76FF00507384603B0C8
:10366000BDE8F08F6FF00307384603B0BDE8F08F78
:103670006FF00207EAE700BF10B5EFF305842CB93D
:1036800000B910BD01F002FB204610BD6FF005002F
:1036900010BD00BF2DE9F0411C4682B0EFF3058359
:1036A000BBB90546A8B108200E46174602F042FBFA
:1036B000804670B1321EC0E9005718BF0122E4B144
:1036C000A3682068ABB1E1682B2906D8404602F018
:1036D0009DFB002002B0BDE8F0810D49CDE900134B
:1036E0004346012101F080FF0028EFD002B0BDE881
:1036F000F081E368002BE9D10446054B0093204696
:103700004346012101F052FF0028EFD1DEE700BF60
:10371000D5330008EFF3058373B910B582B070B1EB
:103720000A460093042101F087FF01280CBF002006
:103730006FF0020002B010BD6FF0050070476FF02F
:103740000300F7E770B5EFF30583DBB90446E0B19A
:103750004668330716D48168C36806F0010681B154
:103760004F2B0FD9DEB1042000F0C4FB05464DB14C
:103770002168284600F0CAFE2EB145F00105284612
:1037800070BD8BB10025284670BD012000F008FCFB
:1037900005460028F6D0214600F0B8FEF3E70120E8
:1037A00000F0A8FB0546E2E74EB1042000F0F8FB6C
:1037B00005460028E6D0216800F0A8FEDDE70120DC
:1037C00000F0EEFB05460028DCD0216800F09EFEEC
:1037D000D9E700BF20F0010200F00103EFF30580FC
:1037E000A8B9BAB110B510460C4653B900F05EFD49
:1037F00001280AD0002C14BF6FF001006FF0020006
:1038000010BD00F02FFE0128F4D1002010BD6FF094
:10381000050070476FF00300704700BFEFF30581AC
:10382000B1B920F00102B2B108B500F001031046B1
:103830003BB91A46194600F09DFA012805D100202F
:1038400008BD00F08DFB0128F9D06FF0020008BD23
:103850006FF0050070476FF003007047F0B583B05C
:10386000EFF3058676BB68B388420F462AD3154628
:103870007AB3D2E902237AB14F2B23D9012836D06B
:1038800000F036FA0446E8B12D682046294600F0DB
:103890003DFE204603B0F0BDA3B9012821D103228B
:1038A0000021012000F018FA04465CB177B1002332
:1038B0001A461946204600F05DFA012806D0204637
:1038C00000F0F4FD0024204603B0F0BD002DDBD154
:1038D000DBE70128E3D000F02FFA04460028D4D11A
:1038E000F0E700F029FA04460028CDD1EAE70321E9
:1038F000134600913246314600F096F90446D4E76B
:1039000020B310B582B0EFF305839BB1002401A969
:10391000019400F0BFFB012815D1019B83B10D4B31
:103920004FF080521A60BFF34F8FBFF36F8F204666
:1039300002B010BD1A46194600F01CFA012802D147
:10394000002002B010BD6FF00200FAE76FF0030034
:10395000704700BF04ED00E0054B036010B44FF466
:103960000073044C0C605DF8044B1360704700BF9B
:10397000FC0A0020FC020020054B036010B44FF449
:103980000063044C0C605DF8044B1360704700BF8B
:10399000CC2B0020CC0B002000F108034FF0FF31AE
:1039A0000022C0E90333816002604360704700BFBA
:1039B00000230361704700BF4368026810B49C682D
:1039C0008C609C684B600132616099605DF8044BCB
:1039D00008610260704700BF30B40D686B1C10D0E6
:1039E00000F108031C465B681A68AA42FAD902680B
:1039F0004B60013299608C606160086130BC02608C
:103A0000704704696368F2E7036910B4D0E90112F2
:103A10005C688A608442516008BF5A601A685DF829
:103A2000044B0021013A01611A601868704700BF19
:103A300070B50446006CA66B20B925685DB30136ED
:103A4000A66370BD1546024685B9606820F070FD1A
:103A50006368216CA2680B449342636006F101061F
:103A600024BF236863602846A66370BDE06820F029
:103A70005FFD226CE36821689B1A8B42E360C2F110
:103A8000000202D2A3681A44E260022D08D0013677
:103A90000020A66370BDA06801F0C8FAA560CEE75B
:103AA000012E38BF01260020CAE700BF026C72B1A8
:103AB00010B40B46D0E902411144A142C16024BFB9
:103AC0000168C1605DF8044B184620F031BD7047B5
:103AD00070B5044601F0AEFF94F845506DB2002D6C
:103AE00015DD04F1240604E06B1E13F0FF0F5DB238
:103AF0000DD0636A304653B101F09AF90028F3D033
:103B000001F032FA6B1E13F0FF0F5DB2F1D1FF230B
:103B100084F8453001F0B0FF01F08CFF94F8445078
:103B20006DB2002D15DD04F1100604E06B1E13F0DC
:103B3000FF0F5DB20DD02369304653B101F078F923
:103B40000028F3D001F010FA6B1E13F0FF0F5DB2E6
:103B5000F1D1FF2384F84430BDE8704001F08CBF00
:103B600038B5E0B104460D4601F064FFD4E90F0317
:103B70002268626000FB03F0C31A1344FF21024471
:103B80000020A063C4E9022384F8441084F845109F
:103B9000EDB9236963B901F06FFF012038BD4FF023
:103BA000400383F31188BFF36F8FBFF34F8FFEE79E
:103BB00004F1100001F03CF90028ECD00A4B4FF062
:103BC00080521A60BFF34F8FBFF36F8FE3E704F1AA
:103BD0001000FFF7E1FE04F12400FFF7DDFE01F025
:103BE0004BFF012038BD00BF04ED00E0F8B50646EC
:103BF00001FB00F050300D46174602F09BF80446DA
:103C000070B1002380F8463065B100F15003C4E97B
:103C10000F65236001212046FFF7A2FF84F84C7056
:103C20002046F8BD0346F2E730B583B09DF8185042
:103C300040B94FF0400383F31188BFF36F8FBFF398
:103C40004F8FFEE71C46DBB172B111B350230193D5
:103C5000019B502B26D04FF0400383F31188BFF314
:103C60006F8FBFF34F8FFEE761BB50230193019B22
:103C7000502BF0D10123019A84F84630224615E0FA
:103C80004FF0400383F31188BFF36F8FBFF34F8F63
:103C9000FEE74FF0400383F31188BFF36F8FBFF34C
:103CA0004F8FFEE7019B012384F84630C4E90F01E2
:103CB000226001212046FFF753FF204684F84C5034
:103CC00003B030BD4FF0400383F31188BFF36F8F13
:103CD000BFF34F8FFEE700BF40B94FF0400383F3BF
:103CE0001188BFF36F8FBFF34F8FFEE7FFF77EBFE3
:103CF00040B94FF0400383F31188BFF36F8FBFF3D8
:103D00004F8FFEE710B5884282B00C4608D24FF0C4
:103D1000400383F31188BFF36F8FBFF34F8FFEE72C
:103D200002211346002200911146FFF77DFF00B1EA
:103D3000846302B010BD00BF40B94FF0400383F36D
:103D40001188BFF36F8FBFF34F8FFEE7884210B526
:103D50000C4608D24FF0400383F31188BFF36F8FF6
:103D6000BFF34F8FFEE702220021FFF73FFF00B1B4
:103D7000846310BD2DE9F04784B00192002876D00D
:103D800088461F460446002965D0022F0BD1E36BFD
:103D9000012B08D04FF0400383F31188BFF36F8FDE
:103DA000BFF34F8FFEE701F0EBF80646002867D01F
:103DB0000026DFF83CA14FF0000907E001F05CFEAF
:103DC0002046FFF785FE00F0C7FE012601F032FE17
:103DD000A26BE36B9A4263D3022F61D0019D002D49
:103DE00000F08280002E57D001F046FE00F0ACFEBD
:103DF00001F020FE94F84430FF2B08BF84F8449073
:103E000094F84530FF2B08BF84F8459001F034FE4C
:103E100001A902A801F060F800285ED101F00AFEB5
:103E2000A26BE36B9A42C9D101F026FE019904F11D
:103E3000100000F0C3FF2046FFF74AFE00F08CFEA2
:103E40000028C2D14FF08053CAF80030BFF34F8F23
:103E5000BFF36F8FB9E7036C002B96D04FF0400390
:103E600083F31188BFF36F8FBFF34F8FFEE74FF0DF
:103E7000400383F31188BFF36F8FBFF34F8FFEE7CB
:103E8000019B002B95D04FF0400383F31188BFF3C3
:103E90006F8FBFF34F8FFEE702A801F011F8A3E781
:103EA0003A4641462046FFF7C3FD636A73B938B10D
:103EB0000F4B4FF080521A60BFF34F8FBFF36F8FDD
:103EC00001F0DAFD012004B0BDE8F08704F1240020
:103ED00000F0AEFF0028F3D0EAE72046FFF7F8FD38
:103EE00000F03AFE0020EEE701F0C6FD2846EAE7C2
:103EF00004ED00E051B370B582B050230193019BF3
:103F0000502B08D04FF0400383F31188BFF36F8F1D
:103F1000BFF34F8FFEE70C4600250121C4E90F15C2
:103F2000064684F8461024602046019BFFF718FEE1
:103F3000A5602560E56084F84C602B462A4629463A
:103F40002046FFF717FF204602B070BD4FF0400338
:103F500083F31188BFF36F8FBFF34F8FFEE700BF6E
:103F600038B538B18568044601F004F885420AD0B6
:103F7000002038BD4FF0400383F31188BFF36F8FEB
:103F8000BFF34F8FFEE7E368013BE3600BB1012015
:103F900038BD20461A461946FFF7ECFE012038BD11
:103FA00010B5024600210120FFF720FE044638B17B
:103FB000002383600360C3601A461946FFF7DAFEE8
:103FC000204610BD2DE9F843002835D0894690469B
:103FD0001F46044621B3022F0BD1E36B012B08D0FF
:103FE0004FF0400383F31188BFF36F8FBFF34F8F00
:103FF000FEE701F041FEEFF311864FF0400383F33B
:104000001188BFF36F8FBFF34F8FA26BE36B9A42A0
:104010001BD3022F19D0002086F31188BDE8F88346
:10402000036C002BD7D04FF0400383F31188BFF30C
:104030006F8FBFF34F8FFEE74FF0400383F311887C
:10404000BFF36F8FBFF34F8FFEE794F84550A36B1C
:104050003A4649466DB22046FFF7EAFC6B1C08D091
:104060006B1C5BB284F84530012086F31188BDE8F3
:10407000F883636A002BF7D004F1240000F0D8FE27
:104080000028F1D0B8F1000FEED00120C8F80000F0
:10409000C2E700BF70B3036C70B5044643B14FF084
:1040A000400383F31188BFF36F8FBFF34F8FFEE799
:1040B00003680D463BB301F0DFFDEFF311864FF0CF
:1040C000400383F31188BFF36F8FBFF34F8FA36B50
:1040D000E26B9A4223D994F845200133FF2AA36367
:1040E00053B220D001335BB284F84530012086F30F
:1040F000118870BD4FF0400383F31188BFF36F8FB9
:10410000BFF34F8FFEE78368002BD4D04FF04003FE
:1041100083F31188BFF36F8FBFF34F8FFEE700204B
:1041200086F3118870BD636A002BDFD004F1240090
:1041300000F07EFE0028D9D0002DD7D001202860C5
:10414000EEE700BF2DE9F04385B00192002871D061
:104150000E460446002954D000F012FF002844D037
:1041600001F068FCA56B002D40F08380019B002BC3
:1041700035D002A800F0A4FEDFF82C912F4604F100
:10418000240801F079FC00F0DFFC01F053FC94F806
:104190004430FF2B08BF84F8447094F84530FF2B5F
:1041A00008BF84F8457001F067FC01A902A800F07F
:1041B00093FE002831D101F03DFCA36B002B42D0CF
:1041C00001F05AFC2046FFF783FC00F0C5FC01F02B
:1041D00031FCA56B002D4CD1019B002BD1D101F0FE
:1041E0004BFC002005B0BDE8F083019B002BB7D04D
:1041F0004FF0400383F31188BFF36F8FBFF34F8FEE
:10420000FEE7036C002BA7D04FF0400383F3118827
:10421000BFF36F8FBFF34F8FFEE72046FFF758FCC9
:1042200000F09AFC01F006FCA36B002BD7D001F044
:1042300023FCCCE74FF0400383F31188BFF36F8F6B
:10424000BFF34F8FFEE701F017FC0199404600F0E5
:10425000B5FD2046FFF73CFC00F07EFC0028B6D1FF
:104260004FF08053C9F80030BFF34F8FBFF36F8F0B
:10427000ADE731462046013DFFF718FCA5632369F1
:104280001BB901F0F9FB0120ACE704F1100000F0CC
:10429000CFFD0028F5D0044B4FF080521A60BFF3D9
:1042A0004F8FBFF36F8FECE704ED00E02DE9F04195
:1042B00084B0019158B1056C04468DB14FF04003B4
:1042C00083F31188BFF36F8FBFF34F8FFEE74FF07B
:1042D000400383F31188BFF36F8FBFF34F8FFEE767
:1042E00000F04EFE064600285CD02E4601F0A2FBF0
:1042F000A36BDFF86C81002783BB019B002B00F0D0
:10430000A280002E42D001F0B7FB00F01DFC01F0AE
:1043100091FB94F84430FF2B08BF84F8447094F864
:104320004530FF2B08BF84F8457001F0A5FB01A9BB
:1043300002A800F0D1FDE8B901F07CFBA36B002BD3
:104340003DD001F099FB2046FFF7C2FB00F004FCD2
:1043500001F070FBA36B0126002BCED02268013B3D
:10436000A363002A5CD02369002B4AD101F084FBAF
:10437000012513E02046FFF7ABFB00F0EDFB01F059
:1043800059FBA36B33B101F077FBE1E702A800F022
:1043900097FDB8E701F070FB002D45D1284604B029
:1043A000BDE8F081019B43B14FF0400383F31188D6
:1043B000BFF36F8FBFF34F8FFEE7054696E701F01F
:1043C0005BFB2368A3B1019904F1240000F0F6FC23
:1043D0002046FFF77DFB00F0BFFB0028B8D14FF06F
:1043E0008053C8F80030BFF34F8FBFF36F8FAFE734
:1043F00001F020FBA06800F0D3FD054601F03CFB76
:10440000E1E704F1100000F013FD0028AED0144BDA
:104410004FF080521A60BFF34F8FBFF36F8FA5E745
:1044200000F09EFEA0609EE701F004FB616A19B1F6
:10443000236B1968C1F13801A06800F03DFE00252A
:1044400001F01AFBAAE745B14FF0400383F311884E
:10445000BFF36F8FBFF34F8FFEE701F00DFB9DE7BA
:1044600004ED00E0C0B130B583B085680191044629
:1044700000F080FD8542019908D02046FFF716FF25
:1044800040B1E3680133E36003B030BDE36801335A
:10449000E360012003B030BD4FF0400383F3118887
:1044A000BFF36F8FBFF34F8FFEE700BF00B310B4B1
:1044B0001449002351F83340A0424FEAC3020CD004
:1044C0000133082BF6D190F8463013B15DF8044B58
:1044D00070475DF8044B01F099BC0B49002441F88A
:1044E00033400A4490F846305460002BEED1F0E798
:1044F0004FF0400383F31188BFF36F8FBFF34F8FEB
:10450000FEE700BF4C4100204841002030B4084A7B
:10451000002352F8334002EBC30524B10133082BCA
:10452000F7D130BC7047686042F8331030BC704738
:104530004841002070B504460E46154601F07AFA4F
:1045400094F84430FF2B04BF002384F8443094F8DF
:104550004530FF2B04BF002384F8453001F08CFA6E
:10456000A36B23B12046BDE87040FFF7B1BA04F158
:1045700024002A46314600F03BFC2046BDE870404E
:10458000FFF7A6BA2DE9F843044601F053FA344A7E
:10459000344E1368013313603368002B32D0324D30
:1045A0002B683BB3E06A314F3149324AD1F800C041
:1045B0001368844503F1010338BF086000EB8000F5
:1045C000636507EB8000211D1360FFF7F5F901F02B
:1045D00053FA2B6863B13268E36AD26A9A4207D20F
:1045E000254B4FF080521A60BFF34F8FBFF36F8F90
:1045F000BDE8F8833368E06ADB6A1C4F834298BFEA
:104600003460D1E734601368012B03D0E06A174FA0
:10461000154DC9E7154F3D4607F58C6828461435FA
:10462000FFF7BAF9A845F9D1DFF86490DFF86480A4
:104630000D4D4846FFF7B0F94046FFF7ADF90F487A
:10464000FFF7AAF90E48FFF7A7F90E48FFF7A4F9FC
:104650000D4A0E4BC2F80090E06AC3F80080A3E751
:1046600004310020982C002060310020A42C002070
:10467000143100201031002004ED00E04C31002006
:1046800078310020643100209C2C0020A02C0020D8
:10469000183100202C310020034A044B1268D268E4
:1046A000D26852681A6070479C2C0020403100206C
:1046B0002DE9F84F0C9C4FEA820B5A4680460D4676
:1046C000206BA5219946DDE90A6A1FF03FFF236BA5
:1046D000ABF1040B9B442BF0070B002D41D06A1E5D
:1046E00005F11F0104F1330501E08A4206D012F8FA
:1046F000013F05F8013F1778002FF6D1002384F819
:104700005330372E28BF37260025C4E91765E662E7
:10471000201DFFF74DF9C6F1380604F11800FFF728
:1047200047F9C4F8C450294684F8C8506022A661ED
:104730002461646204F164001FF008FF0A4D0B4B12
:104740000B4AA266C4E91B534A464146584601F04B
:1047500047F92060BAF1000F01D0CAF80040BDE867
:10476000F88F84F83450CCE7840C0408440C040817
:10477000640C040810B5044664301FF0FDFE94F884
:10478000C93063B1012B13D0022B10D04FF040037E
:1047900083F31188BFF36F8FBFF34F8FFEE7206B5A
:1047A00001F034FB2046BDE8104001F02FBB10BDE6
:1047B0002046BDE8104001F029BB00BF80B5154C74
:1047C000154E164D164FDFF85C904FF0805813E0F1
:1047D00001F030F9F368D3F80CA00AF10400FFF7F8
:1047E00013F92B68013B2B602368013B236001F028
:1047F00043F95046FFF7BEFF2368002BE8D13B6822
:10480000012BF9D9C9F80080BFF34F8FBFF36F8F29
:10481000F2E700BF08310020783100200431002089
:10482000A42C002004ED00E0F8B5164B164E1D68D0
:1048300033680446181D0F46FFF7E6F8631C17D0CF
:1048400033682C195C6007D3104B18683168BDE8D9
:10485000F8400431FFF7C0B80D4B186831680431D7
:10486000FFF7BAF80B4B1A68A24288BF1C60F8BD6C
:10487000002FE5D031680848BDE8F8400431FFF763
:104880009BB800BF8C310020982C0020A02C002069
:104890009C2C002040310020643100202DE9F04F95
:1048A000444B1E68013683B01E60DEB9424B1A6865
:1048B000126842B14FF0400383F31188BFF36F8F4A
:1048C000BFF34F8FFEE73D4A18683D4914681C60EE
:1048D00010600A6801320A601B681B68002B5BD0FD
:1048E000FFF7DAFE374D2B689E423CD3DFF8C8A0B5
:1048F000DAF800301C68002C53D0DFF8D080DFF8E5
:10490000D090DFF8D0B0002422E00191FFF77CF8CE
:10491000BB6A019907F1180013B1FFF775F8019907
:10492000FB6ADBF8002003EB8300934208EB800076
:1049300088BFCBF80030FFF73FF8D9F80020DAF84D
:104940000030F96AD26A1B68914228BF012463B320
:10495000DAF80030DB68DF687B68391D9E42084664
:10496000D3D22B6004E0DFF86480DFF86490002489
:10497000D9F800301449DB6A03EB83039B0058F835
:1049800003200B68022A28BF0124002B0CBF2046FD
:10499000012003B0BDE8F08F0A4D4FF0FF332B60CC
:1049A000A1E7DFF82880DFF828904FF0FF332B6075
:1049B000DEE700BF8C3100209C2C0020A02C0020C2
:1049C000443100204031002090310020A42C0020F0
:1049D000982C002014310020F0B587B0DDE90C657B
:1049E0000E9CBDB16CB1CC270597059FCC2F1AD07A
:1049F0004FF0400383F31188BFF36F8FBFF34F8FE6
:104A0000FEE74FF0400383F31188BFF36F8FBFF3CE
:104A10004F8FFEE74FF0400383F31188BFF36F8F92
:104A2000BFF34F8FFEE72563022704AD0294009683
:104A300084F8C9700195059DFFF73AFE2046FFF7FF
:104A4000A1FD049807B0F0BD2DE9F043074685B0FD
:104A5000900015468846994601F06CF9E0B104468D
:104A6000CC2001F067F90646D8B104634FF0000C82
:104A70000D9C86F8C9C001940C9C02964B462A46B0
:104A8000414638460094FFF713FE3046FFF77AFDA3
:104A9000012005B0BDE8F0834FF0FF3005B0BDE860
:104AA000F083204601F0B2F94FF0FF30F1E700BF8C
:104AB000F0B589B0002407AA06A905A8CDE90544E8
:104AC000FEF74AFFDDE9051218480094CDE90121FF
:104AD0002346079A1649FFF77FFFD0B100F034FD57
:104AE000012818D14FF0400383F31188BFF36F8F73
:104AF000BFF34F8F0F4B104E1B681049104D114ADA
:104B000064334FF0FF3737602B600860146001F0AA
:104B10002DF809B0F0BD0130FBD14FF0400383F315
:104B20001188BFF36F8FBFF34F8FFEE7BD470008BB
:104B3000444A0208982C00204031002060310020B7
:104B4000780200208C310020024A13680133136080
:104B5000704700BF0C3100202DE9F04F404D2B680D
:104B600083B043B94FF0400383F31188BFF36F8FD5
:104B7000BFF34F8FFEE700F05DFF2B68013B2B601A
:104B80002B68002B3FD1374B1B68002B3BD0DFF845
:104B9000F0B0DBF80030002B3CD0334FDFF8E4A05E
:104BA000DFF8E490314E4FF00108DBF80C30DC68A0
:104BB000211D04F118000191FEF726FF0199084616
:104BC000FEF722FFE36A3A68019903EB8300934200
:104BD0000AEB800088BF3B60FEF7EEFED9F800309C
:104BE000E26ADB6A9A4228BFC6F80080DBF8003030
:104BF000002BDAD11E4B1B681B6803BB1D4B4FF00B
:104C0000FF321A6007E0002400F036FF204603B0B0
:104C1000BDE8F08F154E184F3C68A4B14FF0010865
:104C200006E0FFF73BFE08B1C6F80080013C09D062
:104C30002B68002BF5D03B6801333B60F6E7FFF7AC
:104C40002BFDE8E73C603368002BDCD00B4B4FF0CA
:104C500080521A60BFF34F8FBFF36F8F0124D3E7E9
:104C60000C3100200431002014310020903100204C
:104C70009C2C0020403100204831002004ED00E051
:104C80004C310020A42C0020982C002008B598B1AD
:104C90000E4B196841B14FF0400383F31188BFF305
:104CA0006F8FBFF34F8FFEE71A6801321A60FFF76C
:104CB000BBFDFFF751FF38B9054B4FF080521A602A
:104CC000BFF34F8FBFF36F8F08BD00BF0C310020C3
:104CD00004ED00E0014B1868704700BF8C310020E4
:104CE000054B1B680BB9FFF7D9BD044A13680133A4
:104CF00013600020704700BF0C31002048310020B5
:104D000038B5284B1B681BB1274B01221A6038BDF0
:104D1000254A264C136023681B6B1A68B2F1A53F25
:104D200003D15A68B2F1A53F33D0206821683431ED
:104D30001EF090FE1E4D1F4A2B6803EB830080007F
:104D40009900105840B9DBB1013B03EB8300990097
:104D500052F820000028F6D0194402EB81000246E8
:104D60004168496841600832914204BF4968416026
:104D7000CA6822602B6023680F4A6433136038BD11
:104D80004FF0400383F31188BFF36F8FBFF34F8F52
:104D9000FEE79A68B2F1A53FC7D1DB68B3F1A53F42
:104DA000C3D1C7E70C31002090310020982C00209F
:104DB00014310020A42C00207802002060B110B52E
:104DC0000A4B0C4619681831FEF706FE20460121F1
:104DD000BDE81040FFF728BD4FF0400383F3118872
:104DE000BFF36F8FBFF34F8FFEE700BF982C0020FB
:104DF00038B588B10D4B0D46196814461831FEF7C9
:104E0000DBFD002C08BF2846214618BF4FF0FF30BD
:104E1000BDE83840FFF708BD4FF0400383F3118829
:104E2000BFF36F8FBFF34F8FFEE700BF982C0020BA
:104E300010B5C368DC6882B0002C2CD004F11801D6
:104E400008460191FEF7E0FD174B01991B6873B10D
:104E50001648FEF7B1FD164BE26A1B68DB6A9A4200
:104E600085BF144B01200020186002B010BD211D29
:104E700008460191FEF7C8FD0F4AE36A10680199E0
:104E800083420E4888BF136003EB830300EB83006B
:104E9000FEF792FDDFE74FF0400383F31188BFF385
:104EA0006F8FBFF34F8FFEE70C3100204C31002095
:104EB000982C00209031002014310020A42C0020D8
:104EC000034A044B12681B68C0E90023704700BF07
:104ED000443100208C310020F8B508B30D46B1B143
:104EE000044600F0A7FD2B68DFF878C05A1CDCF8F8
:104EF00000102BD01A4ED4E900023768B84218D0FF
:104F00008A4216D8012500F0B7FD2846F8BD4FF0BB
:104F1000400383F31188BFF36F8FBFF34F8FFEE71A
:104F20004FF0400383F31188BFF36F8FBFF34F8FB0
:104F3000FEE78F1ABB420ED95B1A13443168DCF8C6
:104F400000202B60C4E900120025DCE7002500F0FA
:104F500093FD2846F8BD00232B600125D3E700BF51
:104F6000443100208C310020014B01221A6070472F
:104F700090310020014B1868704700BF982C00202A
:104F8000054B1B6833B1054B1B68002B0CBF02207F
:104F90000020704701207047603100200C31002054
:104FA00070B5044682B0C8B11D4DC36A2A68D26A82
:104FB000934215D28269002A04DB2A68D26AC2F1C0
:104FC00038028261174E626903EB830306EB8303A9
:104FD0009A420ED02B68DB6AE362012002B070BDFA
:104FE0002B68C06DDC6AA0422CBF0020012002B0FB
:104FF00070BD211D08460191FEF706FD2A680A4B87
:10500000D06A1A68E062904288BF186000EB8000A6
:1050100006EB80000199FEF7CFFC0120DEE700BF20
:10502000982C0020A42C002014310020D0B130B5E1
:105030001E4B1C68844283B008D04FF0400383F3BA
:105040001188BFF36F8FBFF34F8FFEE7236E5BB105
:10505000E16AE26D013B9142236600D06BB1002012
:1050600003B030BD002070474FF0400383F3118838
:10507000BFF36F8FBFF34F8FFEE7211D08460191ED
:10508000FEF7C2FC0A4AE36D1068E36283420948F6
:1050900088BF1360C3F1380503EB830300EB830083
:1050A0000199A561FEF788FC0120D9E7982C002022
:1050B00014310020A42C0020C0B130B50446006E8D
:1050C00083B050B1E36DE26A8B4238BF0B469A421F
:1050D00001D001280BD003B030BD4FF0400383F363
:1050E0001188BFF36F8FBFF34F8FFEE770471949E9
:1050F0000968A14224D0A169174DE3620029A8BF25
:10510000C3F138036169A8BFA36102EB820205EB1A
:1051100082039942DFD1211D08460191FEF774FCFC
:105120000E4BE06A1A680199904288BF186000EB44
:10513000800005EB800003B0BDE83040FEF73CBCCA
:105140004FF0400383F31188BFF36F8FBFF34F8F8E
:10515000FEE700BF982C0020A42C00201431002072
:10516000044B1A681AB119680A6E01320A66186887
:10517000704700BF982C00202DE9F041244C82B0EC
:105180000E4607461546984600F054FC216891F8F3
:10519000C81002290DD02368D3F8C41021EA0701F2
:1051A000C3F8C4102368012183F8C810B8F1000FB8
:1051B00019D100F061FC00F03DFC1DB12368D3F86B
:1051C000C4302B60236893F8C830022B17D000201E
:1051D00023680190002283F8C82000F04DFC01985C
:1051E00002B0BDE8F0814046FFF71EFB094B4FF0CF
:1051F00080521A60BFF34F8FBFF36F8FD9E72368D8
:10520000D3F8C41021EA0606C3F8C4600120DFE722
:10521000982C002004ED00E0C0B1F0B51F4683B02B
:105220000D461646044600F005FC17B1D4F8C4300C
:105230003B6094F8C8300222DBB284F8C820042E08
:1052400054D8DFE806F0110C373F3D004FF0400323
:1052500083F31188BFF36F8FBFF34F8FFEE7D4F84E
:10526000C4201543C4F8C450012B05D0012400F01C
:1052700003FC204603B0F0BD211D08460191FEF756
:10528000C3FB214AE36A1068019983421F4888BF23
:10529000136003EB830300EB8300FEF78DFBA36A2F
:1052A0009BB14FF0400383F31188BFF36F8FBFF3BF
:1052B0004F8FFEE7D4F8C4200132C4F8C420D3E7EE
:1052C000022B11D0C4F8C450CEE7114BE26A1B6820
:1052D000DB6A9A42CAD90F4B4FF080521A60BFF373
:1052E0004F8FBFF36F8FC1E70024C0E7D4F8C4200D
:1052F0000132B9D04FF0400383F31188BFF36F8FB1
:10530000BFF34F8FFEE700BF14310020A42C002014
:10531000982C002004ED00E02DE9F04383B00A9FB3
:1053200020B30D4690469946044600F0A5FCEFF3E5
:1053300011864FF0400383F31188BFF36F8FBFF3E3
:105340004F8FB9F1000F03D0D4F8C430C9F8003042
:1053500094F8C8300222DBB284F8C820B8F1040FF8
:105360005BD8DFE808F0110C242C2A004FF0400332
:1053700083F31188BFF36F8FBFF34F8FFEE7D4F82D
:10538000C4201543C4F8C450012B05D0012086F376
:10539000118803B0BDE8F083A36A9BB14FF04003CE
:1053A00083F31188BFF36F8FBFF34F8FFEE7D4F8FD
:1053B000C4200132C4F8C420E6E7022B2BD0C4F885
:1053C000C450E1E71B4B1B68FBB9211D0846019146
:1053D000FEF71AFB184AE36A1068019983421748DE
:1053E00088BF136003EB830300EB8300FEF7E4FA4E
:1053F000134BE26A1B68DB6A9A42C7D90FB10123DB
:105400003B60104B01201860C1E70F4804F1180100
:10541000FEF7D2FAECE70020B9E7D4F8C420013255
:10542000B2D04FF0400383F31188BFF36F8FBFF307
:105430004F8FFEE70C31002014310020A42C0020F7
:10544000982C0020903100204C310020F0B5124CF7
:1054500083B000F0EFFA256825B103B0BDE8F04055
:1054600000F00ABB0D4F0E4E3846FEF795FA304657
:10547000FEF792FA0B4A0C4900950C4B17600E6030
:105480000B4A10210A20FEF7CFFB20600028E4D051
:105490000849FFF73BF8E0E7B83200203C32002033
:1054A00050320020943100209831002068320020D2
:1054B0009C3100204C4A0208914208B500614160CD
:1054C00005D88169D21A8A420CD3012008BD9A42BC
:1054D00001D29942F9D2074B011D1868FEF77CFAF8
:1054E000002008BD044B011D1868FEF775FA002066
:1054F00008BD00BF94310020983100202DE9F04212
:10550000079C41B94FF0400383F31188BFF36F8FBD
:10551000BFF34F8FFEE7ACB181461F4616460D46DE
:10552000FFF794FF069BC4F80090C4E90657236276
:10553000201DFEF73DFA2EB194F8283043F0040305
:1055400084F82830BDE8F08210B588B0FFF77EFF00
:10555000124B1B68CBB1002407AA06A905A8CDE908
:105560000544FEF709FADDE905310222CDE9002103
:105570000293079A0A490B482346FFF72DFA0A4B74
:10558000186010B1012008B010BD4FF0400383F344
:105590001188BFF36F8FBFF34F8FFEE7B832002043
:1055A000544A020825570008BC3200202DE9F0417A
:1055B000054682B02C200E461746984600F0BAFBEE
:1055C000044660B14FF0000C2846089D84F828C0BE
:1055D00043463A46314601940095FFF78FFF204637
:1055E00002B0BDE8F08100BF70B584B02C240394F4
:1055F000039D2C2DDDE9086408D04FF0400383F3B0
:105600001188BFF36F8FBFF34F8FFEE7039D4CB13F
:105610000225CDE9006484F82850FFF76FFF20468B
:1056200004B070BD4FF0400383F31188BFF36F8F58
:10563000BFF34F8FFEE700BFB0B170B5164D044603
:10564000286884B070B10529CDE90012029414DCF9
:10565000FFF796FC022817D0002328681A466946EF
:10566000FEF788FB04B070BD4FF0400383F3118850
:10567000BFF36F8FBFF34F8FFEE71A4669460023D3
:10568000FEF7A0FC04B070BD2868089A00236946A4
:10569000FEF770FBE6E700BFB83200202DE9F041CD
:1056A0001E4E82B04FF000080DE0DB68DC681F681A
:1056B000251D2846FEF7A8F9236A2046984794F846
:1056C00028305B070AD433681A68002AEDD1144ADF
:1056D00011683160136002B0BDE8F081A26907EB88
:1056E000020C002367453A461946204607D2306827
:1056F000C4F804C024612946FEF76EF9E3E7CDF84B
:105700000080FFF799FF0028DDD14FF0400383F3BD
:105710001188BFF36F8FBFF34F8FFEE794310020E6
:10572000983100202DE9F04F7E4F7F4E7F4CDFF8FF
:1057300000B2DFF800A287B03B68D3F80080B8F170
:10574000000F00F09680DB68D3F80080FFF7FCF9CB
:10575000FFF7C0FA33688342054600F29A8080451D
:10576000306040F29F8000222068A8EB0501FEF720
:10577000E1FEFFF7F1F938B94FF08053CAF8003075
:10578000BFF34F8FBFF36F8F2068002202A9FEF78F
:10579000D9FC0028D0D0029B002B62DB049D6B69F2
:1057A00013B1281DFEF730F9FFF794FA31688842EB
:1057B000804674D3029BC6F80080092BE4D8DFE84A
:1057C00003F0050505402F470505402F95F82800F3
:1057D000039BA96940F0010085F82800424619445E
:1057E0002846FFF769FE0028CED02B6A2846984746
:1057F00095F828305907C7D50399AA6900230A44A8
:10580000009328461946FFF717FF0028BCD14FF038
:10581000400383F31188BFF36F8FBFF34F8FFEE711
:1058200095F828300399A96143F0010385F82830E1
:1058300000296ED04144284643464246FFF73CFECD
:10584000A2E795F8283023F0010385F828309BE77C
:1058500095F828309A073CD523F0010385F82830C5
:1058600092E7039BDDE904019847029B002B8BDB49
:1058700094E7FFF769F9FFF72DFA33689842054678
:1058800007D3DBF8003035601A68B2FA82F25209A9
:105890006AE7FFF703FF3560FFF75EF974E7FFF78C
:1058A000FDFE87E7FFF758F93B68DB68D3F80C90FB
:1058B00009F10400FEF7A8F899F8283058070CD42D
:1058C00023F0010389F82830D9F82030484698475A
:1058D0005AE7284600F09AFA56E7D9F818102A46EF
:1058E000414443464846FFF7E7FD0028ECD000233B
:1058F0000093424619464846FFF79EFE0028E3D132
:105900004FF0400383F31188BFF36F8FBFF34F8FC6
:10591000FEE74FF0400383F31188BFF36F8FBFF3AF
:105920004F8FFEE79431002064320020B83200200F
:105930009831002004ED00E058B110B5044682B063
:1059400000F078F8E069019000F096F8019802B054
:1059500010BD4FF0400383F31188BFF36F8FBFF387
:105960004F8FFEE708480068006880F308884FF012
:10597000000080F3148862B661B6BFF34F8FBFF3A7
:105980006F8F00DF00BF000008ED00E0DFF80C00C3
:10599000016841F4700101607047000088ED00E08B
:1059A0000E4B1B6882B000220133019208D04FF0E9
:1059B000400383F31188BFF36F8FBFF34F8FFEE770
:1059C0004FF0400383F31188BFF36F8FBFF34F8F06
:1059D000019B002BFCD002B0704700BF08000020E4
:1059E00030B421F00101094C40F80C4C4FF08075A7
:1059F0006FF0020340F8045C40F8081C40F8202CCB
:105A000040F8243C30BC4438704700BFA15900081E
:105A1000074B19680868B0E8F04F80F30988BFF3B6
:105A20006F8F4FF0000080F311887047AFF3008054
:105A3000982C00204FF0400383F31188BFF36F8F41
:105A4000BFF34F8F0A4A13680133012B136000D054
:105A50007047084B1B6813F0FF0FF9D04FF040035D
:105A600083F31188BFF36F8FBFF34F8FFEE700BF43
:105A70000800002004ED00E0084A136843B94FF025
:105A8000400383F31188BFF36F8FBFF34F8FFEE79F
:105A9000013B13600BB983F31188704708000020A5
:105AA000EFF30980BFF36F8F154B1A681EF0100FCC
:105AB00008BF20ED108A20E9F04F10602DE90900A1
:105AC0004FF0400080F31188BFF34F8FBFF36F8F0B
:105AD000FFF716F94FF0000080F3118809BC196830
