:020000040800F2
:10000000FFFF012059AF030809AB030815AB030834
:100010001BAB030821AB030827AB0308000000005B
:10002000000000000000000000000000418E0008F9
:100030002DAB0308000000009190000875510008E6
:10004000A9AF0308A9AF0308A9AF0308A9AF030824
:10005000A9AF0308A9AF0308A9AF0308A9AF030814
:10006000A9AF0308A9AF0308A9AF0308A9AF030804
:10007000A9AF0308A9AF0308A9AF0308A9AF0308F4
:10008000A9AF0308A9AF0308A9AF0308A9AF0308E4
:10009000A9AF0308A9AF0308A9AF03083BAB030846
:1000A000A9AF03084DAB0308A9AF0308A9AF030824
:1000B000A9AF030861AB030875AB0308A9AF030838
:1000C000A9AF0308A9AF0308A9AF0308A9AF0308A4
:1000D000A9AF030889AB0308A9AF0308A9AF0308B8
:1000E00097AB0308A9AF0308A9AF0308A9AF03089A
:1000F000A9AF0308A9AF0308A9AF0308A9AF030874
:10010000A9AF0308A9AF0308A9AF0308A9AF030863
:10011000A9AF0308A9AF0308A9AF0308A9AF030853
:10012000A9AB0308BDAB0308A9AF0308A9AF030837
:10013000A9AF0308A9AF0308A9AF0308A9AF030833
:10014000A9AF0308A9AF0308A9AF0308A9AF030823
:10015000A9AF0308A9AF0308A9AF0308A9AF030813
:10016000A9AF0308A9AF0308A9AF0308A9AF030803
:10017000A9AF0308A9AF0308A9AF03080000000056
:08018000A9AF0308A9AF0308B1
:1001900010B5054C237833B9044B13B10448AFF3C1
:1001A00000800123237010BD080300200000000020
:1001B0009CB4030808B5034B1BB103490348AFF3D4
:1001C000008008BD000000000C0300209CB4030860
:1001D00010F8012B11F8013B012A28BF9A42F7D0F1
:1001E000D01A7047034613F8012B002AFBD1181AC6
:1001F0000138704781F0004102E000BF83F0004306
:1002000030B54FEA41044FEA430594EA050F08BFB1
:1002100090EA020F1FBF54EA000C55EA020C7FEA75
:10022000645C7FEA655C00F0E2804FEA5454D4EBF2
:100230005555B8BF6D420CDD2C4480EA020281EABC
:10024000030382EA000083EA010180EA020281EAF4
:100250000303362D88BF30BD11F0004F4FEA013146
:100260004FF4801C4CEA113102D0404261EB410155
:1002700013F0004F4FEA03334CEA133302D05242DB
:1002800063EB430394EA050F00F0A780A4F1010497
:10029000D5F1200E0DDB02FA0EFC22FA05F28018D1
:1002A00041F1000103FA0EF2801843FA05F35941B7
:1002B0000EE0A5F120050EF1200E012A03FA0EFC36
:1002C00028BF4CF0020C43FA05F3C01851EBE37160
:1002D00001F0004507D54FF0000EDCF1000C7EEB7D
:1002E00000006EEB0101B1F5801F1BD3B1F5001FBB
:1002F0000CD349085FEA30004FEA3C0C04F10104DA
:100300004FEA445212F5800F80F09A80BCF1004F02
:1003100008BF5FEA500C50F1000041EB045141EA84
:10032000050130BD5FEA4C0C404141EB0101013C4D
:1003300028BFB1F5801FE9D291F0000F04BF01463C
:100340000020B1FA81F308BF2033A3F10B03B3F10E
:1003500020020CDA0C3208DD02F1140CC2F10C029E
:1003600001FA0CF021FA02F10CE002F11402D8BFFC
:10037000C2F1200C01FA02F120FA0CFCDCBF41EAC8
:100380000C019040E41AA2BF01EB0451294330BD97
:100390006FEA04041F3C1CDA0C340EDC04F1140474
:1003A000C4F1200220FA04F001FA02F340EA03004B
:1003B00021FA04F345EA030130BDC4F10C04C4F191
:1003C000200220FA02F001FA04F340EA0300294671
:1003D00030BD21FA04F0294630BD94F0000F83F4BB
:1003E000801306BF81F480110134013D4EE77FEA9E
:1003F000645C18BF7FEA655C29D094EA050F08BFEA
:1004000090EA020F05D054EA000C04BF19461046CA
:1004100030BD91EA030F1EBF0021002030BD5FEA0E
:10042000545C05D14000494128BF41F0004130BD36
:1004300014F580043CBF01F5801130BD01F000458A
:1004400045F0FE4141F470014FF0000030BD7FEAFD
:10045000645C1ABF194610467FEA655C1CBF0B46F8
:10046000024650EA013406BF52EA033591EA030F0F
:1004700041F4002130BD00BF90F0000F04BF002107
:10048000704730B54FF4806404F132044FF000053A
:100490004FF0000150E700BF90F0000F04BF0021B3
:1004A000704730B54FF4806404F1320410F0004519
:1004B00048BF40424FF000013EE700BF42004FEA14
:1004C000E2014FEA31014FEA02701FBF12F07F4391
:1004D00093F07F4F81F06051704732F07F4208BF48
:1004E000704793F07F4F04BF41F40021704730B54F
:1004F0004FF4607401F0004521F000411CE700BF9B
:1005000050EA010208BF704730B54FF000050AE01D
:1005100050EA010208BF704730B511F0004502D51E
:10052000404261EB41014FF4806404F132045FEA20
:10053000915C3FF4D8AE4FF003025FEADC0C18BFC9
:1005400003325FEADC0C18BF033202EBDC02C2F1BB
:10055000200300FA03FC20FA02F001FA03FE40EA4D
:100560000E0021FA02F11444BDE600BF70B54FF051
:10057000FF0C4CF4E06C1CEA11541DBF1CEA13552F
:1005800094EA0C0F95EA0C0F00F0DEF82C4481EA97
:10059000030621EA4C5123EA4C5350EA013518BFB7
:1005A00052EA033541F4801143F4801338D0A0FBA4
:1005B00002CE4FF00005E1FB02E506F00042E0FB51
:1005C00003E54FF00006E1FB03569CF0000F18BF57
:1005D0004EF0010EA4F1FF04B6F5007F64F54074FF
:1005E00004D25FEA4E0E6D4146EB060642EAC62192
:1005F00041EA55514FEAC52040EA5E504FEACE2EFF
:10060000B4F1FD0C88BFBCF5E06F1ED8BEF1004F01
:1006100008BF5FEA500E50F1000041EB045170BD7D
:1006200006F0004646EA010140EA020081EA0301C1
:10063000B4EB5C04C2BFD4EB0C0541EA045170BDBD
:1006400041F480114FF0000E013C00F3AB8014F137
:10065000360FDEBF002001F0004170BDC4F1000480
:10066000203C35DA0C341BDC04F11404C4F1200501
:1006700000FA05F320FA04F001FA05F240EA02005C
:1006800001F0004221F0004110EBD37021FA04F692
:1006900042EB06015EEA430E08BF20EAD37070BD4C
:1006A000C4F10C04C4F1200500FA04F320FA05F0AB
:1006B00001FA04F240EA020001F0004110EBD370AD
:1006C00041F100015EEA430E08BF20EAD37070BD1D
:1006D000C4F1200500FA05F24EEA020E20FA04F3F6
:1006E00001FA05F243EA020321FA04F001F00041A5
:1006F00021FA04F220EA020000EBD3705EEA430E16
:1007000008BF20EAD37070BD94F0000F0FD101F044
:100710000046400041EB010111F4801F08BF013C7D
:10072000F7D041EA060195F0000F18BF704703F0BB
:100730000046520043EB030313F4801F08BF013D42
:10074000F7D043EA0603704794EA0C0F0CEA1355FE
:1007500018BF95EA0C0F0CD050EA410618BF52EAB8
:100760004306D1D181EA030101F000414FF00000BE
:1007700070BD50EA410606BF1046194652EA4306CC
:1007800019D094EA0C0F02D150EA013613D195EA40
:100790000C0F05D152EA03361CBF104619460AD188
:1007A00081EA030101F0004141F0FE4141F4700192
:1007B0004FF0000070BD41F0FE4141F4780170BD82
:1007C00070B54FF0FF0C4CF4E06C1CEA11541DBFE7
:1007D0001CEA135594EA0C0F95EA0C0F00F0A7F8E9
:1007E000A4EB050481EA030E52EA03354FEA013116
:1007F00000F088804FEA03334FF0805545EA131329
:1008000043EA12634FEA022245EA111545EA1065F0
:100810004FEA00260EF000419D4208BF964244F187
:10082000FD0404F5407402D25B084FEA3202B61AA6
:1008300065EB03055B084FEA32024FF480104FF47A
:10084000002CB6EB020E75EB030E22BFB61A7546EE
:1008500040EA0C005B084FEA3202B6EB020E75EB81
:10086000030E22BFB61A754640EA5C005B084FEAE9
:100870003202B6EB020E75EB030E22BFB61A7546B6
:1008800040EA9C005B084FEA3202B6EB020E75EBC1
:10089000030E22BFB61A754640EADC0055EA060E82
:1008A00018D04FEA051545EA16754FEA06164FEAC5
:1008B000C30343EA52734FEAC2025FEA1C1CC0D171
:1008C00011F4801F0BD141EA00014FF000004FF0FE
:1008D000004CB6E711F4801F04BF01430020B4F1BF
:1008E000FD0C88BFBCF5E06F3FF6AFAEB5EB030C77
:1008F00004BFB6EB020C5FEA500C50F1000041EB74
:10090000045170BD0EF0004E4EEA113114EB5C0440
:10091000C2BFD4EB0C0541EA045170BD41F4801113
:100920004FF0000E013C90E645EA060E8DE60CEA1B
:10093000135594EA0C0F08BF95EA0C0F3FF43BAF38
:1009400094EA0C0F0AD150EA01347FF434AF95EAEF
:100950000C0F7FF425AF104619462CE795EA0C0FD3
:1009600006D152EA03353FF4FDAE1046194622E7A0
:1009700050EA410618BF52EA43067FF4C5AE50EA7A
:1009800041047FF40DAF52EA43057FF4EBAE12E76A
:100990004FEA410212F5001215D211D56FF47873A7
:1009A000B3EB625212D94FEAC12343F0004343EA4A
:1009B000505311F0004F23FA02F018BF4042704725
:1009C0004FF00000704750EA013005D111F00040AF
:1009D00008BF6FF0004070474FF00000704700BF45
:1009E0004FEA4102B2F1E04324BFB3F5001CDCF151
:1009F000FE5C0DD901F0004C4FEAC0024CEA507089
:100A0000B2F1004F40EB830008BF20F001007047B7
:100A100011F0804F21D113F13872BCBF01F00040BA
:100A2000704741F480114FEA5252C2F11802C2F1EC
:100A3000200C10FA0CF320FA02F018BF40F001006D
:100A40004FEAC1234FEAD32303FA0CFC40EA0C001F
:100A500023FA02F34FEA4303CCE77FEA625307D15C
:100A600050EA01331EBF4FF0FE4040F44000704793
:100A700001F0004040F0FE4040F40000704700BF2D
:100A80007BB972B90029BEBF00204FF0004106E0DB
:100A900008BF00281CBF6FF000414FF0FF3000F08E
:100AA000B9B9ADF1080C6DE904CE002909DB002BC2
:100AB0001ADB00F04DF8DDF804E0DDE9022304B0B4
:100AC0007047404261EB4101002B1BDB00F040F816
:100AD000DDF804E0DDE9022304B0404261EB4101AE
:100AE000524263EB43037047524263EB430300F00F
:100AF0002FF8DDF804E0DDE9022304B0404261EBA9
:100B000041017047524263EB430300F021F8DDF8E6
:100B100004E0DDE9022304B0524263EB4303704773
:100B200053B94AB9002908BF00281CBF4FF0FF3154
:100B30004FF0FF3000F06EB9ADF1080C6DE904CE56
:100B400000F006F8DDF804E0DDE9022304B07047A8
:100B50002DE9F047089D04468C46002B40F0838029
:100B60008A42174647D9B2FA82F242B1C2F1200056
:100B700024FA00F09140974040EA010C94404FEA7B
:100B80001748230CBCFBF8F61FFA87FE08FB16C1BA
:100B900043EA014306FB0EF1994209D9FB1806F11D
:100BA000FF3080F01981994240F21681023E3B44A9
:100BB0005B1AA4B2B3FBF8F008FB103344EA034419
:100BC00000FB0EFEA64509D93C1900F1FF3380F069
:100BD0000581A64540F2028102383C4440EA0640C5
:100BE000A4EB0E0400261DB1D4400023C5E9004348
:100BF0003146BDE8F08702B9FFDEB2FA82F2002A80
:100C000050D1CB1B4FEA174E1FFA87F80126B3FBD2
:100C1000FEFC210C0EFB1C3341EA034108FB0CF3E4
:100C20008B4207D979180CF1FF3002D28B4200F2C7
:100C3000E9808446C91AA3B2B1FBFEF00EFB101185
:100C400043EA014408FB00F8A04507D93C1900F12C
:100C5000FF3302D2A04500F2D9801846A4EB080465
:100C600040EA0C40BFE78B4209D9002D00F0B1806B
:100C70000026C5E9000130463146BDE8F087B3FAE9
:100C800083F6002E4AD18B4202D3824200F2B88012
:100C9000841A61EB030101208C46002DA8D0C5E920
:100CA000004CA5E7C2F1200320FA03F6974001FAB1
:100CB00002F04FEA174ED9403043030CB1FBFEF669
:100CC0001FFA87F80EFB161143EA014306FB08F1F1
:100CD000994204FA02F409D9FB1806F1FF3C80F0AE
:100CE0008D80994240F28A80023E3B445B1A81B279
:100CF000B3FBFEF00EFB103341EA034100FB08F3A7
:100D00008B4207D9791800F1FF3C73D28B4271D91D
:100D100002383944CB1A40EA064678E7C6F1200C7F
:100D200003FA06F422FA0CF31C4320FA0CF701FA3A
:100D300006F34FEA144E21FA0CF11F433B0CB1FBB2
:100D4000FEF91FFA84F80EFB191143EA014109FB71
:100D500008FA8A4502FA06F200FA06F308D9611881
:100D600009F1FF3048D28A4546D9A9F10209214448
:100D7000A1EB0A01BFB2B1FBFEF00EFB101147EA76
:100D8000014700FB08F8B84507D9E71900F1FF3122
:100D90002ED2B8452CD90238274440EA0940A7EBA7
:100DA0000807A0FB02894F45C64649461AD317D00B
:100DB0005DB1B3EB0E0267EB010707FA0CFCF240E2
:100DC0004CEA0202F740C5E9002700263146BDE89B
:100DD000F0872E4628460BE70646E9E61846FDE66C
:100DE0004345E5D2B8EB020E69EB04010138DFE7B9
:100DF0000846D2E760468DE78146B9E7664675E763
:100E000030464AE7ACF1020C394413E702383C445F
:100E100024E700BF704700BF80B500AF0E4B1B68D2
:100E20000D4A43F4007313600B4B1B680A4A43F4EA
:100E300080631360084B1B68074A43F48073136098
:100E4000032000F01AFE002039F004FE39F0C6FA43
:100E50000023184680BD00BF003C024080B400AFB4
:100E6000064B1B781A46064B1B681344044A136052
:100E700000BFBD465DF8047B704700BF0400002042
:100E80004841002080B400AF034B1B681846BD46A4
:100E90005DF8047B704700BF4841002080B584B0F6
:100EA00000AF7860FFF7EEFFB8607B68FB60FB681F
:100EB000B3F1FF3F05D00A4B1B781A46FB68134479
:100EC000FB6000BFFFF7DEFF0246BB68D31AFA687B
:100ED0009A42F7D800BF00BF1037BD4680BD00BFA3
:100EE0000400002080B584B000AF78600023FB735D
:100EF0007B68002B01D1012333E07B681B6C002B46
:100F000009D1786839F09CFA7B6800225A647B68C2
:100F1000002283F83C207B681B6C03F01003002B3D
:100F200018D17B681B6C23F4885323F0020343F031
:100F300002027B681A64786800F054FA7B68002229
:100F40005A647B681B6C23F0030343F001027B6847
:100F50001A6401E00123FB737B68002283F83C20C4
:100F6000FB7B18461037BD4680BD000080B586B0BB
:100F700000AFF860B9607A6000233B61FB6893F8CA
:100F80003C30012B01D10223E9E0FB68012283F808
:100F90003C20FB681B689B6803F00103012B18D001
:100FA000FB681B689A68FB681B6842F001029A6044
:100FB0006D4B1B686D4AA2FB03239A0C13465B0022
:100FC00013443B6102E03B69013B3B613B69002B01
:100FD000F9D1FB681B689B6803F48073B3F5807FCD
:100FE00007D1FB681B689A68FB681B6822F4807253
:100FF0009A60FB681B689B6803F00103012B40F0BB
:10100000A180FB681B6C23F4E06323F0010343F42D
:101010008072FB681A64FB681B685B6803F480637A
:10102000002B07D0FB681B6C23F4405343F4805221
:10103000FB681A64FB681B6C03F48053B3F5805F94
:1010400006D1FB685B6C23F00602FB685A6402E081
:10105000FB6800225A64FB68002283F83C20444B62
:101060007B61FB689B6B434ADA63FB689B6B424A7C
:101070001A64FB689B6B414ADA64FB681B686FF07B
:1010800022021A60FB681B685A68FB681B6842F002
:1010900080625A60FB681B689A68FB681B6842F4B0
:1010A00080729A60FB68986BFB681B684C3319462A
:1010B000BA687B6800F0EEFD7B695B6803F01F0394
:1010C000002B2AD1FB681B682D4A934215D0FB6880
:1010D0001B682C4A934205D1254B5B6803F01F0324
:1010E000002B0AD0FB681B68274A934236D1204B5D
:1010F0005B6803F01003002B30D1FB681B689B6812
:1011000003F04053002B29D1FB681B689A68FB68E9
:101110001B6842F080429A6020E0FB681B68184A16
:1011200093421BD1FB681B689B6803F04053002B64
:1011300014D1FB681B689A68FB681B6842F0804208
:101140009A600BE0FB681B6C43F01002FB681A64AA
:10115000FB685B6C43F00102FB685A64002318468D
:101160001837BD4680BD00BF9802002083DE1B43B8
:1011700000230140DD15000897160008B31600088B
:1011800000200140002101400022014080B483B0D2
:1011900000AF786000BF0C37BD465DF8047B704738
:1011A00080B485B000AF786039600023BB607B6895
:1011B00093F83C30012B01D1022305E17B68012229
:1011C00083F83C203B681B68092B25D97B681B688A
:1011D000D9683B681B689BB21A4613465B001344F0
:1011E0001E3B072202FA03F3DA437B681B680A40BE
:1011F000DA607B681B68D9683B689A683B681B6843
:101200009BB2184603465B0003441E3B9A407B6832
:101210001B680A43DA6022E07B681B6819693B6837
:101220001B689BB21A4613465B001344072202FA5E
:1012300003F3DA437B681B680A401A617B681B680A
:1012400019693B689A683B681B689BB2184603465D
:101250005B0003449A407B681B680A431A613B6841
:101260005B68062B24D87B681B68596B3B685A68FF
:1012700013469B001344053B1F2202FA03F3DA4393
:101280007B681B680A405A637B681B68596B3B6824
:101290001B689BB218463B685A6813469B00134470
:1012A000053B00FA03F27B681B680A435A634CE073
:1012B0003B685B680C2B24D87B681B68196B3B6808
:1012C0005A6813469B001344233B1F2202FA03F380
:1012D000DA437B681B680A401A637B681B68196BDA
:1012E0003B681B689BB218463B685A6813469B00D4
:1012F0001344233B00FA03F27B681B680A431A631A
:1013000023E07B681B68D96A3B685A6813469B00D8
:101310001344413B1F2202FA03F3DA437B681B6844
:101320000A40DA627B681B68D96A3B681B689BB21B
:1013300018463B685A6813469B001344413B00FA29
:1013400003F27B681B680A43DA62224BFB607B680E
:101350001B68214A934209D13B681B68122B05D1B7
:10136000FB685B6843F48002FB685A607B681B681B
:10137000194A934223D13B681B68102B03D03B686A
:101380001B68112B1BD1FB685B6843F40002FB68F0
:101390005A603B681B68102B11D1104B1B68104A18
:1013A000A2FB03239A0C13469B0013445B00BB6013
:1013B00002E0BB68013BBB60BB68002BF9D17B68D6
:1013C000002283F83C20002318461437BD465DF800
:1013D000047B704700230140002001409802002058
:1013E00083DE1B4380B485B000AF7860794BFB602F
:1013F000FB685B6823F44032FB685A60FB685A68FC
:101400007B685B681A43FB685A607B681B685A6894
:101410007B681B6822F480725A607B681B6859687D
:101420007B681B691A027B681B680A435A607B68E9
:101430001B685A687B681B6822F040725A607B68A0
:101440001B6859687B689A687B681B680A435A6006
:101450007B681B689A687B681B6822F400629A604C
:101460007B681B6899687B68DA687B681B680A433D
:101470009A607B689B6A584A934222D07B681B68BB
:101480009A687B681B6822F070629A607B681B68B0
:1014900099687B689A6A7B681B680A439A607B68D4
:1014A0001B689A687B681B6822F040529A607B68D0
:1014B0001B6899687B68DA6A7B681B680A439A60D4
:1014C0000FE07B681B689A687B681B6822F070627B
:1014D0009A607B681B689A687B681B6822F04052A0
:1014E0009A607B681B689A687B681B6822F002021E
:1014F0009A607B681B6899687B681B7E5A007B68D2
:101500001B680A439A607B6893F82030002B1BD03D
:101510007B681B685A687B681B6842F400625A60EB
:101520007B681B685A687B681B6822F460425A60BB
:101530007B681B6859687B685B6A013B5A037B6860
:101540001B680A435A6007E07B681B685A687B681F
:101550001B6822F400625A607B681B68DA6A7B6849
:101560001B6822F47002DA627B681B68D96A7B68A8
:10157000DB69013B1A057B681B680A43DA627B68FA
:101580001B689A687B681B6822F400729A607B680B
:101590001B6899687B6893F830305A027B681B6837
:1015A0000A439A607B681B689A687B681B6822F410
:1015B00080629A607B681B6899687B685B699A02A5
:1015C0007B681B680A439A6000BF1437BD465DF80C
:1015D000047B7047002301400100000F80B584B0F8
:1015E00000AF78607B689B6BFB60FB681B6C03F053
:1015F0005003002B3CD1FB681B6C43F40072FB686A
:101600001A64FB681B689B6803F04053002B2BD1C6
:10161000FB681B7E002B27D1FB681B68DB6A03F489
:101620007003002B06D0FB681B689B6803F4806383
:10163000002B19D1FB681B685A68FB681B6822F0F5
:1016400020025A60FB681B6C23F48072FB681A64EA
:10165000FB681B6C03F48053002B05D1FB681B6CEB
:1016600043F00102FB681A64F86835F0E7FE0EE00B
:10167000FB681B6C03F01003002B03D0F86835F0F7
:1016800051FF04E0FB689B6BDB6C7868984700BFF8
:101690001037BD4680BD80B584B000AF78607B68F0
:1016A0009B6BFB60F868FFF771FD00BF1037BD460C
:1016B00080BD80B584B000AF78607B689B6BFB60B9
:1016C000FB6840221A64FB685B6C43F00402FB6811
:1016D0005A64F86835F026FF00BF1037BD4680BD5C
:1016E00080B584B000AF78607B68002B01D1012306
:1016F000EDE07B6893F82030DBB2002B02D17868F4
:1017000038F0B6FF7B681B681A687B681B6842F07C
:1017100001021A60FFF7B6FBF86012E0FFF7B2FBB8
:101720000246FB68D31A0A2B0BD97B685B6A43F429
:1017300000327B685A627B68052283F820200123EF
:10174000C5E07B681B685B6803F00103002BE5D0F4
:101750007B681B681A687B681B6822F002021A60AB
:10176000FFF790FBF86012E0FFF78CFB0246FB6886
:10177000D31A0A2B0BD97B685B6A43F400327B686F
:101780005A627B68052283F8202001239FE07B6852
:101790001B685B6803F00203002BE5D17B681B7EAE
:1017A000012B08D17B681B681A687B681B6842F0B4
:1017B00080021A6007E07B681B681A687B681B68F8
:1017C00022F080021A607B685B7E012B08D17B6867
:1017D0001B681A687B681B6842F040021A6007E0C9
:1017E0007B681B681A687B681B6822F040021A60DD
:1017F0007B689B7E012B08D17B681B681A687B681D
:101800001B6842F020021A6007E07B681B681A68B8
:101810007B681B6822F020021A607B68DB7E012B4C
:1018200008D17B681B681A687B681B6822F010026D
:101830001A6007E07B681B681A687B681B6842F0C7
:1018400010021A607B681B7F012B08D17B681B6824
:101850001A687B681B6842F008021A6007E07B6820
:101860001B681A687B681B6822F008021A607B6894
:101870005B7F012B08D17B681B681A687B681B683B
:1018800042F004021A6007E07B681B681A687B68F4
:101890001B6822F004021A607B689A687B68DB6828
:1018A0001A437B681B691A437B685B6942EA030140
:1018B0007B685B685A1E7B681B680A43DA617B6839
:1018C00000225A627B68012283F8202000231846F8
:1018D0001037BD4680BD000080B485B000AF786091
:1018E0007B6803F00703FB600C4BDB68BB60BA68E6
:1018F0004FF6FF031340BB60FB681A02BB6813433B
:1019000043F0BF6343F40033BB60044ABB68D36059
:1019100000BF1437BD465DF8047B704700ED00E062
:1019200080B400AF044BDB681B0A03F007031846C2
:10193000BD465DF8047B704700ED00E080B483B0E5
:1019400000AF0346FB7197F90730002B0BDBFB79E7
:1019500003F01F02074997F907305B09012000FADD
:1019600002F241F8232000BF0C37BD465DF8047B2E
:10197000704700BF00E100E080B483B000AF0346D1
:10198000FB7197F90730002B12DBFB7903F01F0284
:101990000A4997F907305B09012000FA02F2203367
:1019A00041F82320BFF34F8F00BFBFF36F8F00BFFD
:1019B00000BF0C37BD465DF8047B704700E100E0D6
:1019C00080B483B000AF03463960FB7197F90730EC
:1019D000002B0ADB3B68DAB20C4997F90730120199
:1019E000D2B20B4483F800230AE03B68DAB208491C
:1019F000FB7903F00F03043B1201D2B20B441A76B9
:101A000000BF0C37BD465DF8047B704700E100E085
:101A100000ED00E080B489B000AFF860B9607A6092
:101A2000FB6803F00703FB61FB69C3F10703042BA9
:101A300028BF0423BB61FB690433062B02D9FB6971
:101A4000033B00E000237B614FF0FF32BB6902FAE9
:101A500003F3DA43BB681A407B699A404FF0FF31C9
:101A60007B6901FA03F3D9437B680B4013431846A3
:101A70002437BD465DF8047B704780B582B000AF67
:101A800078607868FFF728FF00BF0837BD4680BD43
:101A900080B586B000AF0346B9607A60FB7300235F
:101AA0007B61FFF73DFF78617A68B9687869FFF775
:101AB000B1FF024697F90F3011461846FFF780FF35
:101AC00000BF1837BD4680BD80B582B000AF034669
:101AD000FB7197F907301846FFF730FF00BF083752
:101AE000BD4680BD80B582B000AF0346FB7197F95B
:101AF00007301846FFF740FF00BF0837BD4680BDDE
:101B000080B582B000AF78607B68002B01D10123E3
:101B10000EE07B685B79DBB2002B05D17B6800228D
:101B20001A71786838F0FAFD7B6801225A71002337
:101B300018460837BD4680BD80B586B000AF7860D6
:101B400000237B61FFF79EF938617B68002B01D190
:101B5000012399E07B68022283F835207B6800220C
:101B600083F834207B681B681A687B681B6822F046
:101B700001021A600FE0FFF785F902463B69D31AAC
:101B8000052B08D97B6820225A657B68032283F8DD
:101B90003520032378E07B681B681B6803F0010392
:101BA000002BE8D17B681B681B687B617A69384B26
:101BB00013407B617B685A687B689B681A437B682B
:101BC000DB681A437B681B691A437B685B691A43AD
:101BD0007B689B691A437B68DB691A437B681B6AD5
:101BE00013437A6913437B617B685B6A042B07D1DB
:101BF0007B68DA6A7B681B6B13437A6913437B61EA
:101C00007B681B687A691A607B681B685B697B610B
:101C10007B6923F007037B617B685B6A7A69134306
:101C20007B617B685B6A042B17D17B689B6A7A694E
:101C300013437B617B68DB6A002B0ED0786800F071
:101C40006FFA0346002B08D07B6840225A657B68F8
:101C5000012283F83520012316E07B681B687A692E
:101C60005A61786800F026FA0346FB607B68DB6DFA
:101C70003F229A40FB689A607B6800225A657B6825
:101C8000012283F83520002318461837BD4680BD51
:101C90003F8010F080B586B000AFF860B9607A6020
:101CA0003B600023FB75FB689B6D3B61FB6893F811
:101CB0003430012B01D1022340E0FB68012283F87C
:101CC0003420FB6893F83530DBB2012B2FD1FB6851
:101CD000022283F83520FB6800225A653B687A6847
:101CE000B968F86800F0B8F9FB68DB6D3F229A40EC
:101CF0003B699A60FB681B681A68FB681B6842F0C6
:101D000016021A60FB681B6C002B07D0FB681B686F
:101D10001A68FB681B6842F008021A60FB681B68BF
:101D20001A68FB681B6842F001021A6005E0FB6854
:101D3000002283F834200223FB75FB7D18461837F8
:101D4000BD4680BD80B586B000AF78600023BB6023
:101D5000924B1B68924AA2FB03239B0A7B617B6820
:101D60009B6D3B613B691B68FB607B68DB6D0822F8
:101D70009A40FB681340002B1AD07B681B681B68D5
:101D800003F00403002B13D07B681B681A687B6880
:101D90001B6822F004021A607B68DB6D08229A40FF
:101DA0003B699A607B685B6D43F001027B685A6512
:101DB0007B68DB6D01229A40FB681340002B12D038
:101DC0007B681B685B6903F08003002B0BD07B688A
:101DD000DB6D01229A403B699A607B685B6D43F042
:101DE00002027B685A657B68DB6D04229A40FB68BF
:101DF0001340002B12D07B681B681B6803F00203A2
:101E0000002B0BD07B68DB6D04229A403B699A6003
:101E10007B685B6D43F004027B685A657B68DB6D11
:101E200010229A40FB681340002B43D07B681B684C
:101E30001B6803F00803002B3CD07B68DB6D10228D
:101E40009A403B699A607B681B681B6803F4802397
:101E5000002B18D07B681B681B6803F40023002B41
:101E600008D17B681B6C002B24D07B681B6C7868C6
:101E700098471FE07B689B6C002B1BD07B689B6C9A
:101E80007868984716E07B681B681B6803F48073CA
:101E9000002B07D17B681B681A687B681B6822F0DF
:101EA00008021A607B681B6C002B03D07B681B6CDC
:101EB000786898477B68DB6D20229A40FB68134066
:101EC000002B00F08E807B681B681B6803F01003FA
:101ED000002B00F086807B68DB6D20229A403B69F6
:101EE0009A607B6893F83530DBB2052B36D17B687E
:101EF0001B681A687B681B6822F016021A607B68F0
:101F00001B685A697B681B6822F080025A617B68F3
:101F10001B6C002B03D17B689B6C002B07D07B686C
:101F20001B681A687B681B6822F008021A607B68CD
:101F3000DB6D3F229A403B699A607B68012283F8FF
:101F400035207B68002283F834207B681B6D002BD2
:101F50007DD07B681B6D7868984778E07B681B684C
:101F60001B6803F48023002B1CD07B681B681B6854
:101F700003F40023002B08D17B685B6C002B30D06E
:101F80007B685B6C786898472BE07B68DB6B002B89
:101F900027D07B68DB6B7868984722E098020020A6
:101FA000B5814E1B7B681B681B6803F48073002B94
:101FB0000FD17B681B681A687B681B6822F01002CF
:101FC0001A607B68012283F835207B68002283F841
:101FD00034207B68DB6B002B03D07B68DB6B78687D
:101FE00098477B685B6D002B32D07B685B6D03F09C
:101FF0000103002B22D07B68052283F835207B6803
:102000001B681A687B681B6822F001021A60BB68B3
:102010000133BB607A699A4207D37B681B681B68EF
:1020200003F00103002BF2D100E000BF7B68012226
:1020300083F835207B68002283F834207B68DB6CD2
:10204000002B05D07B68DB6C7868984700E000BF08
:102050001837BD4680BD00BF80B485B000AFF860C2
:10206000B9607A603B60FB681B681A68FB681B6894
:1020700022F480221A60FB681B683A685A60FB6889
:102080009B68402B08D1FB681B687A689A60FB68E4
:102090001B68BA68DA6007E0FB681B68BA689A6078
:1020A000FB681B687A68DA6000BF1437BD465DF8CC
:1020B000047B704780B485B000AF78607B681B6894
:1020C000DBB2103B144AA2FB03231B09FB60134A3B
:1020D000FB6813441B781A467B68DA65FB68032BA0
:1020E00009D97B681B6823F47F7323F003031A1D4F
:1020F0007B689A6507E07B681B6823F47F7323F095
:1021000003037A6893657B689B6D18461437BD4658
:102110005DF8047B704700BFABAAAAAAB4BA030853
:1021200080B485B000AF78600023FB737B689B6A46
:10213000BB607B689B69002B1FD1BB68032B56D803
:1021400001A252F823F000BF592100086B210008BA
:1021500059210008EF2100087B68DB6A03F08073D7
:10216000002B46D00123FB7343E07B68DB6AB3F1AD
:10217000C07F40D10123FB733DE07B689B69B3F5D1
:10218000005F21D1BB68032B37D801A252F823F09E
:10219000A1210008A7210008A1210008B9210008F9
:1021A0000123FB7330E07B68DB6A03F08073002B54
:1021B00025D00123FB7322E07B68DB6AB3F1C07F8B
:1021C0001FD10123FB731CE0BB68022B03D9BB6842
:1021D000032B03D018E00123FB7315E07B68DB6A57
:1021E00003F08073002B0ED00123FB730BE000BFC4
:1021F0000AE000BF08E000BF06E000BF04E000BF47
:1022000002E000BF00E000BFFB7B18461437BD466C
:102210005DF8047B704700BF80B586B000AFF86002
:10222000B960C7E900230123FB75234B1B7E012BFB
:1022300001D102233BE0204B01221A764CF25030B0
:1022400000F070F80346FB75FB7D002B2BD1FB687B
:10225000002B05D13B781946B86800F01BF916E051
:10226000FB68012B05D13B881946B86800F0EEF8F1
:102270000DE0FB68022B05D13B681946B86800F0F9
:10228000C3F804E0D7E90023B86800F08BF84CF2FB
:10229000503000F047F80346FB75084B1B69074AAE
:1022A00023F001031361044B00221A76FB7D1846CC
:1022B0001837BD4680BD00BF4C410020003C0240A5
:1022C00080B483B000AF0023FB710B4B1B69002B64
:1022D0000BDA094B094A5A60074B094A5A60064B08
:1022E0001B69002B01DA0123FB71FB7918460C37BF
:1022F000BD465DF8047B7047003C02402301674502
:10230000AB89EFCD80B400AF054B1B69044A43F0A5
:102310000043136100231846BD465DF8047B7047F7
:10232000003C024080B584B000AF78600023FB60C1
:102330001A4B0022DA61FEF7A5FDF86010E07B6819
:10234000B3F1FF3F0CD07B68002B07D0FEF79AFD5E
:102350000246FB68D31A7A689A4201D2032319E035
:102360000F4BDB6803F48033002BE8D10C4BDB68A8
:1023700003F00103002B02D0094B0122DA60084B65
:10238000DB6803F0F203002B03D000F0A5F8012373
:1023900000E0002318461037BD4680BD4C410020A8
:1023A000003C024080B485B000AFF860C7E900236C
:1023B000144B1B69134A23F440731361114B1B69BF
:1023C000104A43F4407313610E4B1B690D4A43F0EE
:1023D00001031361FB683A681A60BFF36F8F00BF97
:1023E000D7E900014FF000024FF000030A0000237C
:1023F000F968043113460B6000BF1437BD465DF821
:10240000047B7047003C024080B483B000AF78602A
:1024100039600D4B1B690C4A23F4407313610A4B5E
:102420001B69094A43F400731361074B1B69064A91
:1024300043F0010313617B683A681A6000BF0C37F0
:10244000BD465DF8047B7047003C024080B483B019
:1024500000AF78600B467B800D4B1B690C4A23F460
:10246000407313610A4B1B69094A43F4807313617B
:10247000074B1B69064A43F0010313617B687A88A6
:102480001A8000BF0C37BD465DF8047B704700BF63
:10249000003C024080B483B000AF78600B46FB7014
:1024A0000C4B1B690B4A23F440731361094B094A17
:1024B0001B691361074B1B69064A43F00103136153
:1024C0007B68FA781A7000BF0C37BD465DF8047B54
:1024D000704700BF003C024080B400AF274BDB6870
:1024E00003F01003002B08D0254BDB6943F01003E9
:1024F000234AD361214B1022DA60204BDB6803F0C2
:102500002003002B08D01E4BDB6943F008031C4A54
:10251000D3611A4B2022DA60184BDB6803F04003CA
:10252000002B08D0164BDB6943F00403144AD36137
:10253000124B4022DA60114BDB6803F08003002B62
:1025400008D00F4BDB6943F002030D4AD3610B4BFC
:102550008022DA60094BDB6803F00203002B08D00D
:10256000074BDB6943F02003054AD361034B02228A
:10257000DA6000BFBD465DF8047B7047003C024056
:102580004C41002080B584B000AF786039600123F1
:10259000FB730023BB60314B1B7E012B01D1022357
:1025A00058E02E4B01221A764CF25030FFF7BAFE5B
:1025B0000346FB73FB7B002B48D13B684FF0FF3297
:1025C0001A607B681B68012B15D17B681B69DAB226
:1025D0007B685B681946104600F044F84CF25030B6
:1025E000FFF7A0FE0346FB731D4B1B691C4A23F03B
:1025F0000403136128E07B689B68BB601CE07B6878
:102600001B69DBB21946B86800F050F84CF2503044
:10261000FFF788FE0346FB73114B1B69104A23F03A
:10262000FA031361FB7B002B03D03B68BA681A6086
:102630000AE0BB680133BB607B68DA687B689B6833
:102640001344BA689A42DAD300F078F8034B0022B8
:102650001A76FB7B18461037BD4680BD4C410020E2
:10266000003C024080B483B000AF03463960FB7188
:102670000D4B1B690C4A23F4407313610A4B1B6911
:10268000094A43F004031361074B1A69FB791B02E3
:102690001343054A43F48033136100BF0C37BD4632
:1026A0005DF8047B704700BF003C024080B485B0F9
:1026B00000AF78600B46FB700023FB60FB78002BBB
:1026C00002D10023FB6010E0FB78012B03D14FF413
:1026D0008073FB6009E0FB78022B03D14FF4007399
:1026E000FB6002E04FF44073FB60134B1B69124A1E
:1026F00023F440731361104B1A690F49FB681343AD
:102700000B610D4B1B690C4A23F0F80313610A4B54
:102710001A697B68DB001343074A43F00203136125
:10272000054B1B69044A43F48033136100BF14371F
:10273000BD465DF8047B7047003C024080B400AFAA
:10274000204B1B6803F40073002B17D01D4B1B6834
:102750001C4A23F4007313601A4B1B68194A43F494
:1027600000631360174B1B68164A23F40063136061
:10277000144B1B68134A43F400731360114B1B681E
:1027800003F48063002B17D00E4B1B680D4A23F413
:10279000806313600B4B1B680A4A43F48053136039
:1027A000084B1B68074A23F480531360054B1B68D2
:1027B000044A43F48063136000BFBD465DF8047BA8
:1027C000704700BF003C024080B489B000AF786021
:1027D000396000237B6100233B610023BB61002340
:1027E000FB616BE10122FB6902FA03F37B613B6849
:1027F0001B687A6913403B613A697B699A4240F0F1
:102800005A813B685B6803F00303012B05D03B68EA
:102810005B6803F00303022B30D17B689B68BB61CC
:10282000FB695B00032202FA03F3DB43BA6913403E
:10283000BB613B68DA68FB695B0002FA03F3BA69C3
:102840001343BB617B68BA699A607B685B68BB6154
:102850000122FB6902FA03F3DB43BA691340BB614F
:102860003B685B681B0903F00102FB6902FA03F392
:10287000BA691343BB617B68BA695A603B685B689D
:1028800003F00303032B17D07B68DB68BB61FB6994
:102890005B00032202FA03F3DB43BA691340BB6116
:1028A0003B689A68FB695B0002FA03F3BA69134359
:1028B000BB617B68BA69DA603B685B6803F003035D
:1028C000022B23D1FB69DA087B68083253F82230E7
:1028D000BB61FB6903F007039B000F2202FA03F3BD
:1028E000DB43BA691340BB613B681A69FB6903F0BB
:1028F00007039B0002FA03F3BA691343BB61FB6948
:10290000DA087B680832B96943F822107B681B68D3
:10291000BB61FB695B00032202FA03F3DB43BA6984
:102920001340BB613B685B6803F00302FB695B001B
:1029300002FA03F3BA691343BB617B68BA691A6090
:102940003B685B6803F44033002B00F0B480002345
:10295000FB60604B5B6C5F4A43F4804353645D4BA8
:102960005B6C03F48043FB60FB685B4AFB699B087C
:10297000023352F82330BB61FB6903F003039B0071
:102980000F2202FA03F3DB43BA691340BB617B6891
:10299000524A93422BD07B68514A934225D07B68A0
:1029A000504A93421FD07B684F4A934219D07B68AC
:1029B0004E4A934213D07B684D4A93420DD07B68B8
:1029C0004C4A934207D07B684B4A934201D107237C
:1029D0000EE008230CE006230AE0052308E00423A8
:1029E00006E0032304E0022302E0012300E00023C9
:1029F000FA6902F0030292009340BA691343BB6183
:102A00003549FB699B080233BA6941F823203B4BE7
:102A10001B68BB613B69DB43BA691340BB613B6820
:102A20005B6803F48033002B03D0BA693B6913431E
:102A3000BB61324ABB691360304B5B68BB613B6969
:102A4000DB43BA691340BB613B685B6803F4003346
:102A5000002B03D0BA693B691343BB61274ABB69AA
:102A60005360264B9B68BB613B69DB43BA691340EB
:102A7000BB613B685B6803F48013002B03D0BA6929
:102A80003B691343BB611D4ABB6993601B4BDB6809
:102A9000BB613B69DB43BA691340BB613B685B6860
:102AA00003F40013002B03D0BA693B691343BB61E5
:102AB000124ABB69D360FB690133FB61FB690F2BD1
:102AC0007FF690AE00BF00BF2437BD465DF8047BA3
:102AD000704700BF0038024000380140000002404B
:102AE0000004024000080240000C024000100240B6
:102AF0000014024000180240001C0240003C01404B
:102B000080B487B000AF7860396000233B61002358
:102B1000FB600023BB6000237B61CDE001227B6969
:102B200002FA03F33B613A683B691340FB60FA68C1
:102B30003B699A4240F0BD80654A7B699B0802333D
:102B400052F82330BB607B6903F003039B000F2224
:102B500002FA03F3BA681340BB607B685D4A934294
:102B60002BD07B685C4A934225D07B685B4A9342BA
:102B70001FD07B685A4A934219D07B68594A9342C6
:102B800013D07B68584A93420DD07B68574A9342D2
:102B900007D07B68564A934201D107230EE00823F1
:102BA0000CE006230AE0052308E0042306E00323E3
:102BB00004E0022302E0012300E000237A6902F02E
:102BC000030292009340BA689A4232D1494B1A6884
:102BD000FB68DB43474913400B60464B5A68FB6870
:102BE000DB43444913404B60424B9A68FB68DB432C
:102BF000404913408B603F4BDA68FB68DB433D493B
:102C00001340CB607B6903F003039B000F2202FAA1
:102C100003F3BB602E4A7B699B08023352F82310F2
:102C2000BB68DA432A487B699B080A40023340F8B4
:102C300023207B681A687B695B00032101FA03F398
:102C4000DB431A407B681A607B69DA087B680832CC
:102C500053F822107B6903F007039B000F2202FA4E
:102C600003F3DB437A69D20819407B68083243F8E2
:102C700022107B68DA687B695B00032101FA03F3A9
:102C8000DB431A407B68DA607B685A6801217B6904
:102C900001FA03F3DB431A407B685A607B689A6849
:102CA0007B695B00032101FA03F3DB431A407B6875
:102CB0009A607B6901337B617B690F2B7FF62EAFB6
:102CC00000BF00BF1C37BD465DF8047B704700BFE6
:102CD00000380140000002400004024000080240A9
:102CE000000C024000100240001402400018024094
:102CF000001C0240003C014080B485B000AF786009
:102D00000B467B807B681A697B881340002B02D0BE
:102D10000123FB7301E00023FB73FB7B1846143790
:102D2000BD465DF8047B704780B483B000AF786027
:102D30000B467B8013467B707B78002B03D07A8810
:102D40007B689A6103E07B881A047B689A6100BF04
:102D50000C37BD465DF8047B7047000080B582B03B
:102D600000AF0346FB80084B5A69FB881340002BD9
:102D700006D0054AFB885361FB88184636F084FD6F
:102D800000BF0837BD4680BD003C014080B586B01D
:102D900000AF78607B68002B01D1012364E27B687F
:102DA0001B6803F00103002B75D0A34B9B6803F055
:102DB0000C03042B0CD0A04B9B6803F00C03082BD6
:102DC00012D19D4B5B6803F48003B3F5800F0BD1E8
:102DD000994B1B6803F40033002B5BD07B685B6866
:102DE000002B57D101233FE27B685B68B3F5803F3E
:102DF00006D1914B1B68904A43F4803313601DE069
:102E00007B685B68B3F5A02F0CD18B4B1B688A4A9B
:102E100043F480231360884B1B68874A43F4803354
:102E200013600BE0844B1B68834A23F480331360E8
:102E3000814B1B68804A23F4802313607B685B68A6
:102E4000002B13D0FEF71EF8386108E0FEF71AF8E1
:102E500002463B69D31A642B01D9032304E2764B63
:102E60001B6803F40033002BF0D014E0FEF70AF8DF
:102E7000386108E0FEF706F802463B69D31A642B76
:102E800001D90323F0E16C4B1B6803F40033002BE2
:102E9000F0D100E000BF7B681B6803F00203002B49
:102EA00063D0654B9B6803F00C03002B0BD0624B87
:102EB0009B6803F00C03082B1CD15F4B5B6803F489
:102EC0008003002B16D15C4B1B6803F00203002B20
:102ED00005D07B68DB68012B01D00123C4E1564B90
:102EE0001B6823F0F8027B681B69DB00524913431F
:102EF0000B603AE07B68DB68002B20D04F4B01224F
:102F00001A60FDF7BFFF386108E0FDF7BBFF02461E
:102F10003B69D31A022B01D90323A5E1464B1B6859
:102F200003F00203002BF0D0434B1B6823F0F802A0
:102F30007B681B69DB00404913430B6015E03F4B86
:102F400000221A60FDF79EFF386108E0FDF79AFF46
:102F500002463B69D31A022B01D9032384E1364B85
:102F60001B6803F00203002BF0D17B681B6803F0A1
:102F70000803002B30D07B685B69002B16D0304BE8
:102F800001221A60FDF77EFF386108E0FDF77AFF45
:102F900002463B69D31A022B01D9032364E1264B75
:102FA0005B6F03F00203002BF0D015E0244B0022EE
:102FB0001A60FDF767FF386108E0FDF763FF02461E
:102FC0003B69D31A022B01D903234DE11A4B5B6FE6
:102FD00003F00203002BF0D17B681B6803F00403AD
:102FE000002B00F0A0800023FB75134B1B6C03F03B
:102FF0008053002B0FD10023BB600F4B1B6C0E4A7C
:1030000043F0805313640C4B1B6C03F08053BB6084
:10301000BB680123FB750B4B1B6803F48073002B0B
:1030200021D1084B1B68074A43F480731360FDF7F6
:1030300029FF386111E000BF00380240000047421C
:10304000800E474200700040FDF71CFF02463B69BE
:10305000D31A022B01D9032306E1854B1B6803F425
:103060008073002BF0D07B689B68012B06D1814BCD
:103070001B6F804A43F0010313671CE07B689B6869
:10308000052B0CD17B4B1B6F7A4A43F0040313676B
:10309000784B1B6F774A43F0010313670BE0754BC6
:1030A0001B6F744A23F001031367724B1B6F714A45
:1030B00023F0040313677B689B68002B15D0FDF792
:1030C000E1FE38610AE0FDF7DDFE02463B69D31AF6
:1030D00041F28832934201D90323C5E0654B1B6F4F
:1030E00003F00203002BEED014E0FDF7CBFE3861B5
:1030F0000AE0FDF7C7FE02463B69D31A41F2883267
:10310000934201D90323AFE05A4B1B6F03F0020334
:10311000002BEED1FB7D012B05D1564B1B6C554A84
:1031200023F0805313647B689B69002B00F09B8025
:10313000504B9B6803F00C03082B5CD07B689B69A9
:10314000022B41D14C4B00221A60FDF79BFE3861E7
:1031500008E0FDF797FE02463B69D31A022B01D91E
:10316000032381E0434B1B6803F00073002BF0D175
:103170007B68DA697B681B6A1A437B685B6A9B0120
:103180001A437B689B6A5B08013B1B041A437B68FC
:10319000DB6A1B06374913434B60374B01221A6029
:1031A000FDF770FE386108E0FDF76CFE02463B69F2
:1031B000D31A022B01D9032356E02E4B1B6803F0D0
:1031C0000073002BF0D04EE02B4B00221A60FDF76D
:1031D00059FE386108E0FDF755FE02463B69D31AF7
:1031E000022B01D903233FE0224B1B6803F000733D
:1031F000002BF0D137E07B689B69012B01D10123C3
:1032000032E01C4B5B68FB607B689B69012B28D01C
:10321000FB6803F480027B68DB699A4221D1FB687A
:1032200003F03F027B681B6A9A421AD1FA6847F69C
:10323000C07313407A68526A9201934211D1FB68BD
:1032400003F440327B689B6A5B08013B1B049A4293
:1032500007D1FB6803F070627B68DB6A1B069A4249
:1032600001D0012300E0002318461837BD4680BD79
:1032700000700040003802406000474280B584B0D2
:1032800000AF786039607B68002B01D10123CCE06E
:10329000684B1B6803F007033A689A420CD9654BE8
:1032A0003A68D2B21A70634B1B6803F007033A689E
:1032B0009A4201D00123B8E07B681B6803F0020347
:1032C000002B20D07B681B6803F00403002B05D083
:1032D000594B9B68584A43F4E05393607B681B68E2
:1032E00003F00803002B05D0534B9B68524A43F46C
:1032F00060439360504B9B6823F0F0027B689B68AF
:103300004D4913438B607B681B6803F00103002B5E
:1033100044D07B685B68012B07D1474B1B6803F4E3
:103320000033002B19D101237FE07B685B68022BFF
:1033300003D07B685B68032B07D13F4B1B6803F00E
:103340000073002B09D101236FE03B4B1B6803F096
:103350000203002B01D1012367E0374B9B6823F068
:1033600003027B685B68344913438B60FDF78AFD79
:10337000F8600AE0FDF786FD0246FB68D31A41F2C9
:103380008832934201D903234FE02B4B9B6803F013
:103390000C027B685B689B009A42EBD1254B1B6853
:1033A00003F007033A689A420CD2224B3A68D2B231
:1033B0001A70204B1B6803F007033A689A4201D049
:1033C000012332E07B681B6803F00403002B08D064
:1033D000194B9B6823F4E0527B68DB681649134362
:1033E0008B607B681B6803F00803002B09D0124B2D
:1033F0009B6823F460427B681B69DB000E49134322
:103400008B6000F02DF802460B4B9B681B0903F004
:103410000F030A49CB5C22FA03F3094A1360094BF4
:103420001B68184637F016FB002318461037BD46B8
:1034300080BD00BF003C0240003802406C770508A8
:10344000980200200000002080B400AF034B01224E
:103450001A6000BFBD465DF8047B70474C004742D0
:10346000B0B584B000AF002179600021F96000217F
:1034700039600021B9605249896801F00C010829BE
:103480000DD0082900F29480002902D0042903D02D
:103490008EE04C4BBB608EE04B4BBB608BE04849F1
:1034A000496801F03F0179604549496801F48001AC
:1034B000002924D042494968890908464FF0000193
:1034C00040F2FF144FF0000500EA040201EA050390
:1034D0003D4901FB03F0002101FB02F144183A4988
:1034E000A2FB0101631819467B681A464FF00003DE
:1034F000FDF716FB02460B461346FB604AE0304BD5
:103500005B689B091A464FF0000340F2FF104FF032
:10351000000102EA000403EA0105204629464FF0B3
:1035200000024FF000034B0143EAD0634201104612
:103530001946001B61EB05014FF000024FF000033C
:103540008B0143EA90638201121A63EB01034FF08F
:1035500000004FF00001D90041EA5271D00002464C
:103560000B46121945EB03034FF000004FF000012A
:10357000990241EA9251900202460B4610461946C2
:103580007B681A464FF00003FDF7CAFA02460B4665
:103590001346FB600A4B5B681B0C03F0030301330B
:1035A0005B003B60FA683B68B2FBF3F3BB6002E090
:1035B000044BBB6000BFBB6818461037BD46B0BDAA
:1035C000003802400024F400001BB70080B400AFB4
:1035D000034B1B681846BD465DF8047B704700BF6F
:1035E0009802002080B500AFFFF7F0FF0246054BC0
:1035F0009B689B0A03F007030349CB5C22FA03F3A1
:10360000184680BD003802407C77050880B500AFC1
:10361000FFF7DCFF0246054B9B685B0B03F00703DB
:103620000349CB5C22FA03F3184680BD0038024000
:103630007C77050880B483B000AF786039607B6820
:103640000F221A60124B9B6803F003027B685A60DA
:103650000F4B9B6803F0F0027B689A600C4B9B68F1
:1036600003F4E0527B68DA60094B9B68DB0803F4E3
:10367000E0527B681A61074B1B6803F007023B6846
:103680001A6000BF0C37BD465DF8047B704700BF71
:1036900000380240003C024080B500AF064BDB68BA
:1036A00003F08003802B04D100F00AF8034B802242
:1036B0001A7000BF80BD00BF003802400E380240C3
:1036C00080B400AF00BFBD465DF8047B704780B595
:1036D00082B000AF78607B68002B01D101237BE0D2
:1036E0007B685B6A002B08D17B685B68B3F5827FDF
:1036F00009D07B680022DA6105E07B6800221A614C
:103700007B6800225A617B6800229A627B6893F88A
:103710005130DBB2002B06D17B68002283F85020A9
:10372000786837F01DF87B68022283F851207B68A7
:103730001B681A687B681B6822F040021A607B686D
:103740005B6803F482727B689B6803F404431A434A
:103750007B68DB6803F400631A437B681B6903F032
:1037600002031A437B685B6903F001031A437B6819
:103770009B6903F400731A437B68DB6903F0380329
:103780001A437B681B6A03F0800342EA03017B68EB
:103790009B6A03F400527B681B680A431A607B68CB
:1037A0009B691B0C03F004017B685B6A03F0100249
:1037B0007B681B680A435A607B681B68DA697B6810
:1037C0001B6822F40062DA617B6800225A657B681C
:1037D000012283F85120002318460837BD4680BDDA
:1037E00080B588B000AFF860B9603B601346FB80DD
:1037F0000023FB77FB6893F85030012B01D10223A3
:1038000026E1FB68012283F85020FDF73BFBB861FD
:10381000FB88FB82FB6893F85130DBB2012B02D0AE
:103820000223FB770BE1BB68002B02D0FB88002B47
:1038300002D10123FB7702E1FB68032283F85120C8
:10384000FB6800225A65FB68BA681A63FB68FA884D
:103850009A86FB68FA88DA86FB6800229A63FB681E
:1038600000229A87FB680022DA87FB6800225A64EC
:10387000FB6800221A64FB689B68B3F5004F0FD108
:10388000FB681B681A68FB681B6822F040021A601C
:10389000FB681B681A68FB681B6842F480421A6068
:1038A000FB681B681B6803F04003402B07D0FB68D4
:1038B0001B681A68FB681B6842F040021A60FB68CC
:1038C000DB68B3F5006F4BD1FB685B68002B02D05F
:1038D000FB8A012B3ED1FB681B6B1A88FB681B68B7
:1038E000DA60FB681B6B9A1CFB681A63FB68DB8E53
:1038F0009BB2013B9AB2FB68DA862BE0FB681B683F
:103900009B6803F00203022B12D1FB681B6B1A8821
:10391000FB681B68DA60FB681B6B9A1CFB681A6308
:10392000FB68DB8E9BB2013B9AB2FB68DA8611E042
:10393000FDF7A8FA0246BB69D31A3A689A4203D83F
:103940003B68B3F1FF3F02D13B68002B02D1032358
:10395000FB7774E0FB68DB8E9BB2002BCED14CE092
:10396000FB685B68002B02D0FB8A012B40D1FB680F
:103970001A6BFB681B680C3312781A70FB681B6BA0
:103980005A1CFB681A63FB68DB8E9BB2013B9AB240
:10399000FB68DA862CE0FB681B689B6803F0020377
:1039A000022B13D1FB681A6BFB681B680C3312786F
:1039B0001A70FB681B6B5A1CFB681A63FB68DB8E72
:1039C0009BB2013B9AB2FB68DA8611E0FDF75AFA26
:1039D0000246BB69D31A3A689A4203D83B68B3F1EE
:1039E000FF3F02D13B68002B02D10323FB7726E087
:1039F000FB68DB8E9BB2002BCDD1BA693968F868C1
:103A000000F054FA0346002B02D0FB6820225A65CE
:103A1000FB689B68002B0AD100233B61FB681B6895
:103A2000DB683B61FB681B689B683B613B69FB682B
:103A30005B6D002B02D00123FB7700E000BFFB6829
:103A4000012283F85120FB68002283F85020FB7F7D
:103A500018462037BD4680BD80B58CB000AFF860F9
:103A6000B9607A607B800123FB62002387F82B30EA
:103A7000FB6893F85030012B01D102238AE1FB68E7
:103A8000012283F85020FDF7FDF97862FB6893F876
:103A9000513087F82330FB685B68FB617B887B8350
:103AA00097F82330012B0FD0FB69B3F5827F07D144
:103AB000FB689B68002B03D197F82330042B03D0BD
:103AC000022387F82B305BE1BB68002B05D07B68B5
:103AD000002B02D07B88002B03D1012387F82B30E9
:103AE0004EE1FB6893F85130DBB2042B03D0FB6846
:103AF000052283F85120FB6800225A65FB687A682A
:103B00009A63FB687A88DA87FB687A889A87FB6809
:103B1000BA681A63FB687A88DA86FB687A889A86BC
:103B2000FB6800221A64FB6800225A64FB681B6869
:103B30001B6803F04003402B07D0FB681B681A6822
:103B4000FB681B6842F040021A60FB68DB68B3F553
:103B5000006F78D1FB685B68002B02D07B8B012B58
:103B600066D1FB681B6B1A88FB681B68DA60FB6810
:103B70001B6B9A1CFB681A63FB68DB8E9BB2013BD4
:103B80009AB2FB68DA8653E0FB681B689B6803F017
:103B90000203022B1BD1FB68DB8E9BB2002B16D0DD
:103BA000FB6A012B13D1FB681B6B1A88FB681B682F
:103BB000DA60FB681B6B9A1CFB681A63FB68DB8E80
:103BC0009BB2013B9AB2FB68DA860023FB62FB687A
:103BD0001B689B6803F00103012B19D1FB68DB8F85
:103BE0009BB2002B14D0FB681B68DA68FB689B6BE8
:103BF00092B21A80FB689B6B9A1CFB689A63FB6805
:103C0000DB8F9BB2013B9AB2FB68DA870123FB6230
:103C1000FDF738F902467B6AD31ABA6B9A4207D885
:103C2000BB6BB3F1FF3F03D0032387F82B30A7E032
:103C3000FB68DB8E9BB2002BA6D1FB68DB8F9BB2AF
:103C4000002BA1D17CE0FB685B68002B02D07B8B52
:103C5000012B6BD1FB681A6BFB681B680C33127865
:103C60001A70FB681B6B5A1CFB681A63FB68DB8EBF
:103C70009BB2013B9AB2FB68DA8657E0FB681B688F
:103C80009B6803F00203022B1CD1FB68DB8E9BB206
:103C9000002B17D0FB6A012B14D1FB681A6BFB6851
:103CA0001B680C3312781A70FB681B6B5A1CFB687C
:103CB0001A63FB68DB8E9BB2013B9AB2FB68DA8623
:103CC0000023FB62FB681B689B6803F00103012B68
:103CD00019D1FB68DB8F9BB2002B14D0FB681B68EB
:103CE000DA68FB689B6BD2B21A70FB689B6B5A1C3C
:103CF000FB689A63FB68DB8F9BB2013B9AB2FB685F
:103D0000DA870123FB62FDF7BDF802467B6AD31A0E
:103D1000BA6B9A4203D8BB6BB3F1FF3F02D1BB6BC6
:103D2000002B03D1032387F82B3029E0FB68DB8EBF
:103D30009BB2002BA2D1FB68DB8F9BB2002B9DD1E5
:103D40007A6AB96BF86800F0B1F80346002B06D028
:103D5000012387F82B30FB6820225A6510E0FB68AE
:103D60009B68002B0BD100237B61FB681B68DB6821
:103D70007B61FB681B689B687B617B6900E000BF1F
:103D8000FB68012283F85120FB68002283F8502051
:103D900097F82B3018463037BD4680BD80B588B0C7
:103DA00000AFF860B9603B601346FB71FDF76AF83D
:103DB0000246BB6A9B1A3A681344FB61FDF762F83E
:103DC000B861394B1B685B011B0DFA6902FB03F3F9
:103DD0007B6154E03B68B3F1FF3F50D0FDF752F8F0
:103DE0000246BB69D31AFA699A4202D9FB69002BD1
:103DF0003DD1FB681B685A68FB681B6822F0E00233
:103E00005A60FB685B68B3F5827F11D1FB689B68E1
:103E1000B3F5004F04D0FB689B68B3F5806F07D102
:103E2000FB681B681A68FB681B6822F040021A6076
:103E3000FB689B6AB3F5005F0FD1FB681B681A68CB
:103E4000FB681B6822F400521A60FB681B681A6842
:103E5000FB681B6842F400521A60FB68012283F879
:103E60005120FB68002283F85020032317E07B6970
:103E7000002B01D10023FB617B69013B7B61FB6867
:103E80001B689A68BB681340BA689A420CBF01234A
:103E90000023DBB21A46FB799A429BD100231846D5
:103EA0002037BD4680BD00BF9802002080B588B095
:103EB00002AFF860B9607A601B4B1B681B4AA2FB1B
:103EC00003235B0D4FF47A7202FB03F37B61FB6803
:103ED0005B68B3F5827F12D17B680093BB680022D8
:103EE0008021F868FFF75AFF0346002B16D0FB68C5
:103EF0005B6D43F02002FB685A6503230FE07B698A
:103F0000002B0AD07B69013B7B61FB681B689B68C7
:103F100003F08003802BF2D000E000BF002318469E
:103F20001837BD4680BD00BF98020020819F5E16F5
:103F300080B584B000AFF860B9607A60FB68002B90
:103F400001D1012334E0FB6893F84930DBB2002B48
:103F500006D1FB68002283F84820F86836F070FD2F
:103F6000FB681A68FB6808331946104601F008F828
:103F7000FB681868FB689B681A46B96801F052F83C
:103F8000FB685868FB689A68FB681B6B796801F0EE
:103F900087F8FB681B68FA68926853F82210FB6880
:103FA0001B68FA68926841F0010143F8221000236F
:103FB00018461037BD4680BD80B582B000AF78602E
:103FC0007B68002B01D1012341E07B6893F83D30F1
:103FD000DBB2002B06D17B68002283F83C20786896
:103FE00036F006FC7B68022283F83D207B681A6865
:103FF0007B6804331946104600F08EFB7B68012273
:1040000083F846207B68012283F83E207B680122EA
:1040100083F83F207B68012283F840207B680122DF
:1040200083F841207B68012283F842207B680122CB
:1040300083F843207B68012283F844207B680122B7
:1040400083F845207B68012283F83D200023184631
:104050000837BD4680BD000080B485B000AF7860F1
:104060007B6893F83D30DBB2012B01D001234EE099
:104070007B68022283F83D207B681B68DA687B68D6
:104080001B6842F00102DA607B681B68234A934296
:1040900022D07B681B68B3F1804F1DD07B681B6802
:1040A0001F4A934218D07B681B681E4A934213D064
:1040B0007B681B681C4A93420ED07B681B681B4AB6
:1040C000934209D07B681B68194A934204D07B68ED
:1040D0001B68184A934211D17B681B689B6803F0E8
:1040E0000703FB60FB68062B10D07B681B681A680F
:1040F0007B681B6842F001021A6007E07B681B685E
:104100001A687B681B6842F001021A600023184697
:104110001437BD465DF8047B704700BF00000140C6
:104120000004004000080040000C00400004014072
:10413000004001400018004080B483B000AF7860B8
:104140007B681B68DA687B681B6822F00102DA6012
:104150007B681B681A6A41F211131340002B0FD1C0
:104160007B681B681A6A40F244431340002B07D156
:104170007B681B681A687B681B6822F001021A6062
:104180007B68012283F83D20002318460C37BD468A
:104190005DF8047B7047000080B584B000AF7860A4
:1041A00039603B68002B09D17B6893F83E30DBB265
:1041B000012B14BF01230023DBB222E03B68042B58
:1041C00009D17B6893F83F30DBB2012B14BF012388
:1041D0000023DBB215E03B68082B09D17B6893F81C
:1041E0004030DBB2012B14BF01230023DBB208E017
:1041F0007B6893F84130DBB2012B14BF012300230D
:10420000DBB2002B01D001237CE03B68002B04D102
:104210007B68022283F83E2013E03B68042B04D124
:104220007B68022283F83F200BE03B68082B04D117
:104230007B68022283F8402003E07B68022283F837
:1042400041207B681B6801223968184600F09EFBFC
:104250007B681B682D4A934204D07B681B682C4AFC
:10426000934201D1012300E00023002B07D07B689B
:104270001B685A6C7B681B6842F400425A647B6876
:104280001B68224A934222D07B681B68B3F1804F9F
:104290001DD07B681B681F4A934218D07B681B683F
:1042A0001D4A934213D07B681B681C4A93420ED070
:1042B0007B681B68164A934209D07B681B68184AC2
:1042C000934204D07B681B68164A934211D17B68E5
:1042D0001B689B6803F00703FB60FB68062B10D08C
:1042E0007B681B681A687B681B6842F001021A60D1
:1042F00007E07B681B681A687B681B6842F0010254
:104300001A60002318461037BD4680BD00000140EA
:10431000000401400004004000080040000C004080
:10432000004001400018004080B582B000AF7860C6
:104330007B681B681B6903F00203022B22D17B6898
:104340001B68DB6803F00203022B1BD17B681B6830
:104350006FF002021A617B6801221A777B681B6882
:104360009B6903F00303002B03D0786800F0B5F9D4
:1043700005E0786800F0A7F9786800F0B8F97B6884
:1043800000221A777B681B681B6903F00403042B67
:1043900022D17B681B68DB6803F00403042B1BD16C
:1043A0007B681B686FF004021A617B6802221A772F
:1043B0007B681B689B6903F44073002B03D078680B
:1043C00000F08BF905E0786800F07DF9786800F07E
:1043D0008EF97B6800221A777B681B681B6903F0E3
:1043E0000803082B22D17B681B68DB6803F00803F5
:1043F000082B1BD17B681B686FF008021A617B6871
:1044000004221A777B681B68DB6903F00303002B27
:1044100003D0786800F061F905E0786800F053F99E
:10442000786800F064F97B6800221A777B681B6863
:104430001B6903F01003102B22D17B681B68DB681B
:1044400003F01003102B1BD17B681B686FF0100268
:104450001A617B6808221A777B681B68DB6903F4A2
:104460004073002B03D0786800F037F905E07868D6
:1044700000F029F9786800F03AF97B6800221A7791
:104480007B681B681B6903F00103012B0ED17B685D
:104490001B68DB6803F00103012B07D17B681B68F5
:1044A0006FF001021A61786835F0AEFD7B681B6819
:1044B0001B6903F08003802B0ED17B681B68DB68CF
:1044C00003F08003802B07D17B681B686FF08002AC
:1044D0001A61786800F006FB7B681B681B6903F0B3
:1044E0004003402B0ED17B681B68DB6803F0400360
:1044F000402B07D17B681B686FF040021A61786817
:1045000000F0FFF87B681B681B6903F02003202B79
:104510000ED17B681B68DB6803F02003202B07D1DA
:104520007B681B686FF020021A61786800F0D0FA8F
:1045300000BF0837BD4680BD80B584B000AF78604D
:1045400039600023FB737B6893F83C30012B01D169
:104550000223B4E07B68012283F83C207B680222BE
:1045600083F83D207B681B689B68BB60BB6823F0B9
:104570007703BB60BB6823F47F43BB607B681B6829
:10458000BA689A603B681B68B3F5005F3ED0B3F52C
:10459000005F00F28780B3F5805F00F08680B3F59E
:1045A000805F7FD8702B1AD0702B7BD8602B50D0B7
:1045B000602B77D8502B3CD0502B73D8402B58D041
:1045C000402B6FD8302B64D0302B6BD8202B60D091
:1045D000202B67D8002B5CD0102B5AD062E07B6870
:1045E00018683B6899683B685A683B68DB6800F06C
:1045F000ADF97B681B689B68BB60BB6843F07703C1
:10460000BB607B681B68BA689A604FE07B6818687B
:104610003B6899683B685A683B68DB6800F096F92C
:104620007B681B689A687B681B6842F480429A60CA
:104630003CE07B6818683B6859683B68DB681A4651
:1046400000F00AF97B681B685021184600F063F9F6
:104650002CE07B6818683B6859683B68DB681A4641
:1046600000F029F97B681B686021184600F053F9B7
:104670001CE07B6818683B6859683B68DB681A4631
:1046800000F0EAF87B681B684021184600F043F907
:104690000CE07B681A683B681B681946104600F0FE
:1046A0003AF903E00123FB7300E000BF7B680122BD
:1046B00083F83D207B68002283F83C20FB7B184672
:1046C0001037BD4680BD80B483B000AF786000BFB6
:1046D0000C37BD465DF8047B704780B483B000AFF3
:1046E000786000BF0C37BD465DF8047B704780B42E
:1046F00083B000AF786000BF0C37BD465DF8047B27
:10470000704780B483B000AF786000BF0C37BD46FF
:104710005DF8047B7047000080B485B000AF78601E
:1047200039607B681B68FB607B68404A934213D00A
:104730007B68B3F1804F0FD07B683D4A93420BD02A
:104740007B683C4A934207D07B683B4A934203D044
:104750007B683A4A934208D1FB6823F07003FB6000
:104760003B685B68FA681343FB607B682F4A93429F
:104770002BD07B68B3F1804F27D07B682C4A9342C3
:1047800023D07B682B4A93421FD07B682A4A9342EE
:104790001BD07B68294A934217D07B68284A9342F2
:1047A00013D07B68274A93420FD07B68264A9342F6
:1047B0000BD07B68254A934207D07B68244A9342FA
:1047C00003D07B68234A934208D1FB6823F44073EB
:1047D000FB603B68DB68FA681343FB60FB6823F00F
:1047E00080023B685B691343FB607B68FA681A6070
:1047F0003B689A687B68DA623B681A687B689A62F1
:104800007B680A4A934203D07B680C4A934203D1E7
:104810003B681A697B681A637B6801225A6100BF92
:104820001437BD465DF8047B704700BF00000140AF
:104830000004004000080040000C0040000401405B
:104840000040014000440140004801400018004081
:10485000001C00400020004080B487B000AFF8602A
:10486000B9607A60FB681B6A7B61FB681B6A23F096
:104870000102FB681A62FB689B693B613B6923F09C
:10488000F0033B617B681B013A6913433B617B6921
:1048900023F00A037B617A69BB6813437B61FB6881
:1048A0003A699A61FB687A691A6200BF1C37BD4693
:1048B0005DF8047B704780B487B000AFF860B960E2
:1048C0007A60FB681B6A23F01002FB681A62FB68BF
:1048D0009B697B61FB681B6A3B617B6923F47043C6
:1048E0007B617B681B037A6913437B613B6923F01F
:1048F000A0033B61BB681B013A6913433B61FB6842
:104900007A699A61FB683A691A6200BF1C37BD4632
:104910005DF8047B704780B485B000AF7860396083
:104920007B689B68FB60FB6823F07003FB603A6860
:10493000FB68134343F00703FB607B68FA689A60E7
:1049400000BF1437BD465DF8047B704780B487B064
:1049500000AFF860B9607A603B60FB689B687B6180
:104960007B6923F47F437B613B681A027B681A43AF
:10497000BB6813437A6913437B61FB687A699A6069
:1049800000BF1C37BD465DF8047B704780B487B01C
:1049900000AFF860B9607A60BB6803F01F030122C2
:1049A00002FA03F37B61FB681A6A7B69DB431A40F6
:1049B000FB681A62FB681A6ABB6803F01F03796818
:1049C00001FA03F31A43FB681A6200BF1C37BD46A5
:1049D0005DF8047B7047000080B485B000AF78605C
:1049E00039607B6893F83C30012B01D102235AE0F7
:1049F0007B68012283F83C207B68022283F83D20FB
:104A00007B681B685B68FB607B681B689B68BB609E
:104A1000FB6823F07003FB603B681B68FA68134374
:104A2000FB607B681B68FA685A607B681B68214AD8
:104A3000934222D07B681B68B3F1804F1DD07B6806
:104A40001B681D4A934218D07B681B681B4A93421F
:104A500013D07B681B681A4A93420ED07B681B6890
:104A6000184A934209D07B681B68174A934204D0C6
:104A70007B681B68154A93420CD1BB6823F0800306
:104A8000BB603B685B68BA681343BB607B681B68AC
:104A9000BA689A607B68012283F83D207B68002217
:104AA00083F83C20002318461437BD465DF8047B8C
:104AB000704700BF000001400004004000080040B3
:104AC000000C00400004014000400140001800407C
:104AD00080B483B000AF786000BF0C37BD465DF88E
:104AE000047B704780B483B000AF786000BF0C37A0
:104AF000BD465DF8047B704780B582B000AF78603A
:104B00007B68002B01D101233FE07B6893F83D30A7
:104B1000DBB2002B06D17B68002283F83C2078684A
:104B200035F0C0FE7B68242283F83D207B681B683B
:104B3000DA687B681B6822F40052DA60786800F05B
:104B400057F87B681B681A697B681B6822F49042DF
:104B50001A617B681B685A697B681B6822F02A020D
:104B60005A617B681B68DA687B681B6842F40052F4
:104B7000DA607B6800221A647B68202283F83D207B
:104B80007B68202283F83E20002318460837BD4664
:104B900080BD80B582B000AF78607B68002B01D10A
:104BA000012321E07B68242283F83D207B681B6879
:104BB000DA687B681B6822F40052DA60786835F0A6
:104BC000C1FE7B6800221A647B68002283F83D20C6
:104BD0007B68002283F83E207B6800221A637B6892
:104BE000002283F83C20002318460837BD4680BDCC
:104BF0002DE9F04F9FB000AFF866FB6E1B681B6994
:104C000023F44050FB6ED968FB6E1A6840EA01033A
:104C10001361FB6E9A68FB6E1B691A43FB6E5B693E
:104C20001A43FB6EDB6913433B67FB6E1B68DB6853
:104C300023F4164121F00C01FB6E1A683B6F0B4305
:104C4000D360FB6E1B685B6923F44070FB6E99694F
:104C5000FB6E1A6840EA01035361FB6E1A68C54B8C
:104C60009A4204D0FB6E1A68C34B9A4203D1FEF7F6
:104C7000CDFC786702E0FEF7B5FC7867FB6EDB6978
:104C8000B3F5004F40F0B6807B6F1C464FF0000537
:104C900022462B46911839645B417B64D7E9102387
:104CA000121945EB03034FF000004FF00001D9004B
:104CB00041EA5271D00002460B46111939666B4128
:104CC0007B66FB6E5B681A464FF000039118B96370
:104CD0005B41FB63D7E90E23D7E91801FBF720FFFF
:104CE00002460B46A54BA3FB02235B091E017B6F0B
:104CF0001C464FF0000522462B46911839635B4154
:104D00007B63D7E90C23121945EB03034FF0000036
:104D10004FF00001D90041EA5271D00002460B4623
:104D20001119B9656B41FB65FB6E5B681A464FF064
:104D300000039118B9625B41FB62D7E90A23D7E906
:104D40001601FBF7EDFE02460B468C4BA3FB02134C
:104D50005B09642101FB03F3D31ADB003233874A7A
:104D6000A2FB03235B095B0003F4F8731E447B6F13
:104D700018464FF0000102460B4694183C625B4116
:104D80007B62D7E90823121841EB03034FF00004BC
:104D90004FF00005DD0045EA5275D40022462B464F
:104DA00014183C654B417B65FB6E5B681A464FF0FF
:104DB00000039118B9615B41FB61D7E90623D7E98C
:104DC0001401FBF7ADFE02460B466C4BA3FB02132E
:104DD0005B09642101FB03F3D31ADB003233674A1A
:104DE000A2FB03235B0903F00702FB6E1B6832443E
:104DF0009A60B9E07B6F1C464FF0000522462B46B7
:104E0000911839615B417B61D7E90423121945EBA5
:104E100003034FF000004FF00001D90041EA527146
:104E2000D00002460B4612EB040843EB0509FB6E6B
:104E30005B6818464FF000014FF000024FF000038E
:104E40008B0043EA9073820040464946FBF768FEB8
:104E500002460B46494BA3FB02235B091E017B6FF5
:104E600018464FF0000102460B469418BC605B41A7
:104E7000FB60D7E90223121841EB03034FF0000453
:104E80004FF00005DD0045EA5275D40022462B465E
:104E90001418BC644B41FB64FB6E5B6818464FF012
:104EA00000014FF000024FF000038B0043EA9073C3
:104EB0008200D7E91201FBF733FE02460B462F4B67
:104EC000A3FB02135B09642101FB03F3D31A1B014B
:104ED00032332A4AA2FB03235B0903F0F0031E448A
:104EE0007B6F18464FF0000102460B4694183C6059
:104EF0005B417B60D7E90023121841EB03034FF0BD
:104F000000044FF00005DD0045EA5275D40022464A
:104F10002B4612EB000A43EB010BFB6E5B68184655
:104F20004FF000014FF000024FF000038B0043EA06
:104F30009073820050465946FBF7F2FD02460B463D
:104F40000E4BA3FB02135B09642101FB03F3D31A8D
:104F50001B013233094AA2FB03235B0903F00F0252
:104F6000FB6E1B6832449A6000BF7C37BD46BDE8CB
:104F7000F08F00BF00100140001401401F85EB516D
:104F800080B485B000AF786039600023FB603B6877
:104F90001A687B6853F82230FB60FA68204B134094
:104FA000FB603B685A683B689B681A433B68DB6858
:104FB0001A433B681B691A433B685B691A433B68A9
:104FC0009B691A433B68DB691A433B681B6A1A43B7
:104FD0003B685B6A1A433B689B6A1A433B68DB6A1F
:104FE0001A433B68DB6B1A433B681B6B1343FA683D
:104FF0001343FB603B689B68082B03D1FB6843F0BD
:105000004003FB603B681A687B68F96843F822102C
:10501000002318461437BD465DF8047B704700BF77
:105020008000F0FF80B487B000AFF860B9607A60AC
:1050300000237B617B685A1CFB6853F822307B613C
:105040007B6903F040437B61BB681A68BB685B689F
:105050001B011A43BB689B681B021A43BB68DB68D1
:105060001B041A43BB681B69013B1B051A43BB6841
:105070005B69023B1B061A43BB689B6913437A6951
:1050800013437B617B685A1CFB68796943F82210E3
:10509000002318461C37BD465DF8047B70470000AE
:1050A00080B487B000AFF860B9607A603B600023DD
:1050B0007B613B68B3F5804F22D1FB687A6853F877
:1050C00022307B617A69154B13407B61BB681A689B
:1050D000BB685B681B011A43BB689B681B021A43D1
:1050E000BB68DB681B041A43BB689B6913437A697E
:1050F00013437B61FB687A68796943F8221005E005
:10510000FB687A686FF0704143F82210002318465C
:105110001C37BD465DF8047B704700BF0000F0CF30
:1051200080B483B000AF03463960FB7197F9073054
:10513000002B0ADB3B68DAB20C4997F90730120101
:10514000D2B20B4483F800230AE03B68DAB2084984
:10515000FB7903F00F03043B1201D2B20B441A7621
:1051600000BF0C37BD465DF8047B704700E100E0EE
:1051700000ED00E080B500AF054B1B6802F012FEA9
:105180000346012B01D003F0B7FF00BF80BD00BF75
:1051900010E000E080B500AF00216FF00400FFF7E1
:1051A000BFFF00BF80BD000080B483B000AFEFF34D
:1051B00005833B603B68002B03D06FF005037B60E9
:1051C0000CE00A4B1B68002B05D1084B01221A602A
:1051D00000237B6002E04FF0FF337B607B68184662
:1051E0000C37BD465DF8047B704700BF24030020E8
:1051F00080B582B000AFEFF305833B603B68002BC6
:1052000003D06FF005037B6010E00B4B1B68012B94
:1052100009D1FFF7BFFF084B02221A6002F030F9F4
:1052200000237B6002E04FF0FF337B607B68184611
:105230000837BD4680BD00BF2403002080B58EB076
:1052400004AFF860B9607A6000233B61EFF3058337
:105250007B617B69002B7FD1FB68002B7CD04FF4F6
:1052600000733B621823FB6100237B624FF0FF3326
:10527000BB617B68002B45D07B681B68002B02D08C
:105280007B681B687B627B689B69002B02D07B6814
:105290009B69FB61FB69002B08D0FB69382B05D8A3
:1052A0007B685B6803F00103002B01D0002354E00E
:1052B0007B685B69002B03D07B685B699B083B6262
:1052C0007B689B68002B0ED07B68DB68CB2B0AD9F0
:1052D0007B681B69002B06D07B685B69002B02D0C2
:1052E0000123BB6110E07B689B68002B0CD17B68BD
:1052F000DB68002B08D17B681B69002B04D10023DD
:10530000BB6101E00023BB61BB69012B10D17B684D
:105310001B697A68926802920193FB690093BB68EB
:105320003A6A796AF86801F0BFFE03463B6113E010
:10533000BB69002B10D13B6A9AB207F110030193AD
:10534000FB690093BB68796AF86801F00AFF0346BD
:10535000012B01D000233B613B6918462837BD462D
:1053600080BD000080B588B002AF786039607B688E
:105370007B617B69002B02D03B68002B03DA6FF066
:105380000303FB6035E04FF0FF33FB60EFF3058371
:105390003B613B69002B1FD00023BB6007F1080372
:1053A0000093002301223968786902F0A3FF07F116
:1053B0000C030022009200220021786902F09AFF7B
:1053C000BB68002B15D00D4B4FF080521A60BFF315
:1053D0004F8FBFF36F8F0CE000230122396878698B
:1053E00002F0CAFE07F10C0300220021786902F0E6
:1053F000C3FEFB6818461837BD4680BD04ED00E0CB
:1054000080B586B000AF7860EFF30583FB60FB6882
:10541000002B03D06FF005037B612AE07B68002B33
:1054200003DA6FF003037B6123E002F0ABFC386129
:1054300007F1080300220021386902F09DFE0346AF
:10544000012B13D1BB687B617B68DA43BB681340D7
:10545000BB60B96800230322386902F08DFE034661
:10546000012B06D04FF0FF337B6102E04FF0FF339A
:105470007B617B6918461837BD4680BD80B58CB00E
:1054800000AFF860B9607A60EFF305837B617B69F8
:10549000002B03D06FF00503FB626BE0FB68002B71
:1054A00003DA6FF00303FB6264E0BB6803F00203FE
:1054B000002B02D00023BB6201E0FB68BB6200232B
:1054C000FB627B687B6202F0F7F8386207F110023A
:1054D0007B6AB96A002002F0EFFDF861FB69012BDD
:1054E00037D1FA6AFB681340FB623B69FA6A1343DF
:1054F000FB62BB6803F00103002B0CD0FA68FB6A67
:105500001340FA689A4232D07B68002B0FD16FF0BB
:105510000203FB622EE0FA68FB6A1340002B28D1DD
:105520007B68002B03D16FF00203FB6222E002F0E4
:10553000C3F802463B6AD31ABB61BA697B6A9A42D6
:1055400002D900237B620EE07A6ABB69D31A7B62C0
:1055500009E07B68002B03D16FF00203FB6202E0DD
:105560006FF00103FB62FB69002BAFD102E000BFCB
:1055700000E000BFFB6A18463037BD4680BD80B5ED
:1055800084B000AF7860EFF30583BB60BB68002B8D
:1055900003D06FF00503FB6007E00023FB607B682E
:1055A000002B02D0786801F037FFFB6818461037EF
:1055B000BD4680BD80B584B000AF7860786803F0E8
:1055C000B9FBF860FB68002B05D0FB681B68FA6824
:1055D00052681046984700BF1037BD4680BD000096
:1055E00080B58CB002AFF8607A603B600B46FB720E
:1055F00000233B62EFF305833B613B69002B63D1E2
:10560000FB68002B60D0082003F006FE78617B6900
:10561000002B59D07B69FA681A607B697A685A60F6
:10562000FB7A002B02D10023FB6101E00123FB6127
:105630004FF0FF33BB6100237B623B68002B1CD023
:105640003B681B68002B02D03B681B687B623B6891
:105650009B68002B06D03B68DB682B2B02D901230B
:10566000BB610CE03B689B68002B08D13B68DB68A2
:10567000002B04D10023BB6101E00023BB61BB69A7
:10568000012B0CD13B689B680193124B00937B6903
:10569000FA690121786A02F0CEFF38620BE0BB693B
:1056A000002B08D10B4B00937B69FA690121786AC2
:1056B00002F0A0FF38623B6A002B05D17B69002B0A
:1056C00002D0786903F050FE3B6A18462837BD4681
:1056D00080BD00BFB555000880B588B002AF7860C6
:1056E00039607B683B61EFF30583FB60FB68002B4F
:1056F00003D06FF005037B6117E03B69002B03D1FA
:105700006FF003037B6110E00023009300233A68ED
:105710000421386903F008F80346012B02D1002365
:105720007B6102E06FF002037B617B6918461837EA
:10573000BD4680BD80B588B000AF78600023FB61B6
:10574000EFF30583BB60BB68002B74D17B68002B33
:1057500003D07B685B68BB6101E00023BB61BB6970
:1057600003F00103002B02D001237B6101E0002341
:105770007B61BB6903F00803002B5CD14FF0FF3362
:105780003B617B68002B15D07B689B68002B06D0A3
:105790007B68DB684F2B02D901233B610CE07B68FF
:1057A0009B68002B08D17B68DB68002B04D10023A9
:1057B0003B6101E000233B613B69012B12D17B6916
:1057C000002B07D07B689B681946042000F017FD6A
:1057D000F86116E07B689B681946012000F00FFD18
:1057E000F8610EE03B69002B0BD17B69002B04D0E4
:1057F000042000F0ECFCF86103E0012000F0E7FC7D
:10580000F861FB69002B0CD07B68002B03D07B6810
:105810001B68FB6001E00023FB60F968F86901F098
:10582000BBFBFB69002B06D07B69002B03D0FB6917
:1058300043F00103FB61FB6918462037BD4680BD7C
:1058400080B586B000AF786039607B6823F00103D3
:105850003B617B6803F00103FB6000237B61EFF396
:105860000583BB60BB68002B03D06FF005037B6131
:105870002CE03B69002B03D16FF003037B6125E033
:10588000FB68002B11D03968386900F007FD03462A
:10589000012B1BD03B68002B03D06FF001037B6111
:1058A00014E06FF002037B6110E03968386901F0A1
:1058B0009BF80346012B09D03B68002B03D06FF007
:1058C00001037B6102E06FF002037B617B69184694
:1058D0001837BD4680BD80B586B000AF78607B6864
:1058E00023F001033B617B6803F00103FB600023AD
:1058F0007B61EFF30583BB60BB68002B03D06FF0C7
:1059000005037B611FE03B69002B03D16FF00303AC
:105910007B6118E0FB68002B09D0386900F08AFC35
:105920000346012B0FD06FF002037B610BE00023D5
:1059300000220021386900F051FD0346012B02D0FE
:105940006FF002037B617B6918461837BD4680BD46
:1059500080B58AB002AFF860B9607A600023FB615D
:10596000EFF305833B613B69002B75D1FB68002B8E
:1059700072D0BA68FB689A426ED84FF0FF33BB61B1
:105980007B68002B15D07B689B68002B06D07B685A
:10599000DB684F2B02D90123BB610CE07B689B685D
:1059A000002B08D17B68DB68002B04D10023BB618E
:1059B00001E00023BB61BB69B3F1FF3F4CD0FB6842
:1059C000012B28D1BB69012B0AD17B689B6803227C
:1059D000009200220021012000F00AFBF86105E09E
:1059E00003220021012000F07BFBF861FB69002B02
:1059F00022D0BB68002B1FD0002300220021F869B1
:105A000000F0ECFC0346012B16D0F86901F078F9A0
:105A10000023FB6110E0BB69012B08D17B689B6808
:105A20001A46B968F86800F06FFCF86104E0B968DC
:105A3000F86800F0A0FCF861FB69002B0CD07B68D3
:105A4000002B03D07B681B687B6101E000237B6136
:105A50007969F86901F0A0FAFB6918462037BD465C
:105A600080BD000080B586B000AF78607B683B6188
:105A700000237B613B69002B03D16FF003037B6143
:105A80002CE0EFF30583FB60FB68002B1AD00023AA
:105A9000BB6007F108031946386900F038FE034679
:105AA000012B03D06FF002037B6117E0BB68002B72
:105AB00014D00D4B4FF080521A60BFF34F8FBFF3DD
:105AC0006F8F0BE0002300220021386900F086FC74
:105AD0000346012B02D06FF002037B617B691846FD
