:020000040800F2
:10000000FFFF012099860208D5830208D9830208E0
:10001000DD830208E1830208E58302080000000096
:10002000000000000000000000000000015D00086A
:10003000E983020800000000915D0008F55D0008FA
:10004000E9860208E9860208E9860208E9860208CC
:10005000E9860208E9860208E9860208E9860208BC
:10006000E9860208E9860208E9860208E9860208AC
:10007000E9860208E9860208E9860208E98602089C
:10008000E9860208E9860208E9860208E98602088C
:10009000E9860208E9860208E9860208E98602087C
:1000A000E9860208ED830208E9860208E98602086B
:1000B000E9860208E9860208F9830208E98602084F
:1000C000E9860208E9860208E9860208E98602084C
:1000D000E98602080584020811840208E9860208FC
:1000E0001D840208E9860208E9860208E9860208FA
:1000F000E9860208E9860208E9860208E98602081C
:10010000E9860208E9860208E9860208E98602080B
:10011000E9860208E9860208E9860208E9860208FB
:100120002584020831840208E9860208E98602086B
:10013000E9860208E9860208E9860208E9860208DB
:10014000E9860208E9860208E9860208E9860208CB
:10015000E9860208E9860208E9860208E9860208BB
:10016000E9860208E9860208E9860208E9860208AB
:10017000E9860208E9860208E98602080000000014
:08018000E9860208E986020885
:1001900010B5054C237833B9044B13B10448AFF3C1
:1001A00000800123237010BDB00200200000000079
:1001B000208B020808B5034B1BB103490348AFF37A
:1001C000008008BD00000000B4020020208B02085F
:1001D00010F8012B11F8013B012A28BF9A42F7D0F1
:1001E000D01A7047034613F8012B002AFBD1181AC6
:1001F0000138704781F0004102E000BF83F0004306
:1002000030B54FEA41044FEA430594EA050F08BFB1
:1002100090EA020F1FBF54EA000C55EA020C7FEA75
:10022000645C7FEA655C00F0E2804FEA5454D4EBF2
:100230005555B8BF6D420CDD2C4480EA020281EABC
:10024000030382EA000083EA010180EA020281EAF4
:100250000303362D88BF30BD11F0004F4FEA013146
:100260004FF4801C4CEA113102D0404261EB410155
:1002700013F0004F4FEA03334CEA133302D05242DB
:1002800063EB430394EA050F00F0A780A4F1010497
:10029000D5F1200E0DDB02FA0EFC22FA05F28018D1
:1002A00041F1000103FA0EF2801843FA05F35941B7
:1002B0000EE0A5F120050EF1200E012A03FA0EFC36
:1002C00028BF4CF0020C43FA05F3C01851EBE37160
:1002D00001F0004507D54FF0000EDCF1000C7EEB7D
:1002E00000006EEB0101B1F5801F1BD3B1F5001FBB
:1002F0000CD349085FEA30004FEA3C0C04F10104DA
:100300004FEA445212F5800F80F09A80BCF1004F02
:1003100008BF5FEA500C50F1000041EB045141EA84
:10032000050130BD5FEA4C0C404141EB010111F485
:10033000801FA4F10104E9D191F0000F04BF014630
:100340000020B1FA81F308BF2033A3F10B03B3F10E
:1003500020020CDA0C3208DD02F1140CC2F10C029E
:1003600001FA0CF021FA02F10CE002F11402D8BFFC
:10037000C2F1200C01FA02F120FA0CFCDCBF41EAC8
:100380000C019040E41AA2BF01EB0451294330BD97
:100390006FEA04041F3C1CDA0C340EDC04F1140474
:1003A000C4F1200220FA04F001FA02F340EA03004B
:1003B00021FA04F345EA030130BDC4F10C04C4F191
:1003C000200220FA02F001FA04F340EA0300294671
:1003D00030BD21FA04F0294630BD94F0000F83F4BB
:1003E000801306BF81F480110134013D4EE77FEA9E
:1003F000645C18BF7FEA655C29D094EA050F08BFEA
:1004000090EA020F05D054EA000C04BF19461046CA
:1004100030BD91EA030F1EBF0021002030BD5FEA0E
:10042000545C05D14000494128BF41F0004130BD36
:1004300014F580043CBF01F5801130BD01F000458A
:1004400045F0FE4141F470014FF0000030BD7FEAFD
:10045000645C1ABF194610467FEA655C1CBF0B46F8
:10046000024650EA013406BF52EA033591EA030F0F
:1004700041F4002130BD00BF90F0000F04BF002107
:10048000704730B54FF4806404F132044FF000053A
:100490004FF0000150E700BF90F0000F04BF0021B3
:1004A000704730B54FF4806404F1320410F0004519
:1004B00048BF40424FF000013EE700BF42004FEA14
:1004C000E2014FEA31014FEA02701FBF12F07F4391
:1004D00093F07F4F81F06051704732F07F4208BF48
:1004E000704793F07F4F04BF41F40021704730B54F
:1004F0004FF4607401F0004521F000411CE700BF9B
:1005000050EA010208BF704730B54FF000050AE01D
:1005100050EA010208BF704730B511F0004502D51E
:10052000404261EB41014FF4806404F132045FEA20
:10053000915C3FF4D8AE4FF003025FEADC0C18BFC9
:1005400003325FEADC0C18BF033202EBDC02C2F1BB
:10055000200300FA03FC20FA02F001FA03FE40EA4D
:100560000E0021FA02F11444BDE600BF70B54FF051
:10057000FF0C4CF4E06C1CEA11541DBF1CEA13552F
:1005800094EA0C0F95EA0C0F00F0DEF82C4481EA97
:10059000030621EA4C5123EA4C5350EA013518BFB7
:1005A00052EA033541F4801143F4801338D0A0FBA4
:1005B00002CE4FF00005E1FB02E506F00042E0FB51
:1005C00003E54FF00006E1FB03569CF0000F18BF57
:1005D0004EF0010EA4F1FF04B6F5007F64F54074FF
:1005E00004D25FEA4E0E6D4146EB060642EAC62192
:1005F00041EA55514FEAC52040EA5E504FEACE2EFF
:10060000B4F1FD0C88BFBCF5E06F1ED8BEF1004F01
:1006100008BF5FEA500E50F1000041EB045170BD7D
:1006200006F0004646EA010140EA020081EA0301C1
:10063000B4EB5C04C2BFD4EB0C0541EA045170BDBD
:1006400041F480114FF0000E013C00F3AB8014F137
:10065000360FDEBF002001F0004170BDC4F1000480
:10066000203C35DA0C341BDC04F11404C4F1200501
:1006700000FA05F320FA04F001FA05F240EA02005C
:1006800001F0004221F0004110EBD37021FA04F692
:1006900042EB06015EEA430E08BF20EAD37070BD4C
:1006A000C4F10C04C4F1200500FA04F320FA05F0AB
:1006B00001FA04F240EA020001F0004110EBD370AD
:1006C00041F100015EEA430E08BF20EAD37070BD1D
:1006D000C4F1200500FA05F24EEA020E20FA04F3F6
:1006E00001FA05F243EA020321FA04F001F00041A5
:1006F00021FA04F220EA020000EBD3705EEA430E16
:1007000008BF20EAD37070BD94F0000F0FD101F044
:100710000046400041EB010111F4801F08BF013C7D
:10072000F7D041EA060195F0000F18BF704703F0BB
:100730000046520043EB030313F4801F08BF013D42
:10074000F7D043EA0603704794EA0C0F0CEA1355FE
:1007500018BF95EA0C0F0CD050EA410618BF52EAB8
:100760004306D1D181EA030101F000414FF00000BE
:1007700070BD50EA410606BF1046194652EA4306CC
:1007800019D094EA0C0F02D150EA013613D195EA40
:100790000C0F05D152EA03361CBF104619460AD188
:1007A00081EA030101F0004141F0FE4141F4700192
:1007B0004FF0000070BD41F0FE4141F4780170BD82
:1007C00070B54FF0FF0C4CF4E06C1CEA11541DBFE7
:1007D0001CEA135594EA0C0F95EA0C0F00F0A7F8E9
:1007E000A4EB050481EA030E52EA03354FEA013116
:1007F00000F088804FEA03334FF0805545EA131329
:1008000043EA12634FEA022245EA111545EA1065F0
:100810004FEA00260EF000419D4208BF964244F187
:10082000FD0404F5407402D25B084FEA3202B61AA6
:1008300065EB03055B084FEA32024FF480104FF47A
:10084000002CB6EB020E75EB030E22BFB61A7546EE
:1008500040EA0C005B084FEA3202B6EB020E75EB81
:10086000030E22BFB61A754640EA5C005B084FEAE9
:100870003202B6EB020E75EB030E22BFB61A7546B6
:1008800040EA9C005B084FEA3202B6EB020E75EBC1
:10089000030E22BFB61A754640EADC0055EA060E82
:1008A00018D04FEA051545EA16754FEA06164FEAC5
:1008B000C30343EA52734FEAC2025FEA1C1CC0D171
:1008C00011F4801F0BD141EA00014FF000004FF0FE
:1008D000004CB6E711F4801F04BF01430020B4F1BF
:1008E000FD0C88BFBCF5E06F3FF6AFAEB5EB030C77
:1008F00004BFB6EB020C5FEA500C50F1000041EB74
:10090000045170BD0EF0004E4EEA113114EB5C0440
:10091000C2BFD4EB0C0541EA045170BD41F4801113
:100920004FF0000E013C90E645EA060E8DE60CEA1B
:10093000135594EA0C0F08BF95EA0C0F3FF43BAF38
:1009400094EA0C0F0AD150EA01347FF434AF95EAEF
:100950000C0F7FF425AF104619462CE795EA0C0FD3
:1009600006D152EA03353FF4FDAE1046194622E7A0
:1009700050EA410618BF52EA43067FF4C5AE50EA7A
:1009800041047FF40DAF52EA43057FF4EBAE12E76A
:100990004FF0FF3C06E000BF4FF0010C02E000BF4B
:1009A0004FF0010C4DF804CD4FEA410C7FEA6C5C2E
:1009B0004FEA430C18BF7FEA6C5C1BD001B050EAD1
:1009C000410C0CBF52EA430C91EA030F02BF90EABC
:1009D000020F0020704710F1000F91EA030F58BF7B
:1009E000994208BF90422CBFD8176FEAE37040F0DD
:1009F000010070474FEA410C7FEA6C5C02D150EA7B
:100A0000013C07D14FEA430C7FEA6C5CD6D152EA35
:100A1000033CD3D05DF8040B704700BF84461046FA
:100A200062468C461946634600E000BF01B5FFF7F9
:100A3000B7FF002848BF10F1000F01BD4DF808EDC9
:100A4000FFF7F4FF0CBF012000205DF808FB00BF9A
:100A50004DF808EDFFF7EAFF34BF012000205DF8F4
:100A600008FB00BF4DF808EDFFF7E0FF94BF012041
:100A700000205DF808FB00BF4DF808EDFFF7CEFF42
:100A800094BF012000205DF808FB00BF4DF808ED81
:100A9000FFF7C4FF34BF012000205DF808FB00BF52
:100AA0004FEA410212F5001215D211D56FF4787396
:100AB000B3EB625212D94FEAC12343F0004343EA39
:100AC000505311F0004F23FA02F018BF4042704714
:100AD0004FF00000704750EA013005D111F000409E
:100AE00008BF6FF0004070474FF00000704700BF34
:100AF0004FEA4102B2F1E04324BFB3F5001CDCF140
:100B0000FE5C0DD901F0004C4FEAC0024CEA507077
:100B1000B2F1004F40EB830008BF20F001007047A6
:100B200011F0804F21D113F13872BCBF01F00040A9
:100B3000704741F480114FEA5252C2F11802C2F1DB
:100B4000200C10FA0CF320FA02F018BF40F001005C
:100B50004FEAC1234FEAD32303FA0CFC40EA0C000E
:100B600023FA02F34FEA4303CCE77FEA625307D14B
:100B700050EA01331EBF4FF0FE4040F44000704782
:100B800001F0004040F0FE4040F40000704700BF1C
:100B90007BB972B90029BEBF00204FF0004106E0CA
:100BA00008BF00281CBF6FF000414FF0FF3000F07D
:100BB000BDB9ADF1080C6DE904CE002909DB002BAD
:100BC0001ADB00F04DF8DDF804E0DDE9022304B0A3
:100BD0007047404261EB4101002B1BDB00F040F805
:100BE000DDF804E0DDE9022304B0404261EB41019D
:100BF000524263EB43037047524263EB430300F0FE
:100C00002FF8DDF804E0DDE9022304B0404261EB97
:100C100041017047524263EB430300F021F8DDF8D5
:100C200004E0DDE9022304B0524263EB4303704762
:100C300053B94AB9002908BF00281CBF4FF0FF3143
:100C40004FF0FF3000F072B9ADF1080C6DE904CE41
:100C500000F006F8DDF804E0DDE9022304B0704797
:100C60002DE9F047089E04468846002B4BD18A4266
:100C7000154667D9B2FA82F24AB1C2F1200701FAE9
:100C800002F320FA07F7954047EA030894404FEA39
:100C9000154E230CB8FBFEF71FFA85FC0EFB1788D8
:100CA00043EA084307FB0CF1994209D9EB1807F115
:100CB000FF3080F01B81994240F21881023F2B44A3
:100CC0005B1AA4B2B3FBFEF00EFB103344EA0344FC
:100CD00000FB0CFCA44509D92C1900F1FF3380F06E
:100CE0000781A44540F2048102382C4440EA0740C1
:100CF000A4EB0C0400271EB1D4400023C6E9004336
:100D00003946BDE8F0878B4209D9002E00F0EB8010
:100D10000027C6E9000138463946BDE8F087B3FA36
:100D200083F7002F47D18B4202D3824200F2FA8030
:100D3000841A61EB030301209846002EE0D0C6E937
:100D40000048DDE702B9FFDEB2FA82F2002A40F085
:100D50008F80491B4FEA154E1FFA85F80127B1FB1A
:100D6000FEFC230C0EFB1C1143EA014308FB0CF1B3
:100D7000994207D9EB180CF1FF3002D2994200F2E8
:100D8000CD808446591AA3B2B1FBFEF00EFB1014BD
:100D900043EA044408FB00F8A04507D92C1900F1E8
:100DA000FF3302D2A04500F2B6801846A4EB080437
:100DB00040EA0C409FE7C7F1200CBB4022FA0CFE32
:100DC0004EEA030E01FA07F420FA0CF521FA0CF3AF
:100DD0004FEA1E482543B3FBF8F92C0C08FB1933E6
:100DE0001FFA8EFA44EA034309FB0AF49C4202FA12
:100DF00007F200FA07F10BD91EEB030309F1FF30EC
:100E000080F087809C4240F28480A9F102097344FB
:100E10001B1BADB2B3FBF8F008FB103345EA0344EB
:100E200000FB0AFAA24508D91EEB040400F1FF33C7
:100E30006BD2A24569D90238744440EA0940A0FB4C
:100E40000289A4EB0A044C45C2464B4654D351D008
:100E5000002E69D0B1EB0A0564EB030404FA0CFC24
:100E6000FD40FC404CEA0505C6E90054002747E771
:100E7000C2F1200320FA03F7954001FA02F021FAAB
:100E800003F34FEA154E3843010CB3FBFEF71FFA8C
:100E900085F80EFB173341EA034107FB08F38B4249
:100EA00004FA02F407D9691807F1FF3C2FD28B42EC
:100EB0002DD9023F2944CB1A81B2B3FBFEF00EFBC1
:100EC000103341EA034100FB08F38B4207D969184C
:100ED00000F1FF3C17D28B4215D902382944C91AB8
:100EE00040EA07473BE73746304609E70746E7E66B
:100EF0001846FBE64145ABD2B8EB020A69EB0E029D
:100F000001381346A4E76046E9E7184695E76746C7
:100F1000D1E781467CE702382C4447E7ACF1020C6C
:100F20002B442FE7384608E73746E9E6704700BF0D
:100F300008B50B4B1A6842F400721A601A6842F442
:100F400080621A601A6842F480721A60032000F00E
:100F5000F5FA002027F0FEF926F04AFF002008BD30
:100F6000003C0240034A044B11681B780B44136099
:100F7000704700BFC8B2012000000020014B186874
:100F8000704700BFC8B2012038B50446FFF7F6FF2E
:100F9000631C054602D0044B1B781C44FFF7EEFF90
:100FA000401BA042FAD338BD00000020002800F00A
:100FB0009180F8B5056C0446002D00F08180236C0B
:100FC000DB0604D50023012084F83C30F8BD226CF8
:100FD0004D4923684D4D22F4885222F0020242F01E
:100FE000020222644A6822F440324A604A68606819
:100FF00002434A6058682169A768E66820F4807057
:1010000058605A6842EA01225A60586820F04070DD
:1010100058605968A06A39435960996821F40061A1
:1010200099609A68A84242EA06029A6054D0996888
:10103000E56A21F0706199609A6810439860996838
:1010400021F0405199609A682A439A609968257EF8
:1010500094F8200021F0020199609A6842EA450262
:101060009A605A68002840D122F400625A60DA6A15
:10107000E56994F83070666922F47002DA62D86A21
:10108000013D40EA0550D862986820F400709860ED
:10109000996841EA47219960996821F480619960D3
:1010A0009A68002042EA86229A606064236C23F0EA
:1010B000030343F001032364002384F83C30F8BDAC
:1010C00026F0C0FE6564236C84F83C50DB063FF5D7
:1010D00079AF7CE7012070479A6822F070629A60CD
:1010E0009A6822F040529A60B0E742F40062616A66
:1010F0005A605A6822F460425A605A68013942EADA
:1011000041325A60B3E700BF002301400100000FE5
:10111000F0B590F83C3083B00024012B019400F02E
:1011200081800568AB680124DF0780F83C4014D457
:10113000404B414E1C68AB68A6FB0464A40C43F012
:10114000010304EB4404AB600194019B2BB1019CAF
:10115000013C0194019C002CF9D1AB68DE0743D51A
:10116000046C24F4E06424F0010444F48074046406
:101170006B685C0505D5036C23F4405343F480533E
:101180000364036C2D4E13F480531CBF436C23F097
:10119000060343640446806B13460027284A84F8FC
:1011A0003C70C6630264274EC6646FF022022A6058
:1011B0006E6846F080666E60AE6846F480760A46D9
:1011C000AE6005F14C0100F0D1FA1F4B5A68D2060F
:1011D0000DD122681D498A421BD001F580718A42D7
:1011E00023D01B498A420FD0002003B0F0BD2368F2
:1011F000164A9342F8D1986810F04050F4D19A689A
:1012000042F080429A60F0E75B6803F01F030F2B07
:10121000EAD8906810F04050E6D1936843F08043DC
:101220009360E2E7022003B0F0BD5B68DB06F0D01C
:10123000DAE700BF4002002083DE1B437D12000876
:1012400059120008651200080023014000200140E7
:1012500000220140704700BF08B5806BFFF7FAFF1E
:1012600008BD00BF806B08B540230364436C43F0A6
:101270000403436424F0AEFE08BD00BF836B1A6C08
:1012800012F0500F10B51A6C23D142F40072196895
:101290001A648A6812F0405F17D11A7EAAB9CA6A26
:1012A00012F4700F02D08A6850050ED44A6822F0FA
:1012B00020024A601A6C22F480721A641A6CD104FB
:1012C00003D41A6C42F001021A64184624F06AFE34
:1012D00010BDD20604D49B6BBDE81040DB6C1847F0
:1012E000184624F077FE10BDF0B490F83C3082B080
:1012F0000022012B019200F095800D688A68036836
:101300000124092DAFB280F83C4029D81C6905EBB7
:1013100045064FF0070C0CFA06FC24EA0C041C618D
:101320001C6902FA06F626431E614E68062E06EB7D
:1013300086022AD8596B053A1F24944021EA0401F9
:101340005963596B07FA02F20A435A63374A9342C8
:101350002DD0002380F83C30184602B0F0BC704716
:1013600007EB4706DC681E3E4FF0070C0CFA06FC44
:1013700024EA0C04DC60DC6802FA06F62643DE6030
:101380004E68062E06EB8602D4D90C2E35D8A2F173
:1013900023041F211A6BA14022EA01021A63196B70
:1013A00007FA04F20A431A63204A9342D1D1122D5C
:1013B00031D0A5F11003012BCBD81D4A5368102D55
:1013C00043F400035360C4D11A4B02F1467202F594
:1013D0002E321B6802F28332A2FB03239B0C03EB29
:1013E00083035B000193019B002BB2D0019B013B67
:1013F0000193019B002BF9D1ABE7A2F141011F241E
:10140000DA6A8C4022EA0402DA62DC6A07FA01F244
:101410002243DA629AE7D2F8043343F48003C2F835
:10142000043396E7022002B0F0BC70470020014070
:10143000002301404002002000287CD038B590F8FD
:1014400020300446002B73D02268136823F0020377
:101450001360FFF793FD054604E0FFF78FFD401B87
:101460000A285CD823685A689107F6D41A6842F0B3
:1014700001021A60FFF782FD054604E0FFF77EFDDA
:10148000401B0A284BD823685A68D207F6D5227E1B
:10149000012A1A680CBF42F0800222F080021A6012
:1014A000627E012A1A680CBF42F0400222F040021C
:1014B0001A60A27E012A1A680CBF42F0200222F0B4
:1014C00020021A60E27E012A1A680CBF22F0100284
:1014D00042F010021A60227F012A1A680CBF42F003
:1014E000080222F008021A60627F012A1A680CBF03
:1014F00042F0040222F004021A60D4E90221D4E985
:1015000004500A4361682A43024301390A43012512
:101510000021DA610846616284F8205038BD636AB0
:10152000052243F400336362012084F8202038BD93
:1015300026F042FD88E70120704700BF074AD368C4
:101540004FF6FF010B40000243F0BF6300F4E06080
:1015500043F400330343D360704700BF00ED00E065
:10156000184BDB68C3F3022330B4C3F10705042D25
:1015700003F1040428BF0425062C19D9033B4FF0BE
:10158000FF349C4022EA04044FF0FF32AA4021EAD3
:10159000020101FA03F2224312010028D2B20ADB4F
:1015A00000F1604000F5614080F8002330BC7047D6
:1015B00000242346E8E7044B00F00F0003441A76AA
:1015C00030BC704700ED00E0FCEC00E0002807DBD9
:1015D00000F01F0101234009024A8B4042F82030ED
:1015E000704700BF00E100E000280DDB4309203315
:1015F0000122064900F01F0002FA00F041F8230022
:10160000BFF34F8FBFF36F8F704700BF00E100E063
:1016100078B1437910B503F0FF0204462BB10222E2
:10162000012362710020637110BD027126F004FD78
:10163000F5E70120704700BFF8B50446FFF79EFCB0
:10164000002C54D00222236884F835201A68002127
:1016500022F0010284F8341005461A6005E0FFF715
:101660008DFC401B05283BD823681A68D107F6D4A7
:10167000D4E90126D4E90351324360691F682A4343
:10168000D4E906650A430243216A354832432A43B6
:101690000A43616A3840042942EA000229D01A60EC
:1016A0005A6922F007021143DAB22E485961103A02
:1016B000A0FB021212092C4923F47F73895CE165B7
:1016C00023F00303032A88BF04333F228A40012505
:1016D0000021A36508469A60616584F83550F8BD1D
:1016E000032320226265184684F83530F8BD0120B6
:1016F000F8BDD4E90B0101430A43A56A1A605A698F
:1017000045F0040122F0070211430028CCD07EB13D
:10171000B6F5005F16D0022D03D9032DC4D1C20146
:10172000C2D5012340226265184684F83530F8BDE1
:10173000012D03D0F3D3022DB6D1F0E7B0F1C07F75
:10174000B2D1EEE7032DAFD801A252F825F000BFC9
:10175000231700081F170008231700083D1700086B
:101760003F8010F0ABAAAAAA988B0208F0B490F8B8
:101770003440012C39D090F83540866D0125AC42BB
:1017800080F834502BD104680227002580F835708A
:1017900045652568876825F48025402F25606360AE
:1017A0000ABFA260A160E160C16D18BFE2603F2383
:1017B0008B40026CB360236843F0160323606369B7
:1017C00043F0800363611AB1236843F00803236088
:1017D000236843F0010323600020F0BC704700231E
:1017E00080F83430F0BC022070470220F0BC704713
:1017F00090F83530022B03D08023436501207047D9
:101800000268052380F83530136823F00103136064
:1018100000207047F0B583B00023876D0193C36D3E
:101820003D68654908229A402A4204460E6803D062
:1018300001680868400759D401229A402A4203D01F
:1018400021684969080674D404229A402A4203D0C8
:1018500021680968890766D410229A402A4203D079
:101860002168086800074BD420229A402A4214D0ED
:1018700021680868C00610D5BA6094F83520052A9A
:1018800063D00B6813F4802F0B687ED0190340F1EE
:101890008980E36B0BB120469847636D23B3636D7A
:1018A000DA071AD50523226884F8353013684349CE
:1018B00023F00103A1FB06161360B60A02E01368C9
:1018C000DB0704D5019B0133B3420193F7D9002212
:1018D000012384F8342084F83530E36C23B12046AA
:1018E00003B0BDE8F040184703B0F0BD086820F031
:1018F00004000860BA60626D42F0010262659BE715
:10190000BA600A6812F4802F0A6818D1D20503D48D
:101910000A6822F008020A60226C002AA4D020463D
:101920009047E36DA0E7BA60626D42F00402626521
:1019300092E7BA60626D42F00202626584E71103C9
:10194000EAD5A26C002AEAD18EE70A68206C22F060
:1019500016020A604A6922F080024A6138B30A68B6
:1019600022F008020A603F22216D02FA03F30020F0
:101970000122BB6084F8340084F835200029B3D0FC
:10198000204603B0BDE8F040084713F4807380D1CF
:101990000A68012022F010020A6084F8343084F8CA
:1019A000350076E7636C002B7FF475AF75E7A26CAA
:1019B000002AD4D1D7E700BF40020020B5814E1BDA
:1019C0001B4BDA68D10605D51A49CA6910200243B3
:1019D000CA61D860164BDA68920606D51549CA69FD
:1019E000202042F00802CA61D860114BDA68500624
:1019F00006D51049CA69402042F00402CA61D86085
:101A00000B4BDA68110606D50A49CA69802042F0F4
:101A10000202CA61D860064BDA68920706D505490A
:101A2000CA69022042F02002CA61D860704700BF34
:101A3000003C0240CCB20120064B1A69002A01DBAF
:101A4000002070470449054A59605A601869C00F60
:101A5000704700BF003C024023016745AB89EFCDD2
:101A6000034A136943F0004313610020704700BF2D
:101A7000003C0240124B70B500220546DA61FFF7C8
:101A80007DFA104C064601E0691C0DD1E368DA03CB
:101A9000FAD4E368DB0744BF0123E360094BD8684D
:101AA00010F0F20008D170BD25B1FFF767FA801B76
:101AB000A842EBD9032070BDFFF782FF012070BD63
:101AC000CCB20120003C02402DE9F041294C257E9A
:101AD000012D2DD01F46054601234CF25030904673
:101AE0000E462376FFF7C6FF18B100232376BDE824
:101AF000F081214B1A6922F440721A611A69D5B13A
:101B0000012D21D0022D2AD042F440721A611A69A7
:101B100042F001021A61C6F8008077604CF2503042
:101B2000FFF7A8FF144A136923F001031361DCE7F0
:101B30000220BDE8F0811A6119695FFA88F241F06C
:101B4000010119613270E9E742F480721A61196982
:101B50001FFA88F241F0010119613280DEE742F498
:101B600000721A611A6942F001021A61C6F8008017
:101B7000D4E700BFCCB20120003C024039B10129BA
:101B80001CD002290CBF4FF400714FF440710D4B73
:101B90001A6922F440721A611A69114319611A69AB
:101BA00022F0F8021A611A6942F0020242EAC00009
:101BB00018611A6942F480321A6170474FF48071DB
:101BC000E5E700BF003C0240144B1A6891050FD5B1
:101BD0001A6822F400721A601A6842F400621A60ED
:101BE0001A6822F400621A601A6842F400721A60DD
:101BF0000A4B1A6852050FD51A6822F480621A60DF
:101C00001A6842F480521A601A6822F480521A60EC
:101C10001A6842F480621A60704700BF003C0240BC
:101C20002DE9F8432D4E337E012B38D00123044695
:101C30004CF2503088463376FFF71CFF074648BB0E
:101C40004FF0FF33C8F800302368012B2BD0D4E9C4
:101C500002532B449D421BD2DFF8849005E0D4E967
:101C6000022301351344AB4212D9217C2846FFF7E9
:101C700085FF4CF25030FFF7FDFED9F8103023F00D
:101C8000FA03C9F810300028E9D0C8F80050074618
:101C9000FFF79AFF002333763846BDE8F883022722
:101CA0003846BDE8F8830E4D23692A6922F4407254
:101CB0002A612A6942F004022A612A691B0242F45D
:101CC00080329BB213432B614CF25030FFF7D2FEAF
:101CD0002B6923F0040307462B61D9E7CCB201201E
:101CE000003C02402DE9F04FDFF830C2DFF83082CF
:101CF000D1F800E083B0002503E00135102D00F09D
:101D00009A800123AB400EEA0304A342F5D14E684A
:101D100026F0100ABAF1020F00F090804FEA450950
:101D20000322D0F800B002FA09F2D24306F003070A
:101D300002EA0B0B07FA09F70AF1FF3A47EA0B0729
:101D4000BAF1010F076040F29F80C7688B683A4084
:101D500003FA09F31343C360F300CED500230193C4
:101D6000D8F8443043F48043C8F84430D8F84430BD
:101D700025F0030202F1804203F4804302F59C3215
:101D8000019305F00307019BD2F80890BF000F23D1
:101D9000BB4029EA030A5B4B984224D003F58063D9
:101DA000984200F08480584B984200F08780574B4F
:101DB000984200F08A80564B984200F08D80554B37
:101DC000984200F09080544B984200F09380DFF8E6
:101DD000549148450CBF4FF007094FF0080909FA24
:101DE00007F74AEA070AC2F808A0DCF80030E24325
:101DF000F70354BF13402343CCF80030DCF8043021
:101E0000B70354BF13402343CCF80430DCF8083048
:101E1000F70254BF13402343CCF80830DCF80C30F1
:101E2000B60205F1010554BF13402343102DCCF831
:101E30000C307FF466AF03B0BDE8F08F4FEAD509F0
:101E400000EB890905F00707D9F82020BF004FF003
:101E50000F0B0BFA07FB22EA0B0A0A69BA4042EAA7
:101E60000A02C9F820204FEA45090322D0F800A051
:101E700002FA09F2D24306F0030702EA0A0A07FA55
:101E800009F747EA0A070760876807EA020ACF6886
:101E900007FA09F747EA0A078760D0F804A0C6F3F3
:101EA00000172AEA0303AF401F4347604DE74FF096
:101EB000010909FA07F74AEA070A94E74FF002090D
:101EC00009FA07F74AEA070A8DE74FF0030909FA0A
:101ED00007F74AEA070A86E74FF0040909FA07F705
:101EE0004AEA070A7FE74FF0050909FA07F74AEAC5
:101EF000070A78E74FF0060909FA07F74AEA070ADE
:101F000071E700BF0000024000080240000C0240E0
:101F1000001002400014024000180240003C014042
:101F200000380240001C02402DE9F04F0023DFF88A
:101F30003C81DFF83CE1DFF83C91DFF83CA102E0B6
:101F40000133102B6ED0012404FA03F505EA0106D3
:101F5000B542F5D123F0030707F1804707F59C3719
:101F600003F00302D7F808B092004FF00F0C0CFA00
:101F700002FC40450CEA0B0B16D0484511D05045E9
:101F800052D0354CA04253D0344CA04254D0344CA3
:101F9000A04255D0334CA04256D0334CA04257D02B
:101FA000082404FA02F200E00022934518D1BA682E
:101FB00022EA0C02BA60DEF80020F6433240CEF886
:101FC0000020DEF804203240CEF80420DEF808209D
:101FD0003240CEF80820DEF80C201640CEF80C6017
:101FE0005C000322A2400468D243DE08144000EBE8
:101FF0008606046003F00704376AA4004FF00F0C54
:102000000CFA04F427EA04043462846814408460FF
:10201000446824EA05054560C46801332240102B5A
:10202000C26090D1BDE8F08F022404FA02F2BCE74E
:10203000032404FA02F2B8E7042404FA02F2B4E733
:10204000052404FA02F2B0E7062404FA02F2ACE72F
:10205000072404FA02F2A8E7000C02400010024034
:102060000014024000180240001C02400000024020
:10207000003C01400004024000080240036919428C
:1020800014BF01200020704702B909048161704724
:10209000044A5169014200D1704708B5506125F0EA
:1020A00097FD08BD003C0140002800F032812DE979
:1020B000F0410368DD0782B004462FD5AC498A6839
:1020C00002F00C02042A00F0EA808A6802F00C0296
:1020D000082A00F0E0806368B3F5803F00F0E980F3
:1020E000B3F5A02F00F05481A14D2A6822F480326C
:1020F0002A602A6822F480222A60002B40F0DE80C9
:10210000FEF73CFF064605E0FEF738FF801B64281B
:1021100000F2F2802B689B03F6D423689F0775D4E6
:102120001A0715D56369002B00F0A580914B904DDF
:1021300001221A60FEF722FF064605E0FEF71EFFA9
:10214000801B022800F2D8806B6F9B07F6D52368AE
:1021500058073BD5864A136C13F0805340F0DB8060
:102160000193136C43F080531364136C03F080539A
:102170000193019B0126804D2A68D10540F1AC8076
:10218000A368012B00F0C980052B00F00B81784D6E
:102190002A6F22F001022A672A6F22F004022A67BE
:1021A000002B40F0BF80FEF7E9FE41F28837804601
:1021B00006E0FEF7E3FEA0EB0800B84200F29C80C8
:1021C0002B6F9807F5D4002E40F0DC80A269CAB1CD
:1021D000674DA96801F00C01082948D0022A674A16
:1021E0004FF00001116000F0E780FEF7C7FE2C46BB
:1021F000054604E0FEF7C2FE401B02287CD8236897
:102200009B01F7D4002002B0BDE8F081584A9168E4
:1022100011F00C0F24D0916801F00C0108291CD09A
:10222000E368002B00F09280554B514D01221A605B
:10223000FEF7A4FE064604E0FEF7A0FE801B02287F
:102240005AD82B689807F7D52B68226923F0F80332
:1022500043EAC2032B60236862E752685602DFD468
:10226000434A126895074BD5E268012A48D00120FD
:1022700002B0BDE8F0813F4A3D4D1360FEF77EFE9F
:10228000064604E0FEF77AFE801B022834D86B6F06
:102290009F07F7D45BE74A6850027FF51CAF344ACA
:1022A000126891037FF53AAF6268002A7FF436AF77
:1022B000DDE72F4A136843F480331360FEF75EFEB8
:1022C0002B4D064604E0FEF759FE801B642813D808
:1022D0002B689A03F7D520E72A6842F480722A60B7
:1022E000FEF74CFE07462B68DA053FF549AFFEF7CF
:1022F00045FEC01B0228F6D9032002B0BDE8F081DC
:102300001B4920690A6822F0F80242EAC0020A600A
:1023100006E70120704700262DE7154A136F43F0AA
:1023200001031367FEF72AFE114D804641F28837FC
:1023300005E0FEF723FEA0EB0800B842DCD82B6FC7
:102340009B07F6D5002E3FF441AF1BE00C4A084D29
:102350001360FEF713FE064604E0FEF70FFE801B37
:102360000228C9D82B689907F7D42368D8E600BF9C
:1023700000380240800E4742007000406000474233
:1023800000004742234A136C23F0805313641DE777
:10239000204B1A6842F480221A601A6842F4803294
:1023A0001A608BE71B4B1A6F42F004021A671A6F10
:1023B00042F001021A67B5E7FEF7E0FD064604E0C9
:1023C000FEF7DCFD801B022896D82B689901F7D414
:1023D000D4E90736D4E90902E16A0E4C334343EAF3
:1023E0008013520843EA0163013A0B4943EA02436E
:1023F00001226B600A60FEF7C1FD054605E0FEF7AD
:10240000BDFD401B02283FF677AF23689A01F6D541
:10241000F8E600BF0038024060004742174908B59F
:102420008B6803F00C03042B1BD0082B17D14A68D0
:102430004B6813F4800302F03F0214D1496810483E
:10244000C1F38811A1FB0001FEF7F2FB0B4B5B68A7
:10245000C3F3014301335B00B0FBF3F008BD084850
:1024600008BD084808BD4B680648C3F38813A3FBA2
:1024700000010023FEF7DCFBE8E700BF0038024064
:102480000024F400001BB70060B1484A136803F051
:102490000F038B4208D2CBB21370136803F00F0303
:1024A0008B4201D00120704703682DE9F0419D0760
:1024B00014D55C0704D53E4CA26842F4E052A260F9
:1024C0001A0704D53A4CA26842F46042A260384C24
:1024D0008568A26822F0F0022A43A260DF07044662
:1024E0000D4622D54268012A56D0931E012B304B4F
:1024F0001B6858D9990725D52D4EB36823F00303DF
:102500001343B360FEF73AFD41F28837804605E099
:10251000FEF734FDA0EB0800B84242D8B368626809
:1025200003F00C03B3EB820FF2D1204A136803F0DF
:102530000F03AB4209D9EBB21370136803F00F031A
:10254000AB4202D00120BDE8F08123685A0706D5CE
:102550001749E0688A6822F4E05202438A601B0748
:1025600011D4FFF75BFF124B12499B68124AC3F369
:102570000313CB5C20FA03F30020136025F0EAFE7E
:102580000020BDE8F0810A4A2169936823F4604382
:1025900043EAC1039360E4E7054B1B689E03ABD499
:1025A000D0E70320EDE79801A6D4CBE7003C02403A
:1025B00000380240641A050840020020044B054A16
:1025C0009B680549C3F382230868D35CD8407047F1
:1025D00000380240741A050840020020044B054AE6
:1025E0009B680549C3F342330868D35CD840704701
:1025F00000380240741A0508400200200E4B0F22DA
:1026000002609A6802F0030242609A6802F0F002E7
:1026100082609A6802F4E052C2609B68DB0810B4E2
:1026200003F4E053054C036123685DF8044B03F0A9
:102630000F030B60704700BF00380240003C0240AF
:102640002DE9F04107460D46164698463C6801E0E4
:10265000731C06D1A06835EA0003F9D00020BDE85C
:10266000F081FEF78BFCA0EB08008642EED8D7E99C
:1026700000315A68B1F5827F22F0E0025A6014D02E
:10268000BA6AB2F5005F07D00122002387F8512013
:1026900087F850300320E2E71A6822F400521A60EB
:1026A0001A6842F400521A60EEE7BA68B2F5004FB9
:1026B00002D0B2F5806FE3D11A6822F040021A60AE
:1026C000DEE700BF164B30B51B68164DA5FB035364
:1026D0005B0D4FF47A7505FB03F3456883B0B5F5E0
:1026E000827F0446019307D10CE0019B2268013BE5
:1026F000019393681B0602D5019B002BF5D10020A6
:1027000003B030BD13460A468021FFF799FF002829
:10271000F5D0636D43F0200363650320F0E700BF4D
:1027200040020020819F5E162DE9F043044683B0ED
:10273000012084F85000914698460F460A9DFEF706
:102740001DFC94F851306268DBB2012B064611D0B3
:10275000B2F5827F09D002200122002384F85120A3
:1027600084F8503003B0BDE8F083A1680029F2D1AD
:10277000042BF0D1002F64D0B9F1000F61D0B8F173
:10278000000F5ED094F851302168C4F83890042BC3
:102790001CBF052384F8513000236365A4F83E80F4
:1027A000A4F836800868A4F83C8040062763A4F8A3
:1027B0003480C4E9103346D5E368B3F5006F56D0D2
:1027C000002A45D13B780B73E38E226B013B9BB211
:1027D0000132E38622630127E38E9BB21BB9E38FAC
:1027E0009BB2002B38D023689A6891070FD5E28EF0
:1027F00092B262B15FB1226B12781A73E28E216BD2
:102800002368013A92B20131E286216300279A6877
:10281000D2070DD5E28F92B252B1A26BDB68137072
:10282000E38FA26B013B9BB20132E387A2630127D6
:10283000FEF7A4FB801B8542CED86B1CCCD00320B6
:102840008AE7012088E70B6843F040030B60B3E799
:10285000B8F1010FBFD1B5E7324629462046FFF750
:1028600031FF002843D020236365012074E7002A4C
:1028700034D0B8F1010F31D00127E38E9BB21BB9E0
:10288000E38F9BB2002BE7D023689A6891070DD5A0
:10289000E28E92B252B14FB1216B31F8022BDA6065
:1028A000E28E2163013A92B2E28600279A68D2074B
:1028B0000CD5E28F92B24AB1A26BDB6822F8023BE0
:1028C000E38FA263013B9BB2E3870127FEF756FB30
:1028D000801BA842D1D3681CCFD0B0E737F8023BA9
:1028E000CB60E38E2763013B9BB2E386C4E7A3681A
:1028F000002B7FF431AF23680190DA6801929B6866
:102900000193019B28E700BF00283BD090F851209D
:10291000002370B502F0FF010446836262B31846DB
:10292000D4E90135D4E903212B4313436269E569F6
:10293000266A0B431343A26921682B43022584F8BE
:102940005150334302F400750E682B43120C656A34
:1029500002F0040203432A4326F040060E600B6097
:102960004A60CB69002223F400630125CB61104645
:10297000626584F8515070BD80F8501025F076FBE8
:10298000A06ACDE7012070472DE9F04190F8504052
:10299000012C82B073D01D46012380F850300446CC
:1029A00017468846FEF7EAFA064694F85100C0B288
:1029B000012809D002200122002384F8512084F844
:1029C000503002B0BDE8F081B8F1000FF3D0002F15
:1029D000F1D0A268C4F8308000230321B2F5004F83
:1029E00084F85110A3636365A387C4E91033E786B5
:1029F000A786E387236803D11A6842F480421A60ED
:102A00001A6852063FD5E2686168B2F5006F4BD094
:102A100000293DD198F800201A73E38E226B013B08
:102A20009BB20132E3862263E38E9BB28BB12368B3
:102A30009A6892072FD5226B12781A73E38E216B56
:102A4000013B9BB2E386E38E01319BB22163002BF5
:102A5000EDD1324629462046FFF734FE08B1202347
:102A60006365A36833B922680193D36801939368BF
:102A70000193019B606D003018BF01209BE702208D
:102A800002B0BDE8F0811A6842F040021A60BAE76D
:102A9000012FC9D1BEE7FEF771FA801BA842C3D34C
:102AA0006B1CC1D0032086E711B3012F20D0E38E29
:102AB0009BB2002BCDD023689A68900710D5226B6B
:102AC00032F8021BD960E38E2263013B9BB2E3869E
:102AD000E38E9BB2002BBCD023689A689007EED49B
:102AE000FEF74CFA801BA842E1D3691CDFD0D9E77E
:102AF000414631F8022BDA60E38E2163013B9BB241
:102B0000E386D4E710B490F85040012C03D05DF870
:102B1000044BFFF709BE02205DF8044B704700BF6D
:102B200038B390F8493070B5154604460E4603F0A8
:102B3000FF02CBB104F10801206800F005FF314627
:102B4000A268206800F02CFF2946236BD4E901021B
:102B500000F046FFA168226852F8213043F00103DB
:102B600042F82130002070BD80F8482025F0A6FBF7
:102B7000E0E70120704700BFF0B4046A8F680E6878
:102B8000144D24F001040462036A4468826923F04E
:102B9000020322F07302A84243EA070342EA060254
:102BA0000AD005F58065A84206D049684460826174
:102BB000F0BC416303627047CD6823F008032B43E8
:102BC000D1E9055624F44074354323F004032C4323
:102BD000EBE700BF00000140F0B4046A8F680E68A4
:102BE000154D24F480740462036A4468C26923F4B6
:102BF000007322F07302A84243EA072342EA060266
:102C00000AD005F58065A84206D049684460C261D3
:102C1000F0BCC16303627047CD6823F4006343EAEC
:102C20000523D1E9055624F44054354323F4806349
:102C300044EA0514E9E700BF00000140F0B4046A6B
:102C40008F680E68104D24F480540462036A44684F
:102C5000C26923F4005322F4E642A84243EA073350
:102C600042EA06220AD005F58065A84206D04968E6
:102C70004460C261F0BC0164036270474D6924F492
:102C8000804444EA8514F2E7000001400368DA68F2
:102C900042F00102DA609A6802F00702062A03D0C5
:102CA0001A6842F001021A60002070470368DA686F
:102CB00022F00102DA60196A41F21112114208D1C0
:102CC000196A40F24442114203D11A6822F001020B
:102CD0001A600020704700BF03680122186A01F0E3
:102CE0001F0102FA01F120EA010010B418621A6A09
:102CF0000C4C1143A34219620FD00B4A93420CD0E3
:102D00009A6802F00702062A03D01A6842F001020C
:102D10001A6000205DF8044B70475A6C42F4004280
:102D20005A64EDE70000014000040140704700BF15
:102D3000FFF7D2BF90F83C30012B5AD00222036833
:102D4000F0B480F83D209A680C6822F47F4222F0AB
:102D500077020125402C80F83C509A6074D04AD903
:102D6000602C2DD056D9702C1AD0B4F5005F0ED13E
:102D7000D1E90152CC6899682A4342EA042221F43D
:102D80007F410A439A609A6842F480429A60002325
:102D9000012280F83D2080F83C30F0BC1846704796
:102DA000D1E90152CC6899682A4342EA042221F40D
:102DB0007F410A439A609A6842F077029A60E6E798
:102DC0001C6A4D68CE6824F010041C6299691A6A66
:102DD00021F4704122F0A00242EA051241EA0631D4
:102DE00099611A629A6822F0700242F067029A6052
:102DF000CDE702207047102C04D03DD9202C01D003
:102E0000302CC4D19A6844F0070422F070021443B5
:102E10009C60BCE7502CBAD11D6A1E6A4C68CF6812
:102E200026F001061E629A6925F00A0122F0F002DE
:102E300042EA071221439A6119629A6822F07002ED
:102E400042F057029A60A2E71D6A1E6A4C68CF687A
:102E500026F001061E629A6925F00A0122F0F002AE
:102E600042EA071221439A6119629A6822F07002BD
:102E700042F047029A608AE7002CC3D087E700BF80
:102E8000704700BF704700BF704700BF704700BF6A
:102E900003681A69910710B5044602D5DA689207EB
:102EA0005FD41A69500702D5DA68510746D41A6907
:102EB000120702D5DA6810072ED41A69D20602D595
:102EC000DA68D00618D41A69D10702D5DA68D207B1
:102ED0005DD41A69100602D5DA6811065FD41A6942
:102EE000520602D5DA68500661D41A69910602D5F5
:102EF000DA68920643D410BD6FF010021A61DB69E4
:102F0000082213F4407F2277204664D0FFF7BAFFEF
:102F1000002223682277D6E76FF008021A61DB6986
:102F2000042299072277204652D1FFF7A9FF2046B5
:102F3000FFF7AAFF002223682277BEE76FF00402A2
:102F40001A619B69022213F4407F227720463CD10C
:102F5000FFF796FF2046FFF797FF002223682277AE
:102F6000A5E76FF002021A619B6901229B070277B5
:102F700025D0FFF787FF00222368227791E76FF0C3
:102F8000200220461A61BDE8104000F0A5B96FF09C
:102F900001021A61204624F033FE236899E76FF09E
:102FA00080021A61204600F099F9236897E76FF0D4
:102FB00040021A612046FFF769FF236895E7FFF793
:102FC0005FFF2046FFF760FFD5E7FFF75BFFC4E731
:102FD000FFF758FFAEE7FFF753FF2046FFF754FF18
:102FE00096E700BFF0B4364E03684D698C680A68F6
:102FF000B04255D0B0F1804F29D0A6F57C46B04202
:1030000037D006F58066B04233D006F58066B04210
:103010002FD006F57846B0422BD006F57056B04258
:1030200013D006F58066B0420FD006F58066B04238
:103030000BD0A6F59836B04207D006F58066B042B0
:1030400003D006F58066B04209D1C96804E04E6835
:10305000C96823F07003334323F440730B4323F018
:1030600080032B430360C462826201234361F0BC8E
:1030700070474E68134F23F070033343CE6823F438
:103080004073334323F080032B43B8420360C46290
:103090008262EAD10B69036301234361F0BC70478C
:1030A0004F68CE6823F070033B4323F440733343EF
:1030B00023F080032B430360C4628262EAE700BF0F
:1030C0000000014000040140B8B190F83D3010B557
:1030D00003F0FF0204465BB1022384F83D30206810
:1030E000211DFFF77FFF012384F83D30002010BD34
:1030F00080F83C2024F0F0FFEEE70120704700BF8D
:10310000B8B190F83D3010B503F0FF0204465BB152
:10311000022384F83D302068211DFFF763FF01235F
:1031200084F83D30002010BD80F83C20FFF7FEFD04
:10313000EEE70120704700BFF0B4046A8F680E68A4
:10314000154D24F010040462036A4468826923F078
:10315000200322F4E642A84243EA071342EA062289
:103160000AD005F58065A84206D0496844608261AE
:10317000F0BC816303627047CD6823F0800343EAAB
:103180000513D1E9055624F44064354323F0400388
:1031900044EA8504E9E700BF0000014038B590F833
:1031A0003C30012B74D00D4602230121044680F8E7
:1031B0003C1080F83D300C2A19D8DFE802F00718DF
:1031C000181838181818511818181F0029460068C0
:1031D000FFF7D2FC23682869996941F008019961D9
:1031E000996921F0040199619A6902439A61012366
:1031F000002084F83D3084F83C0038BD2946006842
:10320000FFF71CFD23682869D96941F40061D96181
:10321000D96921F48061D961DA6942EA0022DA6170
:103220000020012384F83D3084F83C00E5E729467E
:103230000068FFF781FF23682869996941F40061FC
:103240009961996921F4806199619A6942EA002241
:103250009A610020012384F83D3084F83C00CCE7DB
:1032600029460068FFF7B8FC23682869D96941F04E
:103270000801D961D96921F00401D961DA690243F1
:10328000DA610020012384F83D3084F83C00B4E783
:10329000022038BD90F83C20012A1AD070B40222D6
:1032A000046880F83D20D1E9006503466068A268A3
:1032B00020F0700122F0800231432A4301260025CC
:1032C00061602846A26083F83D6083F83C5070BC82
:1032D00070470220704700BF704700BF704700BFB3
:1032E000026811692DE9F843C568836821F44051EB
:1032F0000446294300691161D16865690343E069A7
:1033000021F416412B4321F00C0103430B43D360FE
:103310005369A16923F440730B43B0F5004F536127
:103320009B4B00F09A809A4259D003F580639A42F1
:1033300055D0FFF743F9974F636800EB800000EB2F
:1033400080009B00B0FBF3F3A7FB03235B091D0187
:10335000FFF734F9666800EB800000EB8000B600F0
:10336000B0FBF6F6FFF72AF9636800EB800000EB8C
:1033700080009B00B0FBF3F3A7FB03235B094FF036
:10338000640909FB13631B013233A7FB03235B09A9
:1033900003F0F006FFF712F9626800EB800000EB23
:1033A00080009300B0FBF3F8FFF708F9D4E900239D
:1033B00000EB80009B0000EB8000B0FBF3F0A7FB6C
:1033C0000030400909FB10831B013233A7FB0313B4
:1033D000C3F3431333432B449360BDE8F883FFF7F3
:1033E000FDF86C4F636800EB800000EB80009B00F1
:1033F000B0FBF3F3A7FB03235B091D01FFF7EEF816
:10340000666800EB800000EB8000B600B0FBF6F6CB
:10341000FFF7E4F8636800EB800000EB80009B009E
:10342000B0FBF3F3A7FB03234FF064095B0909FB2F
:1034300013631B013233A7FB03235B0903F0F00680
:10344000FFF7CCF8626800EB8000930000EB80008F
:10345000B0FBF3F8FFF7C2F8A8E79A4259D003F59A
:1034600080639A4255D0FFF7A9F84A4F636800EB92
:10347000800000EB80005B00B0FBF3F3A7FB0323AD
:103480005B091E01FFF79AF8656800EB800000EB0E
:1034900080006D00B0FBF5F5FFF790F8636800EB76
:1034A000800000EB80005B00B0FBF3F3A7FB03237D
:1034B0005B094FF0640909FB1353DB003233A7FBB0
:1034C00003231B0903F4F875FFF778F8626800EB33
:1034D000800000EB80005300B0FBF3F8FFF76EF8BC
:1034E000D4E9002300EB800000EB80005B00B0FB20
:1034F000F3F3A7FB03135B0909FB1383DB003233F0
:10350000A7FB0313C3F3421333442B449360BDE87A
:10351000F883FFF763F81F4F636800EB800000EB50
:1035200080005B00B0FBF3F3A7FB03235B091E01E4
:10353000FFF754F8656800EB800000EB80006D0039
:10354000B0FBF5F5FFF74AF8636800EB800000EB8D
:1035500080005B00B0FBF3F3A7FB03234FF064098B
:103560005B0909FB1353DB003233A7FB03231B0961
:1035700003F4F875FFF732F8626800EB800053003F
:1035800000EB8000B0FBF3F8FFF728F8A8E700BFD6
:10359000001001401F85EB512DE9F04107460E4612
:1035A00090461D463C6801E06B1C06D1206836EA57
:1035B0000003F9D10020BDE8F08135B1FDF7DEFC54
:1035C000A0EB08008542EDD23C68E36823F4D07399
:1035D000E3606369202223F001030021636103207B
:1035E00087F8392087F8381087F83A20E3E700BFDA
:1035F00060B338B590F83930044603F0FF0203B3E6
:103600002268242384F83930D36823F40053D3602C
:103610002046FFF765FE23681A6922F490421A617A
:103620005A6922F02A025A61DA680025202142F400
:103630000052DA602846E56384F8391084F83A10BD
:1036400038BD80F8382024F07DFDD9E7012070478F
:10365000A8B10268242310B580F83930D36823F468
:1036600000530446D36024F0F5FD0023E36384F89F
:10367000383084F83930184684F83A3010BD0120CB
:10368000704700BF2DE9F0430F4690F8391020290C
:1036900083B02DD187B3019272B3984690F8383039
:1036A000012B044624D00023C3630121212380F889
:1036B000381080F83930FDF761FC019AA284814608
:1036C000E284E58CADB243464A468021204655B39C
:1036D000E58CA668013DADB2B6F5805FE5840FD0FC
:1036E000FFF75AFFE8B923683A785A600137E8E7EC
:1036F000022003B0BDE8F083012003B0BDE8F083F1
:1037000043464A4680212046FFF746FF48B93B889A
:1037100021682269C3F308034B60002AE6D102370F
:10372000CFE70320E5E74021FFF736FF0028F8D177
:10373000202384F8380084F83930DAE7704700BF76
:10374000704700BF10B584680169836A0268B4F5E8
:10375000805F20D05C1C52688462C9B91A70C38D26
:10376000013B9BB2C3858BB90268D16821F020016F
:10377000D160D16821F48071D1605169202421F099
:103780000101516180F83A40FFF7DAFF002010BDD7
:1037900002F07F02E2E7526829B9C2F3080223F877
:1037A000022B8362DBE7D2B223F8012B8362D6E7D8
:1037B000704700BF03681A6870B51607DD6859695D
:1037C00004464AD011F001011E464FD0D00705D55E
:1037D000EB0503D5E36B43F00103E363500702F00D
:1037E000020375D561B1E16B41F00201E16302F0C2
:1037F0000801002B71D119B1E36B43F00803E363B7
:10380000E36B002B31D0900601D5A90671D4756900
:10381000E26B120702D415F0400577D0F36823F469
:103820009073F3607369202223F00103736184F8BD
:103830003A2073695B0658D57369606B23F04003C7
:103840007361002851D03A4B0365FDF7D1FF60B199
:10385000606BBDE87040036D1847910609D5AE0650
:1038600007D590F83A30222B4CD070BD15F4907FDC
:10387000ACD116060ED45106F7D56A06F5D5DA682E
:10388000202122F04002DA60204684F83910FFF748
:1038900055FF70BD2806EED594F83920212AE4D1D1
:1038A000A168226AB1F5805F35D0511C216212787F
:1038B0005A60E28C013A92B2E284002AD5D1DA68E9
:1038C00022F08002DA60DA6842F04002DA6070BD0D
:1038D00043B1002994D002F00801E36B43F00403E4
:1038E000E36388E713078BD585E72046FFF760FF82
:1038F00070BD94F83A30222B89D12046FFF722FF81
:10390000266884E7BDE87040FFF71CBF2046FFF73C
:103910004FFFE56370BD11882069C1F3080159604C
:1039200010B902322262C4E701322262C1E700BF4D
:103930003539000808B5836B0022DA851846DA8429
:10394000FFF736FF08BD00BFD1E90132F0B4D1E97D
:103950000365134333434C69CF6B2B43D1E90665B1
:1039600023433343D1E908642B433343D1E90A6548
:1039700023430C6833432B430E6B50F82450074904
:103980003B43334329400B43082A08BF43F040031D
:1039900040F824300020F0BC704700BF8000F0FFEA
:1039A00070B400EB82028C690B68D1E901062343F5
:1039B00043EA0013D1E903504C69516843EA0623F6
:1039C00043EA0543013843EA0053023C43EA0463F7
:1039D00001F040410B430020536070BC704700BFB2
:1039E000B3F5804F05D06FF0704340F822300020CF
:1039F000704770B40B688D694C682B43D1E9026540
:103A000043EA0413064950F8224043EA062343EAF6
:103A1000054321400B4340F8223070BC0020704722
:103A20000000F0CF10B502F003F920B1D0E900306A
:103A3000BDE81040184710BD38B5EFF30583A3B9B2
:103A4000EFF310838BB90A4D2C68022C07D04CB9C8
:103A5000084802F081FB012320462B6038BDEFF3BC
:103A6000118313B94FF0FF3038BD6FF0050038BD3A
:103A7000300B002004000020EFF30583C3B910B51C
:103A8000EFF310848CB90C4B1A68022A07D0012A74
:103A900008D102221A6001F07DF9204610BDEFF333
:103AA000118313B94FF0FF3010BD6FF0050010BD4A
:103AB0006FF00500704700BF300B0020F0B587B0F5
:103AC00000240594EFF30585002D39D1EFF3108321
:103AD000002B3CD1274B1B68022B34D0002836D05A
:103AE0000B4600218DF81310F2B11168002935D072
:103AF00094697CB3651E372D22D85568ED071FD415
:103B000055694DBB4FF40077D2E9026C4EB3BCF15E
:103B1000630F1CD91269D2B1CDB1CDE90126009451
:103B20003A4601F0CBF80CE04FF4007218240DF186
:103B3000130105ADCDE9004501F0F8F8012806D0E4
:103B4000002007B0F0BDEFF31183002BC6D005981D
:103B500007B0F0BD1824D0E7AF08D5E70DF1130189
:103B6000C6E7BCF1000FF2D11269002AEFD1BAB258
:103B7000DFE700BF300B002050B3002928DB30B551
:103B800085B04FF0FF3304460293EFF305834BB942
:103B9000EFF3108333B91B4B1B68022B24D1EFF3D7
:103BA00011830BB304AB002543F8045D012200939D
:103BB00020462B4601F058FD02AB009520462A46D0
:103BC000294601F051FD039B2BB9029805B030BD89
:103BD0006FF0030070470C4B4FF080521A60BFF338
:103BE0004F8FBFF36F8FF0E700230122204601F0D3
:103BF000D3FC00222046114602AB01F0CDFC029816
:103C000005B030BD300B002004ED00E070B582B08F
:103C1000EFF30583E3B9EFF31083CBB9184B1B68BF
:103C2000022B11D0002825DB044601F07BFB00228B
:103C3000114601AB064601F0AFFC01280DD04FF054
:103C4000FF35284602B070BDEFF31183002BE9D099
:103C50006FF00505284602B070BD019D25EA0404F9
:103C60003046214600230322019401F095FC0128EF
:103C7000F0D0E4E76FF00305284602B070BD00BF46
:103C8000300B00202DE9F04F83B0EFF305836BBBC1
:103C9000EFF3108454BB2A4B1B68022B22D0002860
:103CA0004BDB11F0020F924689460CBF80464FF065
:103CB0000008074601F0B8F8BAF1000F834609F092
:103CC00001090CBF6FF002066FF0010655462B4646
:103CD00001AA4146002001F019FC01280CD038B19E
:103CE0003446F4E7EFF31183002BD8D06FF00506CC
:103CF000304603B0BDE8F08F019B3C401C4307EA0F
:103D00000403B9F1000F12D09F4212D0BAF1000F94
:103D100005D16FF00206304603B0BDE8F08F01F028
:103D200083F8A0EB0B00854205D32D1ACFE7002BBB
:103D3000ECD02646DCE70025C9E76FF00306D7E79D
:103D4000300B002008B5EFF3058383B9EFF3108340
:103D50006BB9084B1B68022B05D000B908BD01F0F8
:103D60008DF9002008BDEFF31183002BF5D06FF023
:103D7000050008BD300B0020F0B583B0EFF30584DB
:103D8000E4B9EFF31084CCB91A4C2468022C18D093
:103D9000A0B1064608201C4617460D4602F03CF925
:103DA000034658B12A1CC0E9006718BF01226CB154
:103DB000A1682068E468C9B12B2C0FD8002003B09B
:103DC000F0BDEFF31184002CE2D0F7E720460A495A
:103DD0000091012101F05EFD03B0F0BD064CCDE97C
:103DE0000041012101F07EFD03B0F0BD002CEED0BA
:103DF000E4E700BF300B0020253A0008EFF305830D
:103E0000DBB9EFF31083C3B90F4B1B68022B10D043
:103E1000B0B100B583B000230A460093042101F03D
:103E20009FFD01280CBF00206FF0020003B05DF879
:103E300004FBEFF31183002BEAD06FF0050070470D
:103E40006FF00300704700BF300B002070B5EFF338
:103E5000058313BBEFF31083FBB9244B1B68022BC4
:103E60001ED0044618B3436803F001061B0714D4A0
:103E7000D0E9021381B1472B0FD916B3042000F00B
:103E800021FB05464DB12168284600F073FD2EB197
:103E900045F00105284670BDC3B10025284670BD18
:103EA000EFF31183002BF8D104460028DBD1012069
:103EB00000F03EFB05460028EFD0214600F05AFDF9
:103EC000ECE7012000F0FEFA0546DBE74EB10420E6
:103ED00000F02EFB05460028DFD0216800F04AFDE7
:103EE000D6E7012000F024FB0546CBE7300B00208D
:103EF00020F0010200F00103EFF3058000BBEFF3B7
:103F00001080E8B911480068022815D0DAB110B560
:103F100010460C4653B900F03DFC01280AD0002C95
:103F200014BF6FF001006FF0020010BD00F002FD41
:103F30000128F4D1002010BDEFF311800028E5D056
:103F40006FF0050070476FF003007047300B0020E2
:103F5000EFF3058139BBEFF3108121BB13490968E9
:103F6000022908B520F0010200F0010311D0BAB116
:103F700010463BB91A46194600F0E6F9012805D16A
:103F8000002008BD00F0B4FA0128F9D06FF002005B
:103F900008BDEFF311810029E9D06FF0050008BDDD
:103FA0006FF0030008BD6FF005007047300B002074
:103FB000054B036010B44FF40073044C0C601360A5
:103FC0005DF8044B704700BFCC0A0020CC020020F3
:103FD000054B036010B44FF40063044C0C60136095
:103FE0005DF8044B704700BF342B0020340B0020D9
:103FF00000F108034FF0FF3100228160026043604E
:10400000C0E90333704700BF00230361704700BF5E
:104010004368026810B49C688C609C684B600132F5
:10402000616099605DF8044B08610260704700BFF1
:1040300030B40D686B1C11D000F1080200E01A4684
:1040400053681C68AC42FAD904684B60013499602B
:104050008A6051600861046030BC7047026953682F
:10406000F2E700BF42688168036910B4916081681B
:104070005C684A601A68844208BF5960013A0021AE
:1040800001611A6018685DF8044B704770B51646F8
:10409000026C856B044632B906680135002E2DD0BE
:1040A0000020A56370BD86B9806824F049FBA36831
:1040B000216C62680B44934205F10105A360EFD3C4
:1040C0002368A3603046A56370BDC06824F038FB48
:1040D000226CE3682168524213448B42E36002D2AF
:1040E00063681A44E260022E03D001350020A56304
:1040F00070BD002DD4D101250020D2E7406801F029
:1041000069F96660CDE700BF026C72B10B46C16809
:1041100010B444681144A142C16024BF0168C16069
:104120005DF8044B184624F00BBB704770B505468C
:1041300001F0F8FD95F8454064B2002C16DD6B6A7D
:10414000A3B105F1240605E0013CE3B25CB26BB11A
:104150006B6A5BB1304601F049F80028F4D0013CAD
:1041600001F0DAF8E3B25CB2002BF1D1FF2385F85D
:10417000453001F0F9FD01F0D5FD95F8444064B2F9
:10418000002C16DD2B69A3B105F1100605E0013CFA
:10419000E3B25CB26BB12B695BB1304601F026F83B
:1041A0000028F4D0013C01F0B7F8E3B25CB2002B78
:1041B000F1D1FF2385F84430BDE8704001F0D4BD53
:1041C00038B5E0B104460D4601F0ACFDD4E90F135B
:1041D0002268A26001FB03F1CB1A134400200A44B9
:1041E000FF21A063E36084F84410626084F8451006
:1041F00075B92369ABB901F0B7FD012038BD4FF0A7
:10420000400383F31188BFF36F8FBFF34F8FFEE737
:1042100004F11000FFF7ECFE04F12400FFF7E8FEC4
:10422000E9E704F1100000F0E1FF0028E3D0044BBF
:104230004FF080521A60BFF34F8FBFF36F8FDAE7F2
:1042400004ED00E040B94FF0400383F31188BFF361
:104250006F8FBFF34F8FFEE78BB110B582B072B393
:10426000B1B148240194019C482C1AD04FF040036E
:1042700083F31188BFF36F8FBFF34F8FFEE74FF0CB
:10428000400383F31188BFF36F8FBFF34F8FFEE7B7
:104290004FF0400383F31188BFF36F8FBFF34F8F4D
:1042A000FEE701241A6083F84640C3E90F010121AB
:1042B00018461C46FFF784FF204602B010BD41B1EE
:1042C0004FF0400383F31188BFF36F8FBFF34F8F1D
:1042D000FEE748220192019A482AC7D101221B60B9
:1042E00083F84620E1E700BF40B94FF0400383F375
:1042F0001188BFF36F8FBFF34F8FFEE770B506468F
:104300000D4669B101FB00F0483001F085FE04461E
:10431000B0B1002200F1480380F84620036007E0B6
:10432000482001F079FE044650B184F846502460DC
:10433000C4E90F6501212046FFF742FF204670BD0A
:104340000024204670BD00BF2DE9F04784B00192E3
:10435000002800F09980002900F08980022B0BD101
:10436000C26B012A08D04FF0400383F31188BFF3DA
:104370006F8FBFF34F8FFEE704461F46894600F05C
:10438000D7FF50B9019E4EB14FF0400383F311881F
:10439000BFF36F8FBFF34F8FFEE70026DFF820A13A
:1043A0004FF0000807E001F0DFFC2046FFF7BEFEFB
:1043B00000F0E2FD012601F0B5FCA26BE36B9A422E
:1043C0003FD3022F3DD0019D002D66D016B902A823
:1043D00000F050FF01F0C8FC00F01EFD01F0A2FC4F
:1043E00094F84430FF2B08BF84F8448094F845309B
:1043F000FF2B08BF84F8458001F0B6FC01A902A894
:1044000000F044FF002853D101F08CFCA26BE36B59
:104410009A42C8D101F0A8FC019904F1100000F003
:10442000ABFE2046FFF782FE00F0A6FD0028C1D1BA
:104430004FF08053CAF80030BFF34F8FBFF36F8F38
:10444000B8E73A4649462046FFF720FE636A43BB79
:1044500038B11B4B4FF080521A60BFF34F8FBFF340
:104460006F8F01F081FC012004B0BDE8F087026C81
:10447000002A3FF473AF4FF0400383F31188BFF37A
:104480006F8FBFF34F8FFEE74FF0400383F3118828
:10449000BFF36F8FBFF34F8FFEE701F065FC284637
:1044A000E2E704F1240000F0A1FE0028D1D1D8E712
:1044B0002046FFF73BFE00F05FFD0020D4E700BF81
:1044C00004ED00E010B582B0002200900B46012000
:1044D0001146FFF7B7FE044638B10023C0E90033A8
:1044E000C3601A461946FFF72FFF204602B010BDE1
:1044F00038B538B14568044600F014FF85420AD04B
:10450000002038BD4FF0400383F31188BFF36F8F55
:10451000BFF34F8FFEE7E368013BE3600BB101207F
:1045200038BD20461A461946FFF70EFF012038BD58
:1045300010B5024600210120FFF7D6FE044638B12F
:104540000023C0E90033C3601A461946FFF7FCFE9A
:10455000204610BD2DE9F843002835D041B3022B89
:104560000BD1C46B012C08D04FF0400383F31188AA
:10457000BFF36F8FBFF34F8FFEE704461F46904691
:10458000894601F0F3FCEFF311864FF0400383F30B
:104590001188BFF36F8FBFF34F8FA26BE36B9A420B
:1045A0001BD3022F19D0002086F31188BDE8F883B1
:1045B000046C002CD3D04FF0400383F31188BFF379
:1045C0006F8FBFF34F8FFEE74FF0400383F31188E7
:1045D000BFF36F8FBFF34F8FFEE794F845503A4615
:1045E00049466DB22046FFF751FD6B1C08D06B1C8D
:1045F0005BB284F84530012086F31188BDE8F8836A
:10460000636A002BF7D004F1240000F0EFFD0028CE
:10461000F1D0B8F1000FEED00120C8F80000C3E7D8
:104620002DE9F04385B00192002800F0998000291F
:1046300000F0898004460F4600F07AFE50B9019BD5
:1046400043B14FF0400383F31188BFF36F8FBFF383
:104650004F8FFEE701F066FBA56B002D48D1019B53
:10466000002B6AD002A800F005FEDFF824912E4648
:1046700004F1240812E001F055FBA36B002B46D097
:1046800001F072FB2046FFF751FD00F075FC01F0D0
:1046900049FBA56B65BB019B002B4ED001F064FB71
:1046A00000F0BAFB01F03EFB94F84430FF2B08BF4A
:1046B00084F8446094F84530FF2B08BF84F84560C7
:1046C00001F052FB01A902A800F0E0FD0028D2D0C1
:1046D0002046FFF72BFD00F04FFC01F023FBA36BFE
:1046E0005BB301F041FB01F01DFBA56B002DD2D0A7
:1046F00039462046013DFFF707FDA5632369002BDE
:1047000037D101F031FB012005B0BDE8F08301F0A5
:104710002BFB0199404600F02FFD2046FFF706FDD8
:1047200000F02AFC0028DED14FF08053C9F8003099
:10473000BFF34F8FBFF36F8FD5E701F015FB00205C
:1047400005B0BDE8F083036C002B3FF473AF4FF06E
:10475000400383F31188BFF36F8FBFF34F8FFEE7E2
:104760004FF0400383F31188BFF36F8FBFF34F8F78
:10477000FEE704F1100000F039FD0028C1D0044B21
:104780004FF080521A60BFF34F8FBFF36F8FB8E7BF
:1047900004ED00E02DE9F04184B0019150B1056CC9
:1047A0008DB14FF0400383F31188BFF36F8FBFF3D8
:1047B0004F8FFEE74FF0400383F31188BFF36F8FF5
:1047C000BFF34F8FFEE7044600F0B2FD50B9019DE4
:1047D00045B14FF0400383F31188BFF36F8FBFF3F0
:1047E0004F8FFEE72E46DFF8488100270CE001F0EE
:1047F00099FAA36B002B39D001F0B6FA2046FFF7E7
:1048000095FC00F0B9FB012601F08CFAA36B002B9C
:1048100071D1019B002B61D016B902A800F02AFDCE
:1048200001F0A2FA00F0F8FA01F07CFA94F84430B2
:10483000FF2B08BF84F8447094F84530FF2B08BF65
:1048400084F8457001F090FA01A902A800F01EFD5D
:104850000028CCD02046FFF769FC00F08DFB01F06A
:1048600061FAA36BDBB101F07FFACCE701F07CFACF
:104870002368DBB1019904F1240000F07DFC20469F
:10488000FFF754FC00F078FB0028BCD14FF08053B8
:10489000C8F80030BFF34F8FBFF36F8FB3E701F05D
:1048A00063FA65B9284604B0BDE8F08101F03AFA30
:1048B000606800F04DFD054601F056FADAE701F0B8
:1048C00031FA616A19B1236B1968C1F13801606866
:1048D00000F0C2FD002501F047FAE3E745B14FF0D3
:1048E000400383F31188BFF36F8FBFF34F8FFEE751
:1048F00001F03AFAD6E72268013BA36312B900F04F
:10490000F9FD606023691BB901F02EFA0125C9E7A2
:1049100004F1100000F06AFC0028F5D0044B4FF0C1
:1049200080521A60BFF34F8FBFF36F8FECE700BF69
:1049300004ED00E080B170B5466804460D4600F015
:10494000F1FC864211D029462046FFF723FF10B123
:10495000E3680133E36070BD4FF0400383F31188D7
:10496000BFF36F8FBFF34F8FFEE7E3680133E36060
:10497000012070BD30B4084A002352F8334002EBE6
:10498000C30524B10133082BF7D130BC70476860F0
:1049900042F8331030BC7047ECB2012070B50446C9
:1049A0000D46164601F0BEF994F84430FF2B04BFC3
:1049B000002384F8443094F84530FF2B04BF0023D3
:1049C00084F8453001F0D0F9A36B2BB93246294663
:1049D00004F1240000F0EAFB2046BDE87040FFF738
:1049E000A5BB00BF2DE9F843054601F09BF9334A0A
:1049F000334E1368013313603368002B2FD0314CD2
:104A0000E86A236823B3304F3049314AD1F800C0F7
:104A10001368844538BF086000EB8000013307EB62
:104A20008000291D1360FFF7F3FA01F09DF9236858
:104A300063B13268EB6AD26A9A4207D2254B4FF0D3
:104A400080521A60BFF34F8FBFF36F8FBDE8F883BA
:104A500033681D4FDB6A834298BF3560D4E7356009
:104A60001368012B03D0E86A174F164CCCE7164F9A
:104A70003C4607F58C6820461434FFF7B9FA4445E4
:104A8000F9D1DFF86890DFF868800E4C4846FFF7F0
:104A9000AFFA4046FFF7ACFA0F48FFF7A9FA0F4804
:104AA000FFF7A6FA0E48FFF7A3FA0E4A0E4BC2F81C
:104AB0000090E86AC3F80080A6E700BF0430002039
:104AC000982B002060300020A42B002018300020FC
:104AD0001430002004ED00E04C300020783000203D
:104AE000643000209C2B0020A02B00201C300020D4
:104AF0003030002090F8613063B1012B14D0022BCC
:104B000014D04FF0400383F31188BFF36F8FBFF3CE
:104B10004F8FFEE710B50446006B01F0E5FA204622
:104B2000BDE8104001F0E0BA01F0DEBA704700BF06
:104B300080B5154C154E164DDFF858A0DFF858908B
:104B40004FF0805811E001F0EDF8F368DF68381D90
:104B5000FFF788FA2B68013B2B602368013B236039
:104B600001F002F93846FFF7C5FF2368002BEAD1B0
:104B7000DAF80030012BF8D9C9F80080BFF34F8F65
:104B8000BFF36F8FF1E700BF0830002078300020BE
:104B900004300020A42B002004ED00E0034A044B65
:104BA0001268D268D26852681A6070479C2B002045
:104BB000443000202DE9F0470A9D4FEA82098A46D9
:104BC0004A46A5210746286B9846DDE9084623F0AA
:104BD000C2FD2B6BA9F10409994429F007090AF1D8
:104BE000FF330AF11F0105F1330201E08B4206D0C9
:104BF00013F8010F02F8010F18780028F6D1372CAE
:104C000028BF37244FF0000AEC626C65281D85F838
:104C100053A0C5F858A0FFF7F7F9C4F1380405F11F
:104C20001800FFF7F1F9C5F85CA0AC612D6185F8BB
:104C300060A06D6242463946484601F04BF8286054
:104C400006B13560BDE8F087F8B5164B164E1C6806
:104C500033680546181D0F46FFF704FA6B1C17D082
:104C6000336864195C600BD2104B186831680431EA
:104C7000FFF7DEF90E4B1A68A24288BF1C60F8BD30
:104C80000C4B18683168BDE8F8400431FFF7D0B923
:104C9000002FE5D0316808480431BDE8F840FFF73F
:104CA000B7B900BF8C300020982B00209C2B00202F
:104CB00044300020A02B002064300020F0B587B0E5
:104CC000DDE90C650E9CBDB16CB164270497049FAF
:104CD000642F1AD04FF0400383F31188BFF36F8F16
:104CE000BFF34F8FFEE74FF0400383F31188BFF30C
:104CF0006F8FBFF34F8FFEE74FF0400383F31188B0
:104D0000BFF36F8FBFF34F8FFEE72563022705AD1B
:104D10000294009684F861700195FFF74BFF2046DE
:104D2000FFF760FE059807B0F0BD00BF2DE9F04326
:104D3000074685B0900016468846994601F06CF902
:104D400020B30546642001F067F90446B0B105635D
:104D50004FF0000C0D9D84F861C001950C9D0294EC
:104D60004B463246414638460095FFF723FF204622
:104D7000FFF738FE012005B0BDE8F083284601F0BA
:104D8000B3F94FF0FF3005B0BDE8F0834FF0FF30CE
:104D9000F1E700BF30B589B0002407AA06A905A82D
:104DA000CDE90544FFF704F905A807C82346CDE976
:104DB0000110009413491448FFF780FF00B300F07E
:104DC00037FD01280AD001301AD14FF0400383F398
:104DD0001188BFF36F8FBFF34F8FFEE74FF0400393
:104DE00083F31188BFF36F8FBFF34F8F0749084AD2
:104DF000084B4FF0FF350D6010601C6001F02EF87D
:104E000009B030BDA08B0208314B000844300020AF
:104E1000603000208C300020024A13680133136098
:104E2000704700BF10300020014B1868704700BF6A
:104E30008C3000202DE9F84F444B1B68CBB9444B14
:104E40001F6801371F600FB3424E3368BB422BD936
:104E5000DFF81C81DFF81C910024D9F80030DB6AF0
:104E600003EB83039B0058F80330022B28BF012477
:104E700004E0394A1368013313600024374B1B6880
:104E8000002B0CBF20460120BDE8F88F344D2B6865
:104E90001B68002B45D04FF0400383F31188BFF30C
:104EA0006F8FBFF34F8FFEE72D4DDFF8C480DFF823
:104EB000C49000242BE02B68DB68D3F80CA0DAF850
:104EC00004200AF1040B9742584628D3FFF7CAF88A
:104ED000DAF828200AF118000AB1FFF7C3F8214BCD
:104EE000DAF82C201B689A4288BF1E4B02EB820026
:104EF000594608EB800088BF1A60FFF789F8D9F897
:104F00000010DAF82C20CB6A9A4228BF01242B68C3
:104F10001B68002BCFD14FF0FF3333609DE7326029
:104F20009BE7114B2968114A1868286019601368BB
:104F3000013313602B681B6823B9064E4FF0FF3313
:104F4000336082E7FFF72AFE7EE700BF10300020C3
:104F50008C300020443000200C30002090300020A5
:104F60009C2B002018300020A02B0020483000206F
:104F7000A42B0020982B00202DE9F047344C236807
:104F800043B94FF0400383F31188BFF36F8FBFF332
:104F90004F8FFEE700F0C6FE2368013B23602468C4
:104FA00064BB2C4B1B684BB32B4E2C4F2C4DDFF8A6
:104FB000C490DFF8C4803B6833B3FB68DC6804F15D
:104FC000040A04F11800FFF74DF85046FFF74AF8BD
:104FD000E36A2A6803EB83009342514609EB8000A1
:104FE00088BF2B60FFF714F8D8F80030E26ADB6A5C
:104FF0009A424FF00103DED33360DCE7002400F077
:10500000B3FE2046BDE8F0873CB1164B1B681B6819
:10501000DBB9154B4FF0FF321A60144D2C683CB1D0
:105020000127FFF707FF00B13760013CF9D12C6081
:105030003368002BE2D00E4B4FF080521A60BFF362
:105040004F8FBFF36F8F0124D9E7FFF7A7FDE4E788
:105050001030002004300020903000204C30002020
:10506000183000209C2B0020443000200C30002001
:1050700004ED00E0A42B0020982B002008B598B187
:105080000E4B196841B14FF0400383F31188BFF311
:105090006F8FBFF34F8FFEE71A6801321A60FFF778
:1050A000D3FDFFF769FF38B9054B4FF080521A6006
:1050B000BFF34F8FBFF36F8F08BD00BF10300020CC
:1050C00004ED00E0274B1B68002B38D1264A70B551
:1050D000264C136023681B6B1A68B2F1A53F0BD1F5
:1050E0005A68B2F1A53F07D19A68B2F1A53F03D142
:1050F000DB68B3F1A53F04D020682168343122F089
:105100007BFD1B4D1B482A68930099188900415864
:1051100039B9C2B1013A9300991850F82110002909
:10512000F7D013449B00C618083371684968716052
:105130000344994210D0CB6823602A6070BD0A4BAB
:1051400001221A6070474FF0400383F31188BFF3C8
:105150006F8FBFF34F8FFEE7142303FB02004968F4
:105160004160E8E71030002090300020982B0020AC
:1051700018300020A42B002040B94FF0400383F3E7
:105180001188BFF36F8FBFF34F8FFEE710B5064B4B
:105190000C4619681831FEF74BFF20460121BDE887
:1051A0001040FFF751BD00BF982B002038B588B1E3
:1051B0000D4B0D46196814461831FEF729FF002CD7
:1051C00008BF2846214618BF4FF0FF30BDE83840E1
:1051D000FFF73ABD4FF0400383F31188BFF36F8FA1
:1051E000BFF34F8FFEE700BF982B002038B5C36890
:1051F000DC6824B304F118052846FEF733FF174B8B
:105200001B682BBB251D2846FEF72CFF144AE36ABA
:10521000116814488B4288BF136003EB830329464F
:1052200000EB8300FEF7F4FE0F4BE26A1B68DB6ABB
:105230009A4283BF0D4B01201860002038BD4FF00B
:10524000400383F31188BFF36F8FBFF34F8FFEE7E7
:1052500029460748FEF7DCFEE6E700BF10300020D5
:1052600018300020A42B0020982B00209030002024
:105270004C300020034A044B12681B68C0E900232D
:10528000704700BF483000208C300020F8B540B394
:10529000F1B10D46044600F045FDDFF878C02B68FB
:1052A0006768DCF800605A1CA6EB070022D018499A
:1052B0002268D1F800E0724501D0B74225D9834277
:1052C0001AD800232B60012500F04EFD2846F8BDBA
:1052D0004FF0400383F31188BFF36F8FBFF34F8FFD
:1052E000FEE74FF0400383F31188BFF36F8FBFF3E6
:1052F0004F8FFEE70025E7E70968DCF800201B1A5E
:105300002B600025C4E90012DEE70125DCE700BFC1
:10531000483000208C300020014B01221A60704779
:1053200090300020014B1868704700BF982B002078
:10533000054B1B6833B1054B1B68002B0CBF0220CB
:10534000002070470120704760300020103000209E
:1053500018B3F8B51C4CC36A2268D26A934214D2BF
:105360008269002A04DB2268D26AC2F138028261B3
:10537000164D426903EB830305EB83039A420DD07C
:105380002368DB6AC3620120F8BD2368406DDB6AD5
:1053900098422CBF00200120F8BD7047061D07462B
:1053A0003046FEF75FFE2268094BD06A1A68F86241
:1053B000904200D9186000EB800005EB8000314678
:1053C000FEF726FE0120F8BD982B0020A42B00201C
:1053D0001830002068B138B51C4B1C6884420AD0D4
:1053E0004FF0400383F31188BFF36F8FBFF34F8FEC
:1053F000FEE700207047A36D43B94FF0400383F3ED
:105400001188BFF36F8FBFF34F8FFEE7E16A626DC4
:10541000013B9142A36500D00BB1002038BD251D92
:105420002846FEF71FFE0A4A636D1168E3628B424D
:10543000C3F1380088BF1360064AA061142000FB46
:1054400003202946FEF7E4FD012038BD982B0020FB
:1054500018300020A42B0020A8B170B5846D44B989
:105460004FF0400383F31188BFF36F8FBFF34F8F6B
:10547000FEE7436DC26A8B4238BF0B469A4201D0A9
:10548000012C01D070BD704717490968814221D0B5
:105490008169C3620029A8BFC3F13803134DA8BFB7
:1054A00083611421436901FB02529342EAD1061D34
:1054B00004463046FEF7D6FD0D4AE36A1168142013
:1054C0008B4200FB03503146BDE8704088BF13603B
:1054D000FEF79EBD4FF0400383F31188BFF36F8F3B
:1054E000BFF34F8FFEE700BF982B0020A42B0020B6
:1054F00018300020044B1A681AB119688A6D0132FD
:105500008A651868704700BF982B00202DE9F0418C
:105510001F4C154680460E461F4600F003FC2268CD
:1055200092F86020022A09D02168CA6D22EA080296
:10553000CA652368012183F86010B7B900F014FC34
:1055400000F0F0FB15B12368DB6D2B60236893F846
:105550006030022B15D000252368002283F86020DC
:1055600000F002FC2846BDE8F0813846FFF76CFBEE
:10557000084B4FF080521A60BFF34F8FBFF36F8F0D
:10558000DCE72268D36D23EA0606D6650125E3E74A
:10559000982B002004ED00E0F8B5A8B11F460446A2
:1055A00015460E4600F0BEFB0FB1E36D3B6094F86C
:1055B000602002216B1ED2B284F86010032B0FD83A
:1055C000DFE803F046420D0B4FF0400383F31188F0
:1055D000BFF36F8FBFF34F8FFEE7022A07D0E66558
:1055E000012A06D0012400F0BFFB2046F8BD0024AC
:1055F000F9E7251D2846FEF735FD174AE36A1168CD
:105600008B4288BF1360154A142000FB03202946F3
:10561000FEF7FEFCA36A43B14FF0400383F3118809
:10562000BFF36F8FBFF34F8FFEE70D4BE26A1B682E
:10563000DB6A9A42D6D90B4B4FF080521A60BFF307
:105640004F8FBFF36F8FCDE7E36D0133E365C7E79E
:10565000E36D1E43E665C3E718300020A42B00204D
:10566000982B002004ED00E02DE9F843DDF82080C0
:1056700010B30446994615460E4600F077FCEFF34A
:1056800011874FF0400383F31188BFF36F8FBFF38F
:105690004F8FB9F1000F02D0E36DC9F8003094F8D4
:1056A000602002216B1ED2B284F86010032B0FD849
:1056B000DFE803F047430D0B4FF0400383F31188FD
:1056C000BFF36F8FBFF34F8FFEE7022A07D0E66567
:1056D000012A06D0012087F31188BDE8F883002055
:1056E000F9E7A36A43B14FF0400383F31188BFF396
:1056F0006F8FBFF34F8FFEE7194B1B684BBB251D08
:105700002846FEF7AFFC174AE36A11688B4288BF50
:105710001360154A1420294600FB0320FEF778FC8D
:10572000124BE26A1B68DB6A9A42D3D9B8F1000FC8
:105730000BD00120C8F80000CDE7E36D0133E3652D
:10574000C6E7E36D1E43E665C2E7094B012018601A
:10575000C1E704F118010748FEF75AFCE0E700BF73
:105760001030002018300020A42B0020982B00209F
:10577000903000204C300020F0B5144C83B000F085
:10578000D1FA256825B103B0BDE8F04000F0ECBACD
:105790000F4F104E3846FEF72BFC3046FEF728FC24
:1057A0000D4A0E4900950E4B17600E600D4A1021F0
:1057B0000A20FEF747FD20600028E4D00A49FFF7E1
:1057C000D9F803B0BDE8F04000F0CEBAB031002007
:1057D0003C310020503100209430002098300020CF
:1057E000683100209C300020A88B0208914208B547
:1057F0000061416005D88169D21A8A420CD3012028
:1058000008BD9A4201D29942F9D2074B011D18688E
:10581000FEF70EFC002008BD044B011D1868FEF7C2
:1058200007FC002008BD00BF943000209830002005
:1058300010B588B0FFF7A0FF124B1B68CBB1002456
:1058400007AA06A905A8CDE90544FEF7C1FBDDE9D5
:1058500005300221CDE900100293079A0A490B484E
:105860002346FFF72BFA0A4B186010B1012008B04D
:1058700010BD4FF0400383F31188BFF36F8FBFF368
:105880004F8FFEE7B0310020B08B0208555A000858
:10589000B43100202DE9F04281462C200D461646F9
:1058A0001F4600F0B9FB0446C0B145B94FF04003B4
:1058B00083F31188BFF36F8FBFF34F8FFEE7FFF7BE
:1058C0005BFF069B6362C4F80090C4E9065627623A
:1058D000201DFEF799FB002384F828302046BDE800
:1058E000F08200BF2DE9F04383B02C240194019D88
:1058F0002C2DDDE90A6408D04FF0400383F31188B2
:10590000BFF36F8FBFF34F8FFEE744B94FF04003F3
:1059100083F31188BFF36F8FBFF34F8FFEE741B959
:105920004FF0400383F31188BFF36F8FBFF34F8FA6
:10593000FEE71F4690460D468146FFF71DFF201DDE
:10594000C4F80090C4E90658C4E90876FEF75CFB89
:105950000123204684F8283003B0BDE8F08300BF5F
:10596000C0B170B5164D0446286884B080B11646A3
:1059700005291A46CDE90016029414DCFFF7D8FC7D
:10598000022816D0002328681A466946FEF7DCFC78
:1059900004B070BD4FF0400383F31188BFF36F8FE5
:1059A000BFF34F8FFEE700236946FEF7D3FD04B037
:1059B00070BD2868089A00236946FEF7C5FCE7E732
:1059C000B03100202DE9F043DFF8849083B04FF030
:1059D00000080CE0DB68DC681F68251D2846FEF720
:1059E00041FB636A20469847E369012B0CD0D9F844
:1059F00000301A68002AEDD1144A1168C9F8001065
:105A0000136003B0BDE8F083A66907EB060C002322
:105A100067453A461946204608D2C4F804C02461B6
:105A2000D9F800002946FEF703FBE0E7CDF8008037
:105A3000FFF796FF0028DAD14FF0400383F3118877
:105A4000BFF36F8FBFF34F8FFEE700BF983000208A
:105A5000943000202DE9F04F704F714E714DDFF8FA
:105A6000CC9187B04FF001083B681C68002C52D0E5
:105A7000DB681C68FFF7D0F9FFF7D6F9326882427D
:105A8000824659D8844230606BD90022A4EB0A01C7
:105A90002868FEF783FFFFF76FFA38B9624A4FF0C4
:105AA00080531360BFF34F8FBFF36F8F002202A9A3
:105AB0002868FEF7B5FD0028D6D0029B049C002B79
:105AC00007DA039B059920469847029B002BEDDBE4
:105AD000049C636913B1201DFEF7C4FAFFF7A4F913
